{
  "_format": "hh-sol-artifact-1",
  "contractName": "TokenExchange",
  "sourceName": "contracts/exchange.sol",
  "abi": [
    {
      "inputs": [],
      "stateMutability": "nonpayable",
      "type": "constructor"
    },
    {
      "anonymous": false,
      "inputs": [
        {
          "indexed": true,
          "internalType": "address",
          "name": "provider",
          "type": "address"
        },
        {
          "indexed": false,
          "internalType": "uint256",
          "name": "amountTokens",
          "type": "uint256"
        },
        {
          "indexed": false,
          "internalType": "uint256",
          "name": "amountETH",
          "type": "uint256"
        }
      ],
      "name": "AddLiquidity",
      "type": "event"
    },
    {
      "anonymous": false,
      "inputs": [
        {
          "indexed": true,
          "internalType": "address",
          "name": "previousOwner",
          "type": "address"
        },
        {
          "indexed": true,
          "internalType": "address",
          "name": "newOwner",
          "type": "address"
        }
      ],
      "name": "OwnershipTransferred",
      "type": "event"
    },
    {
      "inputs": [
        {
          "internalType": "uint256",
          "name": "min_exchange_rate",
          "type": "uint256"
        },
        {
          "internalType": "uint256",
          "name": "max_exchange_rate",
          "type": "uint256"
        }
      ],
      "name": "addLiquidity",
      "outputs": [],
      "stateMutability": "payable",
      "type": "function"
    },
    {
      "inputs": [
        {
          "internalType": "uint256",
          "name": "amountTokens",
          "type": "uint256"
        }
      ],
      "name": "createPool",
      "outputs": [],
      "stateMutability": "payable",
      "type": "function"
    },
    {
      "inputs": [],
      "name": "debugPrint",
      "outputs": [],
      "stateMutability": "view",
      "type": "function"
    },
    {
      "inputs": [],
      "name": "exchange_name",
      "outputs": [
        {
          "internalType": "string",
          "name": "",
          "type": "string"
        }
      ],
      "stateMutability": "view",
      "type": "function"
    },
    {
      "inputs": [],
      "name": "getReserves",
      "outputs": [
        {
          "internalType": "uint256",
          "name": "",
          "type": "uint256"
        },
        {
          "internalType": "uint256",
          "name": "",
          "type": "uint256"
        }
      ],
      "stateMutability": "view",
      "type": "function"
    },
    {
      "inputs": [],
      "name": "getSwapFee",
      "outputs": [
        {
          "internalType": "uint256",
          "name": "",
          "type": "uint256"
        },
        {
          "internalType": "uint256",
          "name": "",
          "type": "uint256"
        }
      ],
      "stateMutability": "view",
      "type": "function"
    },
    {
      "inputs": [],
      "name": "owner",
      "outputs": [
        {
          "internalType": "address",
          "name": "",
          "type": "address"
        }
      ],
      "stateMutability": "view",
      "type": "function"
    },
    {
      "inputs": [
        {
          "internalType": "address",
          "name": "_addr",
          "type": "address"
        }
      ],
      "name": "printAccount",
      "outputs": [],
      "stateMutability": "view",
      "type": "function"
    },
    {
      "inputs": [
        {
          "internalType": "uint256",
          "name": "min_exchange_rate",
          "type": "uint256"
        },
        {
          "internalType": "uint256",
          "name": "max_exchange_rate",
          "type": "uint256"
        }
      ],
      "name": "removeAllLiquidity",
      "outputs": [],
      "stateMutability": "payable",
      "type": "function"
    },
    {
      "inputs": [
        {
          "internalType": "uint256",
          "name": "amountETH",
          "type": "uint256"
        },
        {
          "internalType": "uint256",
          "name": "min_exchange_rate",
          "type": "uint256"
        },
        {
          "internalType": "uint256",
          "name": "max_exchange_rate",
          "type": "uint256"
        }
      ],
      "name": "removeLiquidity",
      "outputs": [],
      "stateMutability": "payable",
      "type": "function"
    },
    {
      "inputs": [],
      "name": "renounceOwnership",
      "outputs": [],
      "stateMutability": "nonpayable",
      "type": "function"
    },
    {
      "inputs": [
        {
          "internalType": "uint256",
          "name": "max_exchange_rate",
          "type": "uint256"
        }
      ],
      "name": "swapETHForTokens",
      "outputs": [],
      "stateMutability": "payable",
      "type": "function"
    },
    {
      "inputs": [
        {
          "internalType": "uint256",
          "name": "amountTokens",
          "type": "uint256"
        },
        {
          "internalType": "uint256",
          "name": "max_exchange_rate",
          "type": "uint256"
        }
      ],
      "name": "swapTokensForETH",
      "outputs": [],
      "stateMutability": "payable",
      "type": "function"
    },
    {
      "inputs": [],
      "name": "token",
      "outputs": [
        {
          "internalType": "contract Token",
          "name": "",
          "type": "address"
        }
      ],
      "stateMutability": "view",
      "type": "function"
    },
    {
      "inputs": [
        {
          "internalType": "address",
          "name": "newOwner",
          "type": "address"
        }
      ],
      "name": "transferOwnership",
      "outputs": [],
      "stateMutability": "nonpayable",
      "type": "function"
    }
  ],
  "bytecode": "0x6080604052604051806020016040528060008152506001908162000024919062000481565b50735fbdb2315678afecb367f032d93f642f64180aa3600260006101000a81548173ffffffffffffffffffffffffffffffffffffffff021916908373ffffffffffffffffffffffffffffffffffffffff160217905550600260009054906101000a900473ffffffffffffffffffffffffffffffffffffffff16600360006101000a81548173ffffffffffffffffffffffffffffffffffffffff021916908373ffffffffffffffffffffffffffffffffffffffff16021790555060006004556000600555600060065560006007556000600a556003600b556064600c55620186a0600e553480156200011457600080fd5b5062000135620001296200013b60201b60201c565b6200014360201b60201c565b62000568565b600033905090565b60008060009054906101000a900473ffffffffffffffffffffffffffffffffffffffff169050816000806101000a81548173ffffffffffffffffffffffffffffffffffffffff021916908373ffffffffffffffffffffffffffffffffffffffff1602179055508173ffffffffffffffffffffffffffffffffffffffff168173ffffffffffffffffffffffffffffffffffffffff167f8be0079c531659141344cd1fd0a4f28419497f9722a3daafe3b4186f6b6457e060405160405180910390a35050565b600081519050919050565b7f4e487b7100000000000000000000000000000000000000000000000000000000600052604160045260246000fd5b7f4e487b7100000000000000000000000000000000000000000000000000000000600052602260045260246000fd5b600060028204905060018216806200028957607f821691505b6020821081036200029f576200029e62000241565b5b50919050565b60008190508160005260206000209050919050565b60006020601f8301049050919050565b600082821b905092915050565b600060088302620003097fffffffffffffffffffffffffffffffffffffffffffffffffffffffffffffffff82620002ca565b620003158683620002ca565b95508019841693508086168417925050509392505050565b6000819050919050565b6000819050919050565b6000620003626200035c62000356846200032d565b62000337565b6200032d565b9050919050565b6000819050919050565b6200037e8362000341565b620003966200038d8262000369565b848454620002d7565b825550505050565b600090565b620003ad6200039e565b620003ba81848462000373565b505050565b5b81811015620003e257620003d6600082620003a3565b600181019050620003c0565b5050565b601f8211156200043157620003fb81620002a5565b6200040684620002ba565b8101602085101562000416578190505b6200042e6200042585620002ba565b830182620003bf565b50505b505050565b600082821c905092915050565b6000620004566000198460080262000436565b1980831691505092915050565b600062000471838362000443565b9150826002028217905092915050565b6200048c8262000207565b67ffffffffffffffff811115620004a857620004a762000212565b5b620004b4825462000270565b620004c1828285620003e6565b600060209050601f831160018114620004f95760008415620004e4578287015190505b620004f0858262000463565b86555062000560565b601f1984166200050986620002a5565b60005b8281101562000533578489015182556001820191506020850194506020810190506200050c565b868310156200055357848901516200054f601f89168262000443565b8355505b6001600288020188555050505b505050505050565b612a9c80620005786000396000f3fe6080604052600436106100e85760003560e01c80638da5cb5b1161008a578063d4cadf6811610059578063d4cadf6814610243578063f2fde38b1461026f578063f694f7d114610298578063fc0c546a146102c3576100e8565b80638da5cb5b146101c95780639cd441da146101f4578063a22280a614610210578063b651978d1461022c576100e8565b806358ad6de4116100c657806358ad6de41461015e578063715018a61461017a5780638259e6a014610191578063857620e1146101ad576100e8565b80630902f1ac146100ed5780631ceaeedd146101195780632eab284114610142575b600080fd5b3480156100f957600080fd5b506101026102ee565b604051610110929190611ea4565b60405180910390f35b34801561012557600080fd5b50610140600480360381019061013b9190611f30565b6102ff565b005b61015c60048036038101906101579190611f89565b6104b0565b005b61017860048036038101906101739190611fb6565b6106fb565b005b34801561018657600080fd5b5061018f610ade565b005b6101ab60048036038101906101a69190611f89565b610af2565b005b6101c760048036038101906101c29190611ff6565b610ea2565b005b3480156101d557600080fd5b506101de611319565b6040516101eb9190612058565b60405180910390f35b61020e60048036038101906102099190611fb6565b611342565b005b61022a60048036038101906102259190611fb6565b6117a4565b005b34801561023857600080fd5b506102416119bb565b005b34801561024f57600080fd5b50610258611ac1565b604051610266929190611ea4565b60405180910390f35b34801561027b57600080fd5b5061029660048036038101906102919190611f30565b611ad2565b005b3480156102a457600080fd5b506102ad611b55565b6040516102ba9190612103565b60405180910390f35b3480156102cf57600080fd5b506102d8611be3565b6040516102e59190612184565b60405180910390f35b600080600554600454915091509091565b6103556040518060400160405280600581526020017f6574683a200000000000000000000000000000000000000000000000000000008152508273ffffffffffffffffffffffffffffffffffffffff1631611c09565b61042f6040518060400160405280600781526020017f746f6b656e3a2000000000000000000000000000000000000000000000000000815250600360009054906101000a900473ffffffffffffffffffffffffffffffffffffffff1673ffffffffffffffffffffffffffffffffffffffff166370a08231846040518263ffffffff1660e01b81526004016103e99190612058565b602060405180830381865afa158015610406573d6000803e3d6000fd5b505050506040513d601f19601f8201168201806040525081019061042a91906121b4565b611c09565b6104ad6040518060400160405280600881526020017f7368617265733a20000000000000000000000000000000000000000000000000815250600860008473ffffffffffffffffffffffffffffffffffffffff1673ffffffffffffffffffffffffffffffffffffffff16815260200190815260200160002054611c09565b50565b6000600454670de0b6b3a76400006104c89190612210565b600e546005546104d89190612210565b6104e29190612281565b90506105236040518060400160405280600481526020017f65723a200000000000000000000000000000000000000000000000000000000081525082611c09565b6105626040518060400160405280601381526020017f6d61785f65786368616e67655f726174653a200000000000000000000000000081525083611c09565b818111156105a5576040517f08c379a000000000000000000000000000000000000000000000000000000000815260040161059c906122fe565b60405180910390fd5b6000346005546105b5919061231e565b9050600081600d546105c79190612281565b90506000816004546105d99190612352565b90506000821161061e576040517f08c379a0000000000000000000000000000000000000000000000000000000008152600401610615906123d2565b60405180910390fd5b600360009054906101000a900473ffffffffffffffffffffffffffffffffffffffff1673ffffffffffffffffffffffffffffffffffffffff1663a9059cbb33836040518363ffffffff1660e01b815260040161067b9291906123f2565b6020604051808303816000875af115801561069a573d6000803e3d6000fd5b505050506040513d601f19601f820116820180604052508101906106be9190612453565b5081600481905550826005819055506005546004546106dd9190612210565b600d819055506106eb6119bb565b6106f4336102ff565b5050505050565b6000600554600e54600454670de0b6b3a76400006107199190612210565b6107239190612210565b61072d9190612281565b905081811115610772576040517f08c379a0000000000000000000000000000000000000000000000000000000008152600401610769906122fe565b60405180910390fd5b828110156107b5576040517f08c379a00000000000000000000000000000000000000000000000000000000081526004016107ac906124cc565b60405180910390fd5b6000600a54600860003373ffffffffffffffffffffffffffffffffffffffff1673ffffffffffffffffffffffffffffffffffffffff168152602001908152602001600020546004546108079190612210565b6108119190612281565b90506000600a54600860003373ffffffffffffffffffffffffffffffffffffffff1673ffffffffffffffffffffffffffffffffffffffff168152602001908152602001600020546005546108659190612210565b61086f9190612281565b90506108796119bb565b6108b86040518060400160405280600e81526020017f616d6f756e74546f6b656e733a2000000000000000000000000000000000000081525083611c09565b6000826004546108c89190612352565b90506000826005546108da9190612352565b90506000811161091f576040517f08c379a000000000000000000000000000000000000000000000000000000000815260040161091690612538565b60405180910390fd5b60008211610962576040517f08c379a0000000000000000000000000000000000000000000000000000000008152600401610959906123d2565b60405180910390fd5b600360009054906101000a900473ffffffffffffffffffffffffffffffffffffffff1673ffffffffffffffffffffffffffffffffffffffff1663a9059cbb33866040518363ffffffff1660e01b81526004016109bf9291906123f2565b6020604051808303816000875af11580156109de573d6000803e3d6000fd5b505050506040513d601f19601f82011682018060405250810190610a029190612453565b508160048190555080600581905550600860003373ffffffffffffffffffffffffffffffffffffffff1673ffffffffffffffffffffffffffffffffffffffff16815260200190815260200160002054600a6000828254610a629190612352565b925050819055506000600860003373ffffffffffffffffffffffffffffffffffffffff1673ffffffffffffffffffffffffffffffffffffffff16815260200190815260200160002081905550600554600454610abe9190612210565b600d81905550610acc6119bb565b610ad5336102ff565b50505050505050565b610ae6611ca5565b610af06000611d23565b565b610afa611ca5565b600060045414610b3f576040517f08c379a0000000000000000000000000000000000000000000000000000000008152600401610b36906125a4565b60405180910390fd5b600060055414610b84576040517f08c379a0000000000000000000000000000000000000000000000000000000008152600401610b7b90612610565b60405180910390fd5b60003411610bc7576040517f08c379a0000000000000000000000000000000000000000000000000000000008152600401610bbe9061267c565b60405180910390fd5b6000600360009054906101000a900473ffffffffffffffffffffffffffffffffffffffff1673ffffffffffffffffffffffffffffffffffffffff166370a08231336040518263ffffffff1660e01b8152600401610c249190612058565b602060405180830381865afa158015610c41573d6000803e3d6000fd5b505050506040513d601f19601f82011682018060405250810190610c6591906121b4565b905080821115610caa576040517f08c379a0000000000000000000000000000000000000000000000000000000008152600401610ca19061270e565b60405180910390fd5b60008211610ced576040517f08c379a0000000000000000000000000000000000000000000000000000000008152600401610ce49061277a565b60405180910390fd5b600360009054906101000a900473ffffffffffffffffffffffffffffffffffffffff1673ffffffffffffffffffffffffffffffffffffffff166323b872dd3330856040518463ffffffff1660e01b8152600401610d4c9392919061279a565b6020604051808303816000875af1158015610d6b573d6000803e3d6000fd5b505050506040513d601f19601f82011682018060405250810190610d8f9190612453565b50600360009054906101000a900473ffffffffffffffffffffffffffffffffffffffff1673ffffffffffffffffffffffffffffffffffffffff166370a08231306040518263ffffffff1660e01b8152600401610deb9190612058565b602060405180830381865afa158015610e08573d6000803e3d6000fd5b505050506040513d601f19601f82011682018060405250810190610e2c91906121b4565b60048190555034600581905550600554600454610e499190612210565b600d81905550620186a0600a819055506064600860003373ffffffffffffffffffffffffffffffffffffffff1673ffffffffffffffffffffffffffffffffffffffff168152602001908152602001600020819055505050565b670de0b6b3a764000083610eb69190612210565b600060055460045483610ec99190612210565b610ed39190612281565b9050600081600454610ee59190612352565b9050600083600554610ef79190612352565b905060008111610f3c576040517f08c379a0000000000000000000000000000000000000000000000000000000008152600401610f3390612538565b60405180910390fd5b60008211610f7f576040517f08c379a0000000000000000000000000000000000000000000000000000000008152600401610f76906123d2565b60405180910390fd5b6000600554600e54600454670de0b6b3a7640000610f9d9190612210565b610fa79190612210565b610fb19190612281565b905085811115610ff6576040517f08c379a0000000000000000000000000000000000000000000000000000000008152600401610fed906122fe565b60405180910390fd5b86811015611039576040517f08c379a0000000000000000000000000000000000000000000000000000000008152600401611030906124cc565b60405180910390fd5b670de0b6b3a76400008861104d9190612210565b975060006005546004548a6110629190612210565b61106c9190612281565b90506000600454600a54836110819190612210565b61108b9190612281565b90506110cc6040518060400160405280600e81526020017f616d6f756e74546f6b656e733a2000000000000000000000000000000000000081525083611c09565b6110d46119bb565b6111136040518060400160405280601281526020017f736861726573546f57697468647261773a20000000000000000000000000000081525082611c09565b61111c81611de7565b61115b576040517f08c379a00000000000000000000000000000000000000000000000000000000081526004016111529061281d565b60405180910390fd5b60008260045461116b9190612352565b905060008b60055461117d9190612352565b90508160048190555080600581905550600360009054906101000a900473ffffffffffffffffffffffffffffffffffffffff1673ffffffffffffffffffffffffffffffffffffffff1663a9059cbb33866040518363ffffffff1660e01b81526004016111ea9291906123f2565b6020604051808303816000875af1158015611209573d6000803e3d6000fd5b505050506040513d601f19601f8201168201806040525081019061122d9190612453565b503373ffffffffffffffffffffffffffffffffffffffff166108fc8d9081150290604051600060405180830381858888f19350505050158015611274573d6000803e3d6000fd5b5082600860003373ffffffffffffffffffffffffffffffffffffffff1673ffffffffffffffffffffffffffffffffffffffff16815260200190815260200160002060008282546112c49190612352565b9250508190555082600a60008282546112dd9190612352565b925050819055506005546004546112f49190612210565b600d819055506113026119bb565b61130b336102ff565b505050505050505050505050565b60008060009054906101000a900473ffffffffffffffffffffffffffffffffffffffff16905090565b6000600554600e54600454670de0b6b3a76400006113609190612210565b61136a9190612210565b6113749190612281565b9050818111156113b9576040517f08c379a00000000000000000000000000000000000000000000000000000000081526004016113b0906122fe565b60405180910390fd5b828110156113fc576040517f08c379a00000000000000000000000000000000000000000000000000000000081526004016113f3906124cc565b60405180910390fd5b60003490506000600554600454836114149190612210565b61141e9190612281565b9050611429336102ff565b600360009054906101000a900473ffffffffffffffffffffffffffffffffffffffff1673ffffffffffffffffffffffffffffffffffffffff166370a08231336040518263ffffffff1660e01b81526004016114849190612058565b602060405180830381865afa1580156114a1573d6000803e3d6000fd5b505050506040513d601f19601f820116820180604052508101906114c591906121b4565b811115611507576040517f08c379a00000000000000000000000000000000000000000000000000000000081526004016114fe90612889565b60405180910390fd5b8160056000828254611519919061231e565b925050819055506000600a5460045460045484611536919061231e565b600a546115439190612210565b61154d9190612281565b6115579190612352565b9050816004600082825461156b919061231e565b92505081905550600360009054906101000a900473ffffffffffffffffffffffffffffffffffffffff1673ffffffffffffffffffffffffffffffffffffffff1663095ea7b330846040518363ffffffff1660e01b81526004016115cf9291906123f2565b6020604051808303816000875af11580156115ee573d6000803e3d6000fd5b505050506040513d601f19601f820116820180604052508101906116129190612453565b50600360009054906101000a900473ffffffffffffffffffffffffffffffffffffffff1673ffffffffffffffffffffffffffffffffffffffff166323b872dd3330856040518463ffffffff1660e01b81526004016116729392919061279a565b6020604051808303816000875af1158015611691573d6000803e3d6000fd5b505050506040513d601f19601f820116820180604052508101906116b59190612453565b5080600860003373ffffffffffffffffffffffffffffffffffffffff1673ffffffffffffffffffffffffffffffffffffffff1681526020019081526020016000206000828254611705919061231e565b9250508190555060055460045461171c9190612210565b600d8190555080600a6000828254611734919061231e565b925050819055506117436119bb565b61174c336102ff565b3373ffffffffffffffffffffffffffffffffffffffff167f06239653922ac7bea6aa2b19dc486b9361821d37712eb796adfd38d81de278ca8385604051611794929190611ea4565b60405180910390a2505050505050565b6000600554600e54600454670de0b6b3a76400006117c29190612210565b6117cc9190612210565b6117d69190612281565b90508181111561181b576040517f08c379a0000000000000000000000000000000000000000000000000000000008152600401611812906122fe565b60405180910390fd5b60008360045461182b919061231e565b9050600081600d5461183d9190612281565b905060008160055461184f9190612352565b905060008211611894576040517f08c379a000000000000000000000000000000000000000000000000000000000815260040161188b90612538565b60405180910390fd5b600360009054906101000a900473ffffffffffffffffffffffffffffffffffffffff1673ffffffffffffffffffffffffffffffffffffffff166323b872dd3330896040518463ffffffff1660e01b81526004016118f39392919061279a565b6020604051808303816000875af1158015611912573d6000803e3d6000fd5b505050506040513d601f19601f820116820180604052508101906119369190612453565b503373ffffffffffffffffffffffffffffffffffffffff166108fc829081150290604051600060405180830381858888f1935050505015801561197d573d6000803e3d6000fd5b50826004819055508160058190555060055460045461199c9190612210565b600d819055506119aa6119bb565b6119b3336102ff565b505050505050565b6119fc6040518060400160405280600e81526020017f6574685f72657365727665733a20000000000000000000000000000000000000815250600554611c09565b611a3d6040518060400160405280601081526020017f746f6b656e5f72657365727665733a2000000000000000000000000000000000815250600454611c09565b611a7e6040518060400160405280600381526020017f6b3a200000000000000000000000000000000000000000000000000000000000815250600d54611c09565b611abf6040518060400160405280600e81526020017f746f74616c5f7368617265733a20000000000000000000000000000000000000815250600a54611c09565b565b600080600b54600c54915091509091565b611ada611ca5565b600073ffffffffffffffffffffffffffffffffffffffff168173ffffffffffffffffffffffffffffffffffffffff1603611b49576040517f08c379a0000000000000000000000000000000000000000000000000000000008152600401611b409061291b565b60405180910390fd5b611b5281611d23565b50565b60018054611b629061296a565b80601f0160208091040260200160405190810160405280929190818152602001828054611b8e9061296a565b8015611bdb5780601f10611bb057610100808354040283529160200191611bdb565b820191906000526020600020905b815481529060010190602001808311611bbe57829003601f168201915b505050505081565b600360009054906101000a900473ffffffffffffffffffffffffffffffffffffffff1681565b611ca18282604051602401611c1f92919061299b565b6040516020818303038152906040527fb60e72cc000000000000000000000000000000000000000000000000000000007bffffffffffffffffffffffffffffffffffffffffffffffffffffffff19166020820180517bffffffffffffffffffffffffffffffffffffffffffffffffffffffff8381831617835250505050611e33565b5050565b611cad611e4d565b73ffffffffffffffffffffffffffffffffffffffff16611ccb611319565b73ffffffffffffffffffffffffffffffffffffffff1614611d21576040517f08c379a0000000000000000000000000000000000000000000000000000000008152600401611d1890612a17565b60405180910390fd5b565b60008060009054906101000a900473ffffffffffffffffffffffffffffffffffffffff169050816000806101000a81548173ffffffffffffffffffffffffffffffffffffffff021916908373ffffffffffffffffffffffffffffffffffffffff1602179055508173ffffffffffffffffffffffffffffffffffffffff168173ffffffffffffffffffffffffffffffffffffffff167f8be0079c531659141344cd1fd0a4f28419497f9722a3daafe3b4186f6b6457e060405160405180910390a35050565b6000600860003373ffffffffffffffffffffffffffffffffffffffff1673ffffffffffffffffffffffffffffffffffffffff168152602001908152602001600020548211159050919050565b611e4a81611e42611e55611e76565b63ffffffff16565b50565b600033905090565b60006a636f6e736f6c652e6c6f679050600080835160208501845afa505050565b611e81819050919050565b611e89612a37565b565b6000819050919050565b611e9e81611e8b565b82525050565b6000604082019050611eb96000830185611e95565b611ec66020830184611e95565b9392505050565b600080fd5b600073ffffffffffffffffffffffffffffffffffffffff82169050919050565b6000611efd82611ed2565b9050919050565b611f0d81611ef2565b8114611f1857600080fd5b50565b600081359050611f2a81611f04565b92915050565b600060208284031215611f4657611f45611ecd565b5b6000611f5484828501611f1b565b91505092915050565b611f6681611e8b565b8114611f7157600080fd5b50565b600081359050611f8381611f5d565b92915050565b600060208284031215611f9f57611f9e611ecd565b5b6000611fad84828501611f74565b91505092915050565b60008060408385031215611fcd57611fcc611ecd565b5b6000611fdb85828601611f74565b9250506020611fec85828601611f74565b9150509250929050565b60008060006060848603121561200f5761200e611ecd565b5b600061201d86828701611f74565b935050602061202e86828701611f74565b925050604061203f86828701611f74565b9150509250925092565b61205281611ef2565b82525050565b600060208201905061206d6000830184612049565b92915050565b600081519050919050565b600082825260208201905092915050565b60005b838110156120ad578082015181840152602081019050612092565b60008484015250505050565b6000601f19601f8301169050919050565b60006120d582612073565b6120df818561207e565b93506120ef81856020860161208f565b6120f8816120b9565b840191505092915050565b6000602082019050818103600083015261211d81846120ca565b905092915050565b6000819050919050565b600061214a61214561214084611ed2565b612125565b611ed2565b9050919050565b600061215c8261212f565b9050919050565b600061216e82612151565b9050919050565b61217e81612163565b82525050565b60006020820190506121996000830184612175565b92915050565b6000815190506121ae81611f5d565b92915050565b6000602082840312156121ca576121c9611ecd565b5b60006121d88482850161219f565b91505092915050565b7f4e487b7100000000000000000000000000000000000000000000000000000000600052601160045260246000fd5b600061221b82611e8b565b915061222683611e8b565b925082820261223481611e8b565b9150828204841483151761224b5761224a6121e1565b5b5092915050565b7f4e487b7100000000000000000000000000000000000000000000000000000000600052601260045260246000fd5b600061228c82611e8b565b915061229783611e8b565b9250826122a7576122a6612252565b5b828204905092915050565b7f45786368616e6765207261746520697320746f6f206869676800000000000000600082015250565b60006122e860198361207e565b91506122f3826122b2565b602082019050919050565b60006020820190508181036000830152612317816122db565b9050919050565b600061232982611e8b565b915061233483611e8b565b925082820190508082111561234c5761234b6121e1565b5b92915050565b600061235d82611e8b565b915061236883611e8b565b92508282039050818111156123805761237f6121e1565b5b92915050565b7f4e6f7420656e6f75676820746f6b656e20726573657276657300000000000000600082015250565b60006123bc60198361207e565b91506123c782612386565b602082019050919050565b600060208201905081810360008301526123eb816123af565b9050919050565b60006040820190506124076000830185612049565b6124146020830184611e95565b9392505050565b60008115159050919050565b6124308161241b565b811461243b57600080fd5b50565b60008151905061244d81612427565b92915050565b60006020828403121561246957612468611ecd565b5b60006124778482850161243e565b91505092915050565b7f45786368616e6765207261746520697320746f6f206c6f770000000000000000600082015250565b60006124b660188361207e565b91506124c182612480565b602082019050919050565b600060208201905081810360008301526124e5816124a9565b9050919050565b7f4e6f7420656e6f75676820657468207265736572766573000000000000000000600082015250565b600061252260178361207e565b915061252d826124ec565b602082019050919050565b6000602082019050818103600083015261255181612515565b9050919050565b7f546f6b656e20726573657276657320776173206e6f7420300000000000000000600082015250565b600061258e60188361207e565b915061259982612558565b602082019050919050565b600060208201905081810360008301526125bd81612581565b9050919050565b7f45544820726573657276657320776173206e6f7420302e000000000000000000600082015250565b60006125fa60178361207e565b9150612605826125c4565b602082019050919050565b60006020820190508181036000830152612629816125ed565b9050919050565b7f4e6565642065746820746f2063726561746520706f6f6c2e0000000000000000600082015250565b600061266660188361207e565b915061267182612630565b602082019050919050565b6000602082019050818103600083015261269581612659565b9050919050565b7f4e6f74206861766520656e6f75676820746f6b656e7320746f2063726561746560008201527f2074686520706f6f6c0000000000000000000000000000000000000000000000602082015250565b60006126f860298361207e565b91506127038261269c565b604082019050919050565b60006020820190508181036000830152612727816126eb565b9050919050565b7f4e65656420746f6b656e7320746f2063726561746520706f6f6c2e0000000000600082015250565b6000612764601b8361207e565b915061276f8261272e565b602082019050919050565b6000602082019050818103600083015261279381612757565b9050919050565b60006060820190506127af6000830186612049565b6127bc6020830185612049565b6127c96040830184611e95565b949350505050565b7f4e6f7420656e6f75676820736861726573000000000000000000000000000000600082015250565b600061280760118361207e565b9150612812826127d1565b602082019050919050565b60006020820190508181036000830152612836816127fa565b9050919050565b7f4e6f7420656e6f75676820746f6b656e2062616c616e63650000000000000000600082015250565b600061287360188361207e565b915061287e8261283d565b602082019050919050565b600060208201905081810360008301526128a281612866565b9050919050565b7f4f776e61626c653a206e6577206f776e657220697320746865207a65726f206160008201527f6464726573730000000000000000000000000000000000000000000000000000602082015250565b600061290560268361207e565b9150612910826128a9565b604082019050919050565b60006020820190508181036000830152612934816128f8565b9050919050565b7f4e487b7100000000000000000000000000000000000000000000000000000000600052602260045260246000fd5b6000600282049050600182168061298257607f821691505b6020821081036129955761299461293b565b5b50919050565b600060408201905081810360008301526129b581856120ca565b90506129c46020830184611e95565b9392505050565b7f4f776e61626c653a2063616c6c6572206973206e6f7420746865206f776e6572600082015250565b6000612a0160208361207e565b9150612a0c826129cb565b602082019050919050565b60006020820190508181036000830152612a30816129f4565b9050919050565b7f4e487b7100000000000000000000000000000000000000000000000000000000600052605160045260246000fdfea2646970667358221220bdff9a7410e2feb0068fac59c7537617a9e5ae03f38cc96feeceed245ad30dee64736f6c63430008110033",
  "linkReferences": {},
  "deployedLinkReferences": {}
}