{
  "_format": "hh-sol-artifact-1",
  "contractName": "TokenExchange",
  "sourceName": "contracts/exchange.sol",
  "abi": [
    {
      "inputs": [],
      "stateMutability": "nonpayable",
      "type": "constructor"
    },
    {
      "anonymous": false,
      "inputs": [
        {
          "indexed": true,
          "internalType": "address",
          "name": "provider",
          "type": "address"
        },
        {
          "indexed": false,
          "internalType": "uint256",
          "name": "amountTokens",
          "type": "uint256"
        },
        {
          "indexed": false,
          "internalType": "uint256",
          "name": "amountETH",
          "type": "uint256"
        }
      ],
      "name": "AddLiquidity",
      "type": "event"
    },
    {
      "anonymous": false,
      "inputs": [
        {
          "indexed": true,
          "internalType": "address",
          "name": "previousOwner",
          "type": "address"
        },
        {
          "indexed": true,
          "internalType": "address",
          "name": "newOwner",
          "type": "address"
        }
      ],
      "name": "OwnershipTransferred",
      "type": "event"
    },
    {
      "inputs": [],
      "name": "addLiquidity",
      "outputs": [],
      "stateMutability": "payable",
      "type": "function"
    },
    {
      "inputs": [
        {
          "internalType": "uint256",
          "name": "amountTokens",
          "type": "uint256"
        }
      ],
      "name": "createPool",
      "outputs": [],
      "stateMutability": "payable",
      "type": "function"
    },
    {
      "inputs": [],
      "name": "debugPrint",
      "outputs": [],
      "stateMutability": "view",
      "type": "function"
    },
    {
      "inputs": [],
      "name": "exchange_name",
      "outputs": [
        {
          "internalType": "string",
          "name": "",
          "type": "string"
        }
      ],
      "stateMutability": "view",
      "type": "function"
    },
    {
      "inputs": [],
      "name": "getReserves",
      "outputs": [
        {
          "internalType": "uint256",
          "name": "",
          "type": "uint256"
        },
        {
          "internalType": "uint256",
          "name": "",
          "type": "uint256"
        }
      ],
      "stateMutability": "view",
      "type": "function"
    },
    {
      "inputs": [],
      "name": "getSwapFee",
      "outputs": [
        {
          "internalType": "uint256",
          "name": "",
          "type": "uint256"
        },
        {
          "internalType": "uint256",
          "name": "",
          "type": "uint256"
        }
      ],
      "stateMutability": "view",
      "type": "function"
    },
    {
      "inputs": [],
      "name": "owner",
      "outputs": [
        {
          "internalType": "address",
          "name": "",
          "type": "address"
        }
      ],
      "stateMutability": "view",
      "type": "function"
    },
    {
      "inputs": [],
      "name": "removeAllLiquidity",
      "outputs": [],
      "stateMutability": "payable",
      "type": "function"
    },
    {
      "inputs": [
        {
          "internalType": "uint256",
          "name": "amountETH",
          "type": "uint256"
        }
      ],
      "name": "removeLiquidity",
      "outputs": [],
      "stateMutability": "payable",
      "type": "function"
    },
    {
      "inputs": [],
      "name": "renounceOwnership",
      "outputs": [],
      "stateMutability": "nonpayable",
      "type": "function"
    },
    {
      "inputs": [],
      "name": "swapETHForTokens",
      "outputs": [],
      "stateMutability": "payable",
      "type": "function"
    },
    {
      "inputs": [
        {
          "internalType": "uint256",
          "name": "amountTokens",
          "type": "uint256"
        }
      ],
      "name": "swapTokensForETH",
      "outputs": [],
      "stateMutability": "payable",
      "type": "function"
    },
    {
      "inputs": [],
      "name": "token",
      "outputs": [
        {
          "internalType": "contract Token",
          "name": "",
          "type": "address"
        }
      ],
      "stateMutability": "view",
      "type": "function"
    },
    {
      "inputs": [
        {
          "internalType": "address",
          "name": "newOwner",
          "type": "address"
        }
      ],
      "name": "transferOwnership",
      "outputs": [],
      "stateMutability": "nonpayable",
      "type": "function"
    }
  ],
  "bytecode": "0x6080604052604051806020016040528060008152506001908162000024919062000481565b50735fbdb2315678afecb367f032d93f642f64180aa3600260006101000a81548173ffffffffffffffffffffffffffffffffffffffff021916908373ffffffffffffffffffffffffffffffffffffffff160217905550600260009054906101000a900473ffffffffffffffffffffffffffffffffffffffff16600360006101000a81548173ffffffffffffffffffffffffffffffffffffffff021916908373ffffffffffffffffffffffffffffffffffffffff16021790555060006004556000600555600060065560006007556000600a556003600b556064600c55620186a0600e553480156200011457600080fd5b5062000135620001296200013b60201b60201c565b6200014360201b60201c565b62000568565b600033905090565b60008060009054906101000a900473ffffffffffffffffffffffffffffffffffffffff169050816000806101000a81548173ffffffffffffffffffffffffffffffffffffffff021916908373ffffffffffffffffffffffffffffffffffffffff1602179055508173ffffffffffffffffffffffffffffffffffffffff168173ffffffffffffffffffffffffffffffffffffffff167f8be0079c531659141344cd1fd0a4f28419497f9722a3daafe3b4186f6b6457e060405160405180910390a35050565b600081519050919050565b7f4e487b7100000000000000000000000000000000000000000000000000000000600052604160045260246000fd5b7f4e487b7100000000000000000000000000000000000000000000000000000000600052602260045260246000fd5b600060028204905060018216806200028957607f821691505b6020821081036200029f576200029e62000241565b5b50919050565b60008190508160005260206000209050919050565b60006020601f8301049050919050565b600082821b905092915050565b600060088302620003097fffffffffffffffffffffffffffffffffffffffffffffffffffffffffffffffff82620002ca565b620003158683620002ca565b95508019841693508086168417925050509392505050565b6000819050919050565b6000819050919050565b6000620003626200035c62000356846200032d565b62000337565b6200032d565b9050919050565b6000819050919050565b6200037e8362000341565b620003966200038d8262000369565b848454620002d7565b825550505050565b600090565b620003ad6200039e565b620003ba81848462000373565b505050565b5b81811015620003e257620003d6600082620003a3565b600181019050620003c0565b5050565b601f8211156200043157620003fb81620002a5565b6200040684620002ba565b8101602085101562000416578190505b6200042e6200042585620002ba565b830182620003bf565b50505b505050565b600082821c905092915050565b6000620004566000198460080262000436565b1980831691505092915050565b600062000471838362000443565b9150826002028217905092915050565b6200048c8262000207565b67ffffffffffffffff811115620004a857620004a762000212565b5b620004b4825462000270565b620004c1828285620003e6565b600060209050601f831160018114620004f95760008415620004e4578287015190505b620004f0858262000463565b86555062000560565b601f1984166200050986620002a5565b60005b8281101562000533578489015182556001820191506020850194506020810190506200050c565b868310156200055357848901516200054f601f89168262000443565b8355505b6001600288020188555050505b505050505050565b61245c80620005786000396000f3fe6080604052600436106100dd5760003560e01c8063d4cadf681161007f578063e8078d9411610059578063e8078d94146101fb578063f2fde38b14610205578063f694f7d11461022e578063fc0c546a14610259576100dd565b8063d4cadf68146101a9578063d592cbf6146101d5578063e56a645e146101df576100dd565b806388a780e5116100bb57806388a780e5146101415780638da5cb5b1461014b5780639c8f9f2314610176578063b651978d14610192576100dd565b80630902f1ac146100e2578063715018a61461010e5780638259e6a014610125575b600080fd5b3480156100ee57600080fd5b506100f7610284565b6040516101059291906119cf565b60405180910390f35b34801561011a57600080fd5b50610123610295565b005b61013f600480360381019061013a9190611a29565b6102a9565b005b610149610659565b005b34801561015757600080fd5b506101606109c8565b60405161016d9190611a97565b60405180910390f35b610190600480360381019061018b9190611a29565b6109f1565b005b34801561019e57600080fd5b506101a7610e9a565b005b3480156101b557600080fd5b506101be610fa0565b6040516101cc9291906119cf565b60405180910390f35b6101dd610fb1565b005b6101f960048036038101906101f49190611a29565b611126565b005b6102036112cc565b005b34801561021157600080fd5b5061022c60048036038101906102279190611ade565b6115fd565b005b34801561023a57600080fd5b50610243611680565b6040516102509190611b9b565b60405180910390f35b34801561026557600080fd5b5061026e61170e565b60405161027b9190611c1c565b60405180910390f35b600080600554600454915091509091565b61029d611734565b6102a760006117b2565b565b6102b1611734565b6000600454146102f6576040517f08c379a00000000000000000000000000000000000000000000000000000000081526004016102ed90611c83565b60405180910390fd5b60006005541461033b576040517f08c379a000000000000000000000000000000000000000000000000000000000815260040161033290611cef565b60405180910390fd5b6000341161037e576040517f08c379a000000000000000000000000000000000000000000000000000000000815260040161037590611d5b565b60405180910390fd5b6000600360009054906101000a900473ffffffffffffffffffffffffffffffffffffffff1673ffffffffffffffffffffffffffffffffffffffff166370a08231336040518263ffffffff1660e01b81526004016103db9190611a97565b602060405180830381865afa1580156103f8573d6000803e3d6000fd5b505050506040513d601f19601f8201168201806040525081019061041c9190611d90565b905080821115610461576040517f08c379a000000000000000000000000000000000000000000000000000000000815260040161045890611e2f565b60405180910390fd5b600082116104a4576040517f08c379a000000000000000000000000000000000000000000000000000000000815260040161049b90611e9b565b60405180910390fd5b600360009054906101000a900473ffffffffffffffffffffffffffffffffffffffff1673ffffffffffffffffffffffffffffffffffffffff166323b872dd3330856040518463ffffffff1660e01b815260040161050393929190611ebb565b6020604051808303816000875af1158015610522573d6000803e3d6000fd5b505050506040513d601f19601f820116820180604052508101906105469190611f2a565b50600360009054906101000a900473ffffffffffffffffffffffffffffffffffffffff1673ffffffffffffffffffffffffffffffffffffffff166370a08231306040518263ffffffff1660e01b81526004016105a29190611a97565b602060405180830381865afa1580156105bf573d6000803e3d6000fd5b505050506040513d601f19601f820116820180604052508101906105e39190611d90565b600481905550346005819055506005546004546106009190611f86565b600d81905550620186a0600a819055506064600860003373ffffffffffffffffffffffffffffffffffffffff1673ffffffffffffffffffffffffffffffffffffffff168152602001908152602001600020819055505050565b6000600a54600860003373ffffffffffffffffffffffffffffffffffffffff1673ffffffffffffffffffffffffffffffffffffffff168152602001908152602001600020546004546106ab9190611f86565b6106b59190611ff7565b90506000600a54600860003373ffffffffffffffffffffffffffffffffffffffff1673ffffffffffffffffffffffffffffffffffffffff168152602001908152602001600020546005546107099190611f86565b6107139190611ff7565b90506000826004546107259190612028565b90506000826005546107379190612028565b90506000811161077c576040517f08c379a0000000000000000000000000000000000000000000000000000000008152600401610773906120a8565b60405180910390fd5b600082116107bf576040517f08c379a00000000000000000000000000000000000000000000000000000000081526004016107b690612114565b60405180910390fd5b600360009054906101000a900473ffffffffffffffffffffffffffffffffffffffff1673ffffffffffffffffffffffffffffffffffffffff1663095ea7b330866040518363ffffffff1660e01b815260040161081c929190612134565b6020604051808303816000875af115801561083b573d6000803e3d6000fd5b505050506040513d601f19601f8201168201806040525081019061085f9190611f2a565b50600360009054906101000a900473ffffffffffffffffffffffffffffffffffffffff1673ffffffffffffffffffffffffffffffffffffffff1663a9059cbb33866040518363ffffffff1660e01b81526004016108bd929190612134565b6020604051808303816000875af11580156108dc573d6000803e3d6000fd5b505050506040513d601f19601f820116820180604052508101906109009190611f2a565b5081600481905550806005819055506000600860003373ffffffffffffffffffffffffffffffffffffffff1673ffffffffffffffffffffffffffffffffffffffff16815260200190815260200160002081905550600860003373ffffffffffffffffffffffffffffffffffffffff1673ffffffffffffffffffffffffffffffffffffffff16815260200190815260200160002054600a60008282546109a59190612028565b925050819055506005546004546109bc9190611f86565b600d8190555050505050565b60008060009054906101000a900473ffffffffffffffffffffffffffffffffffffffff16905090565b670de0b6b3a764000081610a059190611f86565b600060055460045483610a189190611f86565b610a229190611ff7565b9050600081600454610a349190612028565b9050600083600554610a469190612028565b905060008111610a8b576040517f08c379a0000000000000000000000000000000000000000000000000000000008152600401610a82906120a8565b60405180910390fd5b60008211610ace576040517f08c379a0000000000000000000000000000000000000000000000000000000008152600401610ac590612114565b60405180910390fd5b670de0b6b3a764000085610ae29190611f86565b9450600060055460045487610af79190611f86565b610b019190611ff7565b90506000600454600a5483610b169190611f86565b610b209190611ff7565b9050610b616040518060400160405280600e81526020017f616d6f756e74546f6b656e733a2000000000000000000000000000000000000081525083611876565b610ba26040518060400160405280601081526020017f746f6b656e5f72657365727665733a2000000000000000000000000000000000815250600454611876565b610be36040518060400160405280600e81526020017f746f74616c5f7368617265733a20000000000000000000000000000000000000815250600a54611876565b610c226040518060400160405280601281526020017f736861726573546f57697468647261773a20000000000000000000000000000081525082611876565b610c2b81611912565b610c6a576040517f08c379a0000000000000000000000000000000000000000000000000000000008152600401610c61906121a9565b60405180910390fd5b600082600454610c7a9190612028565b9050600088600554610c8c9190612028565b90508160048190555080600581905550600360009054906101000a900473ffffffffffffffffffffffffffffffffffffffff1673ffffffffffffffffffffffffffffffffffffffff1663a9059cbb33866040518363ffffffff1660e01b8152600401610cf9929190612134565b6020604051808303816000875af1158015610d18573d6000803e3d6000fd5b505050506040513d601f19601f82011682018060405250810190610d3c9190611f2a565b503373ffffffffffffffffffffffffffffffffffffffff166108fc8a9081150290604051600060405180830381858888f19350505050158015610d83573d6000803e3d6000fd5b5082600860003373ffffffffffffffffffffffffffffffffffffffff1673ffffffffffffffffffffffffffffffffffffffff1681526020019081526020016000206000828254610dd39190612028565b9250508190555082600a6000828254610dec9190612028565b92505081905550600554600454610e039190611f86565b600d81905550610e11610e9a565b610e8f6040518060400160405280600881526020017f7368617265733a20000000000000000000000000000000000000000000000000815250600860003373ffffffffffffffffffffffffffffffffffffffff1673ffffffffffffffffffffffffffffffffffffffff16815260200190815260200160002054611876565b505050505050505050565b610edb6040518060400160405280600e81526020017f6574685f72657365727665733a20000000000000000000000000000000000000815250600554611876565b610f1c6040518060400160405280601081526020017f746f6b656e5f72657365727665733a2000000000000000000000000000000000815250600454611876565b610f5d6040518060400160405280600381526020017f6b3a200000000000000000000000000000000000000000000000000000000000815250600d54611876565b610f9e6040518060400160405280600e81526020017f746f74616c5f7368617265733a20000000000000000000000000000000000000815250600a54611876565b565b600080600b54600c54915091509091565b600060045434600554610fc491906121c9565b600d54610fd19190611ff7565b610fdb9190612028565b9050600081600454610fed9190612028565b905060008111611032576040517f08c379a000000000000000000000000000000000000000000000000000000000815260040161102990612114565b60405180910390fd5b346005600082825461104491906121c9565b92505081905550600360009054906101000a900473ffffffffffffffffffffffffffffffffffffffff1673ffffffffffffffffffffffffffffffffffffffff1663a9059cbb33846040518363ffffffff1660e01b81526004016110a8929190612134565b6020604051808303816000875af11580156110c7573d6000803e3d6000fd5b505050506040513d601f19601f820116820180604052508101906110eb9190611f2a565b5080600481905550346005600082825461110591906121c9565b9250508190555060055460045461111c9190611f86565b600d819055505050565b60006005548260045461113991906121c9565b600d546111469190611ff7565b6111509190612028565b90506000816005546111629190612028565b9050600081116111a7576040517f08c379a000000000000000000000000000000000000000000000000000000000815260040161119e906120a8565b60405180910390fd5b600360009054906101000a900473ffffffffffffffffffffffffffffffffffffffff1673ffffffffffffffffffffffffffffffffffffffff166323b872dd3330866040518463ffffffff1660e01b815260040161120693929190611ebb565b6020604051808303816000875af1158015611225573d6000803e3d6000fd5b505050506040513d601f19601f820116820180604052508101906112499190611f2a565b503373ffffffffffffffffffffffffffffffffffffffff166108fc839081150290604051600060405180830381858888f19350505050158015611290573d6000803e3d6000fd5b5082600460008282546112a391906121c9565b92505081905550806005819055506005546004546112c19190611f86565b600d81905550505050565b60003490506000600554600454836112e49190611f86565b6112ee9190611ff7565b9050600360009054906101000a900473ffffffffffffffffffffffffffffffffffffffff1673ffffffffffffffffffffffffffffffffffffffff166370a08231336040518263ffffffff1660e01b815260040161134b9190611a97565b602060405180830381865afa158015611368573d6000803e3d6000fd5b505050506040513d601f19601f8201168201806040525081019061138c9190611d90565b8111156113ce576040517f08c379a00000000000000000000000000000000000000000000000000000000081526004016113c590612249565b60405180910390fd5b81600560008282546113e091906121c9565b925050819055506000600a54600454600454846113fd91906121c9565b600a5461140a9190611f86565b6114149190611ff7565b61141e9190612028565b9050816004600082825461143291906121c9565b92505081905550600360009054906101000a900473ffffffffffffffffffffffffffffffffffffffff1673ffffffffffffffffffffffffffffffffffffffff166323b872dd3330856040518463ffffffff1660e01b815260040161149893929190611ebb565b6020604051808303816000875af11580156114b7573d6000803e3d6000fd5b505050506040513d601f19601f820116820180604052508101906114db9190611f2a565b5080600860003373ffffffffffffffffffffffffffffffffffffffff1673ffffffffffffffffffffffffffffffffffffffff168152602001908152602001600020600082825461152b91906121c9565b925050819055506005546004546115429190611f86565b600d8190555080600a600082825461155a91906121c9565b92505081905550611569610e9a565b6115a86040518060400160405280600881526020017f7368617265733a2000000000000000000000000000000000000000000000000081525082611876565b3373ffffffffffffffffffffffffffffffffffffffff167f06239653922ac7bea6aa2b19dc486b9361821d37712eb796adfd38d81de278ca83856040516115f09291906119cf565b60405180910390a2505050565b611605611734565b600073ffffffffffffffffffffffffffffffffffffffff168173ffffffffffffffffffffffffffffffffffffffff1603611674576040517f08c379a000000000000000000000000000000000000000000000000000000000815260040161166b906122db565b60405180910390fd5b61167d816117b2565b50565b6001805461168d9061232a565b80601f01602080910402602001604051908101604052809291908181526020018280546116b99061232a565b80156117065780601f106116db57610100808354040283529160200191611706565b820191906000526020600020905b8154815290600101906020018083116116e957829003601f168201915b505050505081565b600360009054906101000a900473ffffffffffffffffffffffffffffffffffffffff1681565b61173c61195e565b73ffffffffffffffffffffffffffffffffffffffff1661175a6109c8565b73ffffffffffffffffffffffffffffffffffffffff16146117b0576040517f08c379a00000000000000000000000000000000000000000000000000000000081526004016117a7906123a7565b60405180910390fd5b565b60008060009054906101000a900473ffffffffffffffffffffffffffffffffffffffff169050816000806101000a81548173ffffffffffffffffffffffffffffffffffffffff021916908373ffffffffffffffffffffffffffffffffffffffff1602179055508173ffffffffffffffffffffffffffffffffffffffff168173ffffffffffffffffffffffffffffffffffffffff167f8be0079c531659141344cd1fd0a4f28419497f9722a3daafe3b4186f6b6457e060405160405180910390a35050565b61190e828260405160240161188c9291906123c7565b6040516020818303038152906040527fb60e72cc000000000000000000000000000000000000000000000000000000007bffffffffffffffffffffffffffffffffffffffffffffffffffffffff19166020820180517bffffffffffffffffffffffffffffffffffffffffffffffffffffffff8381831617835250505050611966565b5050565b6000600860003373ffffffffffffffffffffffffffffffffffffffff1673ffffffffffffffffffffffffffffffffffffffff168152602001908152602001600020548211159050919050565b600033905090565b61197d816119756119806119a1565b63ffffffff16565b50565b60006a636f6e736f6c652e6c6f679050600080835160208501845afa505050565b6119ac819050919050565b6119b46123f7565b565b6000819050919050565b6119c9816119b6565b82525050565b60006040820190506119e460008301856119c0565b6119f160208301846119c0565b9392505050565b600080fd5b611a06816119b6565b8114611a1157600080fd5b50565b600081359050611a23816119fd565b92915050565b600060208284031215611a3f57611a3e6119f8565b5b6000611a4d84828501611a14565b91505092915050565b600073ffffffffffffffffffffffffffffffffffffffff82169050919050565b6000611a8182611a56565b9050919050565b611a9181611a76565b82525050565b6000602082019050611aac6000830184611a88565b92915050565b611abb81611a76565b8114611ac657600080fd5b50565b600081359050611ad881611ab2565b92915050565b600060208284031215611af457611af36119f8565b5b6000611b0284828501611ac9565b91505092915050565b600081519050919050565b600082825260208201905092915050565b60005b83811015611b45578082015181840152602081019050611b2a565b60008484015250505050565b6000601f19601f8301169050919050565b6000611b6d82611b0b565b611b778185611b16565b9350611b87818560208601611b27565b611b9081611b51565b840191505092915050565b60006020820190508181036000830152611bb58184611b62565b905092915050565b6000819050919050565b6000611be2611bdd611bd884611a56565b611bbd565b611a56565b9050919050565b6000611bf482611bc7565b9050919050565b6000611c0682611be9565b9050919050565b611c1681611bfb565b82525050565b6000602082019050611c316000830184611c0d565b92915050565b7f546f6b656e20726573657276657320776173206e6f7420300000000000000000600082015250565b6000611c6d601883611b16565b9150611c7882611c37565b602082019050919050565b60006020820190508181036000830152611c9c81611c60565b9050919050565b7f45544820726573657276657320776173206e6f7420302e000000000000000000600082015250565b6000611cd9601783611b16565b9150611ce482611ca3565b602082019050919050565b60006020820190508181036000830152611d0881611ccc565b9050919050565b7f4e6565642065746820746f2063726561746520706f6f6c2e0000000000000000600082015250565b6000611d45601883611b16565b9150611d5082611d0f565b602082019050919050565b60006020820190508181036000830152611d7481611d38565b9050919050565b600081519050611d8a816119fd565b92915050565b600060208284031215611da657611da56119f8565b5b6000611db484828501611d7b565b91505092915050565b7f4e6f74206861766520656e6f75676820746f6b656e7320746f2063726561746560008201527f2074686520706f6f6c0000000000000000000000000000000000000000000000602082015250565b6000611e19602983611b16565b9150611e2482611dbd565b604082019050919050565b60006020820190508181036000830152611e4881611e0c565b9050919050565b7f4e65656420746f6b656e7320746f2063726561746520706f6f6c2e0000000000600082015250565b6000611e85601b83611b16565b9150611e9082611e4f565b602082019050919050565b60006020820190508181036000830152611eb481611e78565b9050919050565b6000606082019050611ed06000830186611a88565b611edd6020830185611a88565b611eea60408301846119c0565b949350505050565b60008115159050919050565b611f0781611ef2565b8114611f1257600080fd5b50565b600081519050611f2481611efe565b92915050565b600060208284031215611f4057611f3f6119f8565b5b6000611f4e84828501611f15565b91505092915050565b7f4e487b7100000000000000000000000000000000000000000000000000000000600052601160045260246000fd5b6000611f91826119b6565b9150611f9c836119b6565b9250828202611faa816119b6565b91508282048414831517611fc157611fc0611f57565b5b5092915050565b7f4e487b7100000000000000000000000000000000000000000000000000000000600052601260045260246000fd5b6000612002826119b6565b915061200d836119b6565b92508261201d5761201c611fc8565b5b828204905092915050565b6000612033826119b6565b915061203e836119b6565b925082820390508181111561205657612055611f57565b5b92915050565b7f4e6f7420656e6f75676820657468207265736572766573000000000000000000600082015250565b6000612092601783611b16565b915061209d8261205c565b602082019050919050565b600060208201905081810360008301526120c181612085565b9050919050565b7f4e6f7420656e6f75676820746f6b656e20726573657276657300000000000000600082015250565b60006120fe601983611b16565b9150612109826120c8565b602082019050919050565b6000602082019050818103600083015261212d816120f1565b9050919050565b60006040820190506121496000830185611a88565b61215660208301846119c0565b9392505050565b7f4e6f7420656e6f75676820736861726573000000000000000000000000000000600082015250565b6000612193601183611b16565b915061219e8261215d565b602082019050919050565b600060208201905081810360008301526121c281612186565b9050919050565b60006121d4826119b6565b91506121df836119b6565b92508282019050808211156121f7576121f6611f57565b5b92915050565b7f4e6f7420656e6f75676820746f6b656e2062616c616e63650000000000000000600082015250565b6000612233601883611b16565b915061223e826121fd565b602082019050919050565b6000602082019050818103600083015261226281612226565b9050919050565b7f4f776e61626c653a206e6577206f776e657220697320746865207a65726f206160008201527f6464726573730000000000000000000000000000000000000000000000000000602082015250565b60006122c5602683611b16565b91506122d082612269565b604082019050919050565b600060208201905081810360008301526122f4816122b8565b9050919050565b7f4e487b7100000000000000000000000000000000000000000000000000000000600052602260045260246000fd5b6000600282049050600182168061234257607f821691505b602082108103612355576123546122fb565b5b50919050565b7f4f776e61626c653a2063616c6c6572206973206e6f7420746865206f776e6572600082015250565b6000612391602083611b16565b915061239c8261235b565b602082019050919050565b600060208201905081810360008301526123c081612384565b9050919050565b600060408201905081810360008301526123e18185611b62565b90506123f060208301846119c0565b9392505050565b7f4e487b7100000000000000000000000000000000000000000000000000000000600052605160045260246000fdfea264697066735822122081c95fa22842e6f2530090f0253710514a882e4481681256e91982e930aba6a564736f6c63430008110033",
  "linkReferences": {},
  "deployedLinkReferences": {}
}