{
  "_format": "hh-sol-artifact-1",
  "contractName": "TokenExchange",
  "sourceName": "contracts/exchange.sol",
  "abi": [
    {
      "inputs": [],
      "stateMutability": "nonpayable",
      "type": "constructor"
    },
    {
      "anonymous": false,
      "inputs": [
        {
          "indexed": true,
          "internalType": "address",
          "name": "previousOwner",
          "type": "address"
        },
        {
          "indexed": true,
          "internalType": "address",
          "name": "newOwner",
          "type": "address"
        }
      ],
      "name": "OwnershipTransferred",
      "type": "event"
    },
    {
      "inputs": [
        {
          "internalType": "uint256",
          "name": "min_exchange_rate",
          "type": "uint256"
        },
        {
          "internalType": "uint256",
          "name": "max_exchange_rate",
          "type": "uint256"
        }
      ],
      "name": "addLiquidity",
      "outputs": [],
      "stateMutability": "payable",
      "type": "function"
    },
    {
      "inputs": [
        {
          "internalType": "uint256",
          "name": "amountTokens",
          "type": "uint256"
        }
      ],
      "name": "createPool",
      "outputs": [],
      "stateMutability": "payable",
      "type": "function"
    },
    {
      "inputs": [],
      "name": "debugPrint",
      "outputs": [],
      "stateMutability": "view",
      "type": "function"
    },
    {
      "inputs": [],
      "name": "exchange_name",
      "outputs": [
        {
          "internalType": "string",
          "name": "",
          "type": "string"
        }
      ],
      "stateMutability": "view",
      "type": "function"
    },
    {
      "inputs": [],
      "name": "getReserves",
      "outputs": [
        {
          "internalType": "uint256",
          "name": "",
          "type": "uint256"
        },
        {
          "internalType": "uint256",
          "name": "",
          "type": "uint256"
        }
      ],
      "stateMutability": "view",
      "type": "function"
    },
    {
      "inputs": [],
      "name": "getSwapFee",
      "outputs": [
        {
          "internalType": "uint256",
          "name": "",
          "type": "uint256"
        },
        {
          "internalType": "uint256",
          "name": "",
          "type": "uint256"
        }
      ],
      "stateMutability": "view",
      "type": "function"
    },
    {
      "inputs": [],
      "name": "owner",
      "outputs": [
        {
          "internalType": "address",
          "name": "",
          "type": "address"
        }
      ],
      "stateMutability": "view",
      "type": "function"
    },
    {
      "inputs": [
        {
          "internalType": "address",
          "name": "_addr",
          "type": "address"
        }
      ],
      "name": "printAccount",
      "outputs": [],
      "stateMutability": "view",
      "type": "function"
    },
    {
      "inputs": [
        {
          "internalType": "uint256",
          "name": "min_exchange_rate",
          "type": "uint256"
        },
        {
          "internalType": "uint256",
          "name": "max_exchange_rate",
          "type": "uint256"
        }
      ],
      "name": "removeAllLiquidity",
      "outputs": [],
      "stateMutability": "payable",
      "type": "function"
    },
    {
      "inputs": [
        {
          "internalType": "uint256",
          "name": "amountETH",
          "type": "uint256"
        },
        {
          "internalType": "uint256",
          "name": "min_exchange_rate",
          "type": "uint256"
        },
        {
          "internalType": "uint256",
          "name": "max_exchange_rate",
          "type": "uint256"
        }
      ],
      "name": "removeLiquidity",
      "outputs": [],
      "stateMutability": "payable",
      "type": "function"
    },
    {
      "inputs": [],
      "name": "renounceOwnership",
      "outputs": [],
      "stateMutability": "nonpayable",
      "type": "function"
    },
    {
      "inputs": [
        {
          "internalType": "uint256",
          "name": "max_exchange_rate",
          "type": "uint256"
        }
      ],
      "name": "swapETHForTokens",
      "outputs": [],
      "stateMutability": "payable",
      "type": "function"
    },
    {
      "inputs": [
        {
          "internalType": "uint256",
          "name": "amountTokens",
          "type": "uint256"
        },
        {
          "internalType": "uint256",
          "name": "max_exchange_rate",
          "type": "uint256"
        }
      ],
      "name": "swapTokensForETH",
      "outputs": [],
      "stateMutability": "payable",
      "type": "function"
    },
    {
      "inputs": [],
      "name": "token",
      "outputs": [
        {
          "internalType": "contract Token",
          "name": "",
          "type": "address"
        }
      ],
      "stateMutability": "view",
      "type": "function"
    },
    {
      "inputs": [
        {
          "internalType": "address",
          "name": "newOwner",
          "type": "address"
        }
      ],
      "name": "transferOwnership",
      "outputs": [],
      "stateMutability": "nonpayable",
      "type": "function"
    }
  ],
  "bytecode": "0x6080604052604051806020016040528060008152506001908162000024919062000481565b50735fbdb2315678afecb367f032d93f642f64180aa3600260006101000a81548173ffffffffffffffffffffffffffffffffffffffff021916908373ffffffffffffffffffffffffffffffffffffffff160217905550600260009054906101000a900473ffffffffffffffffffffffffffffffffffffffff16600360006101000a81548173ffffffffffffffffffffffffffffffffffffffff021916908373ffffffffffffffffffffffffffffffffffffffff16021790555060006004556000600555600060065560006007556000600c556003600d556064600e55620186a06010553480156200011457600080fd5b5062000135620001296200013b60201b60201c565b6200014360201b60201c565b62000568565b600033905090565b60008060009054906101000a900473ffffffffffffffffffffffffffffffffffffffff169050816000806101000a81548173ffffffffffffffffffffffffffffffffffffffff021916908373ffffffffffffffffffffffffffffffffffffffff1602179055508173ffffffffffffffffffffffffffffffffffffffff168173ffffffffffffffffffffffffffffffffffffffff167f8be0079c531659141344cd1fd0a4f28419497f9722a3daafe3b4186f6b6457e060405160405180910390a35050565b600081519050919050565b7f4e487b7100000000000000000000000000000000000000000000000000000000600052604160045260246000fd5b7f4e487b7100000000000000000000000000000000000000000000000000000000600052602260045260246000fd5b600060028204905060018216806200028957607f821691505b6020821081036200029f576200029e62000241565b5b50919050565b60008190508160005260206000209050919050565b60006020601f8301049050919050565b600082821b905092915050565b600060088302620003097fffffffffffffffffffffffffffffffffffffffffffffffffffffffffffffffff82620002ca565b620003158683620002ca565b95508019841693508086168417925050509392505050565b6000819050919050565b6000819050919050565b6000620003626200035c62000356846200032d565b62000337565b6200032d565b9050919050565b6000819050919050565b6200037e8362000341565b620003966200038d8262000369565b848454620002d7565b825550505050565b600090565b620003ad6200039e565b620003ba81848462000373565b505050565b5b81811015620003e257620003d6600082620003a3565b600181019050620003c0565b5050565b601f8211156200043157620003fb81620002a5565b6200040684620002ba565b8101602085101562000416578190505b6200042e6200042585620002ba565b830182620003bf565b50505b505050565b600082821c905092915050565b6000620004566000198460080262000436565b1980831691505092915050565b600062000471838362000443565b9150826002028217905092915050565b6200048c8262000207565b67ffffffffffffffff811115620004a857620004a762000212565b5b620004b4825462000270565b620004c1828285620003e6565b600060209050601f831160018114620004f95760008415620004e4578287015190505b620004f0858262000463565b86555062000560565b601f1984166200050986620002a5565b60005b8281101562000533578489015182556001820191506020850194506020810190506200050c565b868310156200055357848901516200054f601f89168262000443565b8355505b6001600288020188555050505b505050505050565b61380780620005786000396000f3fe6080604052600436106100e85760003560e01c80638da5cb5b1161008a578063d4cadf6811610059578063d4cadf6814610243578063f2fde38b1461026f578063f694f7d114610298578063fc0c546a146102c3576100e8565b80638da5cb5b146101c95780639cd441da146101f4578063a22280a614610210578063b651978d1461022c576100e8565b806358ad6de4116100c657806358ad6de41461015e578063715018a61461017a5780638259e6a014610191578063857620e1146101ad576100e8565b80630902f1ac146100ed5780631ceaeedd146101195780632eab284114610142575b600080fd5b3480156100f957600080fd5b506101026102ee565b604051610110929190612b98565b60405180910390f35b34801561012557600080fd5b50610140600480360381019061013b9190612c24565b6102ff565b005b61015c60048036038101906101579190612c7d565b6104b0565b005b61017860048036038101906101739190612caa565b610a2c565b005b34801561018657600080fd5b5061018f611141565b005b6101ab60048036038101906101a69190612c7d565b611155565b005b6101c760048036038101906101c29190612cea565b611505565b005b3480156101d557600080fd5b506101de611c87565b6040516101eb9190612d4c565b60405180910390f35b61020e60048036038101906102099190612caa565b611cb0565b005b61022a60048036038101906102259190612caa565b612125565b005b34801561023857600080fd5b50610241612679565b005b34801561024f57600080fd5b50610258612801565b604051610266929190612b98565b60405180910390f35b34801561027b57600080fd5b5061029660048036038101906102919190612c24565b612812565b005b3480156102a457600080fd5b506102ad612895565b6040516102ba9190612df7565b60405180910390f35b3480156102cf57600080fd5b506102d8612923565b6040516102e59190612e78565b60405180910390f35b600080600554600454915091509091565b6103556040518060400160405280600581526020017f6574683a200000000000000000000000000000000000000000000000000000008152508273ffffffffffffffffffffffffffffffffffffffff1631612949565b61042f6040518060400160405280600781526020017f746f6b656e3a2000000000000000000000000000000000000000000000000000815250600360009054906101000a900473ffffffffffffffffffffffffffffffffffffffff1673ffffffffffffffffffffffffffffffffffffffff166370a08231846040518263ffffffff1660e01b81526004016103e99190612d4c565b602060405180830381865afa158015610406573d6000803e3d6000fd5b505050506040513d601f19601f8201168201806040525081019061042a9190612ea8565b612949565b6104ad6040518060400160405280600881526020017f7368617265733a20000000000000000000000000000000000000000000000000815250600860008473ffffffffffffffffffffffffffffffffffffffff1673ffffffffffffffffffffffffffffffffffffffff16815260200190815260200160002054612949565b50565b6000600454670de0b6b3a76400006104c89190612f04565b6010546005546104d89190612f04565b6104e29190612f75565b90506105236040518060400160405280600481526020017f65723a200000000000000000000000000000000000000000000000000000000081525082612949565b6105626040518060400160405280601381526020017f6d61785f65786368616e67655f726174653a200000000000000000000000000081525083612949565b818111156105a5576040517f08c379a000000000000000000000000000000000000000000000000000000000815260040161059c90612ff2565b60405180910390fd5b6000346005546105b59190613012565b9050600081600f546105c79190612f75565b90506000816004546105d99190613046565b90506000821161061e576040517f08c379a0000000000000000000000000000000000000000000000000000000008152600401610615906130c6565b60405180910390fd5b6000600e54600d54836106319190612f04565b61063b9190612f75565b9050806006600082825461064f9190613012565b925050819055506000600e54600d54346106699190612f04565b6106739190612f75565b905080600760008282546106879190613012565b9250508190555060005b600b80549050811015610941576000600c5460086000600b85815481106106bb576106ba6130e6565b5b9060005260206000200160009054906101000a900473ffffffffffffffffffffffffffffffffffffffff1673ffffffffffffffffffffffffffffffffffffffff1673ffffffffffffffffffffffffffffffffffffffff168152602001908152602001600020548561072c9190612f04565b6107369190612f75565b90506000600c5460086000600b8681548110610755576107546130e6565b5b9060005260206000200160009054906101000a900473ffffffffffffffffffffffffffffffffffffffff1673ffffffffffffffffffffffffffffffffffffffff1673ffffffffffffffffffffffffffffffffffffffff16815260200190815260200160002054856107c69190612f04565b6107d09190612f75565b905081600660008282546107e49190613012565b9250508190555080600760008282546107fd9190613012565b925050819055508160096000600b868154811061081d5761081c6130e6565b5b9060005260206000200160009054906101000a900473ffffffffffffffffffffffffffffffffffffffff1673ffffffffffffffffffffffffffffffffffffffff1673ffffffffffffffffffffffffffffffffffffffff16815260200190815260200160002060008282546108919190613012565b9250508190555080600a6000600b86815481106108b1576108b06130e6565b5b9060005260206000200160009054906101000a900473ffffffffffffffffffffffffffffffffffffffff1673ffffffffffffffffffffffffffffffffffffffff1673ffffffffffffffffffffffffffffffffffffffff16815260200190815260200160002060008282546109259190613012565b925050819055505050808061093990613115565b915050610691565b50600360009054906101000a900473ffffffffffffffffffffffffffffffffffffffff1673ffffffffffffffffffffffffffffffffffffffff1663a9059cbb33848661098d9190613046565b6040518363ffffffff1660e01b81526004016109aa92919061315d565b6020604051808303816000875af11580156109c9573d6000803e3d6000fd5b505050506040513d601f19601f820116820180604052508101906109ed91906131be565b508360048190555084600581905550600554600454610a0c9190612f04565b600f81905550610a1a612679565b610a23336102ff565b50505050505050565b610a35336102ff565b6000600554601054600454670de0b6b3a7640000610a539190612f04565b610a5d9190612f04565b610a679190612f75565b905081811115610aac576040517f08c379a0000000000000000000000000000000000000000000000000000000008152600401610aa390612ff2565b60405180910390fd5b82811015610aef576040517f08c379a0000000000000000000000000000000000000000000000000000000008152600401610ae690613237565b60405180910390fd5b6000600c54600860003373ffffffffffffffffffffffffffffffffffffffff1673ffffffffffffffffffffffffffffffffffffffff16815260200190815260200160002054600454610b419190612f04565b610b4b9190612f75565b90506000600c54600860003373ffffffffffffffffffffffffffffffffffffffff1673ffffffffffffffffffffffffffffffffffffffff16815260200190815260200160002054600554610b9f9190612f04565b610ba99190612f75565b9050610bb3612679565b610bf26040518060400160405280600e81526020017f616d6f756e74546f6b656e733a2000000000000000000000000000000000000081525083612949565b600082600454610c029190613046565b11610c42576040517f08c379a0000000000000000000000000000000000000000000000000000000008152600401610c39906132a3565b60405180910390fd5b600081600554610c529190613046565b11610c92576040517f08c379a0000000000000000000000000000000000000000000000000000000008152600401610c89906130c6565b60405180910390fd5b600360009054906101000a900473ffffffffffffffffffffffffffffffffffffffff1673ffffffffffffffffffffffffffffffffffffffff1663a9059cbb33600960003373ffffffffffffffffffffffffffffffffffffffff1673ffffffffffffffffffffffffffffffffffffffff1681526020019081526020016000205485610d1c9190613012565b6040518363ffffffff1660e01b8152600401610d3992919061315d565b6020604051808303816000875af1158015610d58573d6000803e3d6000fd5b505050506040513d601f19601f82011682018060405250810190610d7c91906131be565b503373ffffffffffffffffffffffffffffffffffffffff166108fc600a60003373ffffffffffffffffffffffffffffffffffffffff1673ffffffffffffffffffffffffffffffffffffffff1681526020019081526020016000205483610de29190613012565b9081150290604051600060405180830381858888f19350505050158015610e0d573d6000803e3d6000fd5b508160046000828254610e209190613046565b925050819055508060056000828254610e399190613046565b92505081905550600960003373ffffffffffffffffffffffffffffffffffffffff1673ffffffffffffffffffffffffffffffffffffffff1681526020019081526020016000205460066000828254610e919190613046565b92505081905550600a60003373ffffffffffffffffffffffffffffffffffffffff1673ffffffffffffffffffffffffffffffffffffffff1681526020019081526020016000205460076000828254610ee99190613046565b925050819055506000600960003373ffffffffffffffffffffffffffffffffffffffff1673ffffffffffffffffffffffffffffffffffffffff168152602001908152602001600020819055506000600a60003373ffffffffffffffffffffffffffffffffffffffff1673ffffffffffffffffffffffffffffffffffffffff16815260200190815260200160002081905550600860003373ffffffffffffffffffffffffffffffffffffffff1673ffffffffffffffffffffffffffffffffffffffff16815260200190815260200160002054600c6000828254610fcb9190613046565b925050819055506000600860003373ffffffffffffffffffffffffffffffffffffffff1673ffffffffffffffffffffffffffffffffffffffff168152602001908152602001600020819055506005546004546110279190612f04565b600f819055506110ab6040518060400160405280600a81526020017f746f6b656e4665653a2000000000000000000000000000000000000000000000815250600960003373ffffffffffffffffffffffffffffffffffffffff1673ffffffffffffffffffffffffffffffffffffffff16815260200190815260200160002054612949565b6111296040518060400160405280600881526020017f6574684665653a20000000000000000000000000000000000000000000000000815250600a60003373ffffffffffffffffffffffffffffffffffffffff1673ffffffffffffffffffffffffffffffffffffffff16815260200190815260200160002054612949565b611131612679565b61113a336102ff565b5050505050565b6111496129e5565b6111536000612a63565b565b61115d6129e5565b6000600454146111a2576040517f08c379a00000000000000000000000000000000000000000000000000000000081526004016111999061330f565b60405180910390fd5b6000600554146111e7576040517f08c379a00000000000000000000000000000000000000000000000000000000081526004016111de9061337b565b60405180910390fd5b6000341161122a576040517f08c379a0000000000000000000000000000000000000000000000000000000008152600401611221906133e7565b60405180910390fd5b6000600360009054906101000a900473ffffffffffffffffffffffffffffffffffffffff1673ffffffffffffffffffffffffffffffffffffffff166370a08231336040518263ffffffff1660e01b81526004016112879190612d4c565b602060405180830381865afa1580156112a4573d6000803e3d6000fd5b505050506040513d601f19601f820116820180604052508101906112c89190612ea8565b90508082111561130d576040517f08c379a000000000000000000000000000000000000000000000000000000000815260040161130490613479565b60405180910390fd5b60008211611350576040517f08c379a0000000000000000000000000000000000000000000000000000000008152600401611347906134e5565b60405180910390fd5b600360009054906101000a900473ffffffffffffffffffffffffffffffffffffffff1673ffffffffffffffffffffffffffffffffffffffff166323b872dd3330856040518463ffffffff1660e01b81526004016113af93929190613505565b6020604051808303816000875af11580156113ce573d6000803e3d6000fd5b505050506040513d601f19601f820116820180604052508101906113f291906131be565b50600360009054906101000a900473ffffffffffffffffffffffffffffffffffffffff1673ffffffffffffffffffffffffffffffffffffffff166370a08231306040518263ffffffff1660e01b815260040161144e9190612d4c565b602060405180830381865afa15801561146b573d6000803e3d6000fd5b505050506040513d601f19601f8201168201806040525081019061148f9190612ea8565b600481905550346005819055506005546004546114ac9190612f04565b600f81905550620186a0600c819055506064600860003373ffffffffffffffffffffffffffffffffffffffff1673ffffffffffffffffffffffffffffffffffffffff168152602001908152602001600020819055505050565b670de0b6b3a7640000836115199190612f04565b60006005546004548361152c9190612f04565b6115369190612f75565b90506000816004546115489190613046565b905060008360055461155a9190613046565b90506000811161159f576040517f08c379a0000000000000000000000000000000000000000000000000000000008152600401611596906132a3565b60405180910390fd5b600082116115e2576040517f08c379a00000000000000000000000000000000000000000000000000000000081526004016115d9906130c6565b60405180910390fd5b6115eb336102ff565b6000600554601054600454670de0b6b3a76400006116099190612f04565b6116139190612f04565b61161d9190612f75565b905085811115611662576040517f08c379a000000000000000000000000000000000000000000000000000000000815260040161165990612ff2565b60405180910390fd5b868110156116a5576040517f08c379a000000000000000000000000000000000000000000000000000000000815260040161169c90613237565b60405180910390fd5b670de0b6b3a7640000886116b99190612f04565b975060006005546004548a6116ce9190612f04565b6116d89190612f75565b90506000600454600c54836116ed9190612f04565b6116f79190612f75565b90506117386040518060400160405280600e81526020017f616d6f756e74546f6b656e733a2000000000000000000000000000000000000081525083612949565b611740612679565b61177f6040518060400160405280601281526020017f736861726573546f57697468647261773a20000000000000000000000000000081525082612949565b600860003373ffffffffffffffffffffffffffffffffffffffff1673ffffffffffffffffffffffffffffffffffffffff16815260200190815260200160002054811115611801576040517f08c379a00000000000000000000000000000000000000000000000000000000081526004016117f890613588565b60405180910390fd5b81600460008282546118139190613046565b92505081905550896005600082825461182c9190613046565b92505081905550600360009054906101000a900473ffffffffffffffffffffffffffffffffffffffff1673ffffffffffffffffffffffffffffffffffffffff1663a9059cbb33600960003373ffffffffffffffffffffffffffffffffffffffff1673ffffffffffffffffffffffffffffffffffffffff16815260200190815260200160002054856118bd9190613012565b6040518363ffffffff1660e01b81526004016118da92919061315d565b6020604051808303816000875af11580156118f9573d6000803e3d6000fd5b505050506040513d601f19601f8201168201806040525081019061191d91906131be565b503373ffffffffffffffffffffffffffffffffffffffff166108fc600a60003373ffffffffffffffffffffffffffffffffffffffff1673ffffffffffffffffffffffffffffffffffffffff168152602001908152602001600020548c6119839190613012565b9081150290604051600060405180830381858888f193505050501580156119ae573d6000803e3d6000fd5b50600960003373ffffffffffffffffffffffffffffffffffffffff1673ffffffffffffffffffffffffffffffffffffffff1681526020019081526020016000205460066000828254611a009190613046565b92505081905550600a60003373ffffffffffffffffffffffffffffffffffffffff1673ffffffffffffffffffffffffffffffffffffffff1681526020019081526020016000205460076000828254611a589190613046565b925050819055506000600960003373ffffffffffffffffffffffffffffffffffffffff1673ffffffffffffffffffffffffffffffffffffffff168152602001908152602001600020819055506000600a60003373ffffffffffffffffffffffffffffffffffffffff1673ffffffffffffffffffffffffffffffffffffffff1681526020019081526020016000208190555080600860003373ffffffffffffffffffffffffffffffffffffffff1673ffffffffffffffffffffffffffffffffffffffff1681526020019081526020016000206000828254611b389190613046565b9250508190555080600c6000828254611b519190613046565b92505081905550600554600454611b689190612f04565b600f81905550611bec6040518060400160405280600a81526020017f746f6b656e4665653a2000000000000000000000000000000000000000000000815250600960003373ffffffffffffffffffffffffffffffffffffffff1673ffffffffffffffffffffffffffffffffffffffff16815260200190815260200160002054612949565b611c6a6040518060400160405280600881526020017f6574684665653a20000000000000000000000000000000000000000000000000815250600a60003373ffffffffffffffffffffffffffffffffffffffff1673ffffffffffffffffffffffffffffffffffffffff16815260200190815260200160002054612949565b611c72612679565b611c7b336102ff565b50505050505050505050565b60008060009054906101000a900473ffffffffffffffffffffffffffffffffffffffff16905090565b6000600554601054600454670de0b6b3a7640000611cce9190612f04565b611cd89190612f04565b611ce29190612f75565b905081811115611d27576040517f08c379a0000000000000000000000000000000000000000000000000000000008152600401611d1e90612ff2565b60405180910390fd5b82811015611d6a576040517f08c379a0000000000000000000000000000000000000000000000000000000008152600401611d6190613237565b60405180910390fd5b6000349050600060055460045483611d829190612f04565b611d8c9190612f75565b9050611d97336102ff565b600360009054906101000a900473ffffffffffffffffffffffffffffffffffffffff1673ffffffffffffffffffffffffffffffffffffffff166370a08231336040518263ffffffff1660e01b8152600401611df29190612d4c565b602060405180830381865afa158015611e0f573d6000803e3d6000fd5b505050506040513d601f19601f82011682018060405250810190611e339190612ea8565b811115611e75576040517f08c379a0000000000000000000000000000000000000000000000000000000008152600401611e6c906135f4565b60405180910390fd5b8160056000828254611e879190613012565b925050819055506000600c5460045460045484611ea49190613012565b600c54611eb19190612f04565b611ebb9190612f75565b611ec59190613046565b90508160046000828254611ed99190613012565b92505081905550600360009054906101000a900473ffffffffffffffffffffffffffffffffffffffff1673ffffffffffffffffffffffffffffffffffffffff1663095ea7b330846040518363ffffffff1660e01b8152600401611f3d92919061315d565b6020604051808303816000875af1158015611f5c573d6000803e3d6000fd5b505050506040513d601f19601f82011682018060405250810190611f8091906131be565b50600360009054906101000a900473ffffffffffffffffffffffffffffffffffffffff1673ffffffffffffffffffffffffffffffffffffffff166323b872dd3330856040518463ffffffff1660e01b8152600401611fe093929190613505565b6020604051808303816000875af1158015611fff573d6000803e3d6000fd5b505050506040513d601f19601f8201168201806040525081019061202391906131be565b5080600860003373ffffffffffffffffffffffffffffffffffffffff1673ffffffffffffffffffffffffffffffffffffffff16815260200190815260200160002060008282546120739190613012565b9250508190555060055460045461208a9190612f04565b600f8190555080600c60008282546120a29190613012565b925050819055506120b1612679565b6120ba336102ff565b600b339080600181540180825580915050600190039060005260206000200160009091909190916101000a81548173ffffffffffffffffffffffffffffffffffffffff021916908373ffffffffffffffffffffffffffffffffffffffff160217905550505050505050565b6000600554601054600454670de0b6b3a76400006121439190612f04565b61214d9190612f04565b6121579190612f75565b90508181111561219c576040517f08c379a000000000000000000000000000000000000000000000000000000000815260040161219390612ff2565b60405180910390fd5b6000836004546121ac9190613012565b600f546121b99190612f75565b90506000816005546121cb9190613046565b905060008211612210576040517f08c379a0000000000000000000000000000000000000000000000000000000008152600401612207906132a3565b60405180910390fd5b6000600e54600d54876122239190612f04565b61222d9190612f75565b905080600660008282546122419190613012565b925050819055506000600e54600d548461225b9190612f04565b6122659190612f75565b905080600760008282546122799190613012565b9250508190555060005b600b80549050811015612533576000600c5460086000600b85815481106122ad576122ac6130e6565b5b9060005260206000200160009054906101000a900473ffffffffffffffffffffffffffffffffffffffff1673ffffffffffffffffffffffffffffffffffffffff1673ffffffffffffffffffffffffffffffffffffffff168152602001908152602001600020548561231e9190612f04565b6123289190612f75565b90506000600c5460086000600b8681548110612347576123466130e6565b5b9060005260206000200160009054906101000a900473ffffffffffffffffffffffffffffffffffffffff1673ffffffffffffffffffffffffffffffffffffffff1673ffffffffffffffffffffffffffffffffffffffff16815260200190815260200160002054856123b89190612f04565b6123c29190612f75565b905081600660008282546123d69190613012565b9250508190555080600760008282546123ef9190613012565b925050819055508160096000600b868154811061240f5761240e6130e6565b5b9060005260206000200160009054906101000a900473ffffffffffffffffffffffffffffffffffffffff1673ffffffffffffffffffffffffffffffffffffffff1673ffffffffffffffffffffffffffffffffffffffff16815260200190815260200160002060008282546124839190613012565b9250508190555080600a6000600b86815481106124a3576124a26130e6565b5b9060005260206000200160009054906101000a900473ffffffffffffffffffffffffffffffffffffffff1673ffffffffffffffffffffffffffffffffffffffff1673ffffffffffffffffffffffffffffffffffffffff16815260200190815260200160002060008282546125179190613012565b925050819055505050808061252b90613115565b915050612283565b50600360009054906101000a900473ffffffffffffffffffffffffffffffffffffffff1673ffffffffffffffffffffffffffffffffffffffff166323b872dd33308a6040518463ffffffff1660e01b815260040161259393929190613505565b6020604051808303816000875af11580156125b2573d6000803e3d6000fd5b505050506040513d601f19601f820116820180604052508101906125d691906131be565b503373ffffffffffffffffffffffffffffffffffffffff166108fc82856125fd9190613046565b9081150290604051600060405180830381858888f19350505050158015612628573d6000803e3d6000fd5b50866004600082825461263b9190613012565b92505081905550836005819055506005546004546126599190612f04565b600f81905550612667612679565b612670336102ff565b50505050505050565b6126ba6040518060400160405280600e81526020017f6574685f72657365727665733a20000000000000000000000000000000000000815250600554612949565b6126fb6040518060400160405280601081526020017f746f6b656e5f72657365727665733a2000000000000000000000000000000000815250600454612949565b61273c6040518060400160405280600381526020017f6b3a200000000000000000000000000000000000000000000000000000000000815250600f54612949565b61277d6040518060400160405280600e81526020017f746f74616c5f7368617265733a20000000000000000000000000000000000000815250600c54612949565b6127be6040518060400160405280601481526020017f746f6b656e5f6665655f72657365727665733a20000000000000000000000000815250600654612949565b6127ff6040518060400160405280601281526020017f6574685f6665655f72657365727665733a200000000000000000000000000000815250600754612949565b565b600080600d54600e54915091509091565b61281a6129e5565b600073ffffffffffffffffffffffffffffffffffffffff168173ffffffffffffffffffffffffffffffffffffffff1603612889576040517f08c379a000000000000000000000000000000000000000000000000000000000815260040161288090613686565b60405180910390fd5b61289281612a63565b50565b600180546128a2906136d5565b80601f01602080910402602001604051908101604052809291908181526020018280546128ce906136d5565b801561291b5780601f106128f05761010080835404028352916020019161291b565b820191906000526020600020905b8154815290600101906020018083116128fe57829003601f168201915b505050505081565b600360009054906101000a900473ffffffffffffffffffffffffffffffffffffffff1681565b6129e1828260405160240161295f929190613706565b6040516020818303038152906040527fb60e72cc000000000000000000000000000000000000000000000000000000007bffffffffffffffffffffffffffffffffffffffffffffffffffffffff19166020820180517bffffffffffffffffffffffffffffffffffffffffffffffffffffffff8381831617835250505050612b27565b5050565b6129ed612b41565b73ffffffffffffffffffffffffffffffffffffffff16612a0b611c87565b73ffffffffffffffffffffffffffffffffffffffff1614612a61576040517f08c379a0000000000000000000000000000000000000000000000000000000008152600401612a5890613782565b60405180910390fd5b565b60008060009054906101000a900473ffffffffffffffffffffffffffffffffffffffff169050816000806101000a81548173ffffffffffffffffffffffffffffffffffffffff021916908373ffffffffffffffffffffffffffffffffffffffff1602179055508173ffffffffffffffffffffffffffffffffffffffff168173ffffffffffffffffffffffffffffffffffffffff167f8be0079c531659141344cd1fd0a4f28419497f9722a3daafe3b4186f6b6457e060405160405180910390a35050565b612b3e81612b36612b49612b6a565b63ffffffff16565b50565b600033905090565b60006a636f6e736f6c652e6c6f679050600080835160208501845afa505050565b612b75819050919050565b612b7d6137a2565b565b6000819050919050565b612b9281612b7f565b82525050565b6000604082019050612bad6000830185612b89565b612bba6020830184612b89565b9392505050565b600080fd5b600073ffffffffffffffffffffffffffffffffffffffff82169050919050565b6000612bf182612bc6565b9050919050565b612c0181612be6565b8114612c0c57600080fd5b50565b600081359050612c1e81612bf8565b92915050565b600060208284031215612c3a57612c39612bc1565b5b6000612c4884828501612c0f565b91505092915050565b612c5a81612b7f565b8114612c6557600080fd5b50565b600081359050612c7781612c51565b92915050565b600060208284031215612c9357612c92612bc1565b5b6000612ca184828501612c68565b91505092915050565b60008060408385031215612cc157612cc0612bc1565b5b6000612ccf85828601612c68565b9250506020612ce085828601612c68565b9150509250929050565b600080600060608486031215612d0357612d02612bc1565b5b6000612d1186828701612c68565b9350506020612d2286828701612c68565b9250506040612d3386828701612c68565b9150509250925092565b612d4681612be6565b82525050565b6000602082019050612d616000830184612d3d565b92915050565b600081519050919050565b600082825260208201905092915050565b60005b83811015612da1578082015181840152602081019050612d86565b60008484015250505050565b6000601f19601f8301169050919050565b6000612dc982612d67565b612dd38185612d72565b9350612de3818560208601612d83565b612dec81612dad565b840191505092915050565b60006020820190508181036000830152612e118184612dbe565b905092915050565b6000819050919050565b6000612e3e612e39612e3484612bc6565b612e19565b612bc6565b9050919050565b6000612e5082612e23565b9050919050565b6000612e6282612e45565b9050919050565b612e7281612e57565b82525050565b6000602082019050612e8d6000830184612e69565b92915050565b600081519050612ea281612c51565b92915050565b600060208284031215612ebe57612ebd612bc1565b5b6000612ecc84828501612e93565b91505092915050565b7f4e487b7100000000000000000000000000000000000000000000000000000000600052601160045260246000fd5b6000612f0f82612b7f565b9150612f1a83612b7f565b9250828202612f2881612b7f565b91508282048414831517612f3f57612f3e612ed5565b5b5092915050565b7f4e487b7100000000000000000000000000000000000000000000000000000000600052601260045260246000fd5b6000612f8082612b7f565b9150612f8b83612b7f565b925082612f9b57612f9a612f46565b5b828204905092915050565b7f45786368616e6765207261746520697320746f6f206869676800000000000000600082015250565b6000612fdc601983612d72565b9150612fe782612fa6565b602082019050919050565b6000602082019050818103600083015261300b81612fcf565b9050919050565b600061301d82612b7f565b915061302883612b7f565b92508282019050808211156130405761303f612ed5565b5b92915050565b600061305182612b7f565b915061305c83612b7f565b925082820390508181111561307457613073612ed5565b5b92915050565b7f4e6f7420656e6f75676820746f6b656e20726573657276657300000000000000600082015250565b60006130b0601983612d72565b91506130bb8261307a565b602082019050919050565b600060208201905081810360008301526130df816130a3565b9050919050565b7f4e487b7100000000000000000000000000000000000000000000000000000000600052603260045260246000fd5b600061312082612b7f565b91507fffffffffffffffffffffffffffffffffffffffffffffffffffffffffffffffff820361315257613151612ed5565b5b600182019050919050565b60006040820190506131726000830185612d3d565b61317f6020830184612b89565b9392505050565b60008115159050919050565b61319b81613186565b81146131a657600080fd5b50565b6000815190506131b881613192565b92915050565b6000602082840312156131d4576131d3612bc1565b5b60006131e2848285016131a9565b91505092915050565b7f45786368616e6765207261746520697320746f6f206c6f770000000000000000600082015250565b6000613221601883612d72565b915061322c826131eb565b602082019050919050565b6000602082019050818103600083015261325081613214565b9050919050565b7f4e6f7420656e6f75676820657468207265736572766573000000000000000000600082015250565b600061328d601783612d72565b915061329882613257565b602082019050919050565b600060208201905081810360008301526132bc81613280565b9050919050565b7f546f6b656e20726573657276657320776173206e6f7420300000000000000000600082015250565b60006132f9601883612d72565b9150613304826132c3565b602082019050919050565b60006020820190508181036000830152613328816132ec565b9050919050565b7f45544820726573657276657320776173206e6f7420302e000000000000000000600082015250565b6000613365601783612d72565b91506133708261332f565b602082019050919050565b6000602082019050818103600083015261339481613358565b9050919050565b7f4e6565642065746820746f2063726561746520706f6f6c2e0000000000000000600082015250565b60006133d1601883612d72565b91506133dc8261339b565b602082019050919050565b60006020820190508181036000830152613400816133c4565b9050919050565b7f4e6f74206861766520656e6f75676820746f6b656e7320746f2063726561746560008201527f2074686520706f6f6c0000000000000000000000000000000000000000000000602082015250565b6000613463602983612d72565b915061346e82613407565b604082019050919050565b6000602082019050818103600083015261349281613456565b9050919050565b7f4e65656420746f6b656e7320746f2063726561746520706f6f6c2e0000000000600082015250565b60006134cf601b83612d72565b91506134da82613499565b602082019050919050565b600060208201905081810360008301526134fe816134c2565b9050919050565b600060608201905061351a6000830186612d3d565b6135276020830185612d3d565b6135346040830184612b89565b949350505050565b7f4e6f7420656e6f75676820736861726573000000000000000000000000000000600082015250565b6000613572601183612d72565b915061357d8261353c565b602082019050919050565b600060208201905081810360008301526135a181613565565b9050919050565b7f4e6f7420656e6f75676820746f6b656e2062616c616e63650000000000000000600082015250565b60006135de601883612d72565b91506135e9826135a8565b602082019050919050565b6000602082019050818103600083015261360d816135d1565b9050919050565b7f4f776e61626c653a206e6577206f776e657220697320746865207a65726f206160008201527f6464726573730000000000000000000000000000000000000000000000000000602082015250565b6000613670602683612d72565b915061367b82613614565b604082019050919050565b6000602082019050818103600083015261369f81613663565b9050919050565b7f4e487b7100000000000000000000000000000000000000000000000000000000600052602260045260246000fd5b600060028204905060018216806136ed57607f821691505b602082108103613700576136ff6136a6565b5b50919050565b600060408201905081810360008301526137208185612dbe565b905061372f6020830184612b89565b9392505050565b7f4f776e61626c653a2063616c6c6572206973206e6f7420746865206f776e6572600082015250565b600061376c602083612d72565b915061377782613736565b602082019050919050565b6000602082019050818103600083015261379b8161375f565b9050919050565b7f4e487b7100000000000000000000000000000000000000000000000000000000600052605160045260246000fdfea2646970667358221220c12ce692cbd4ca15f2d8723d6a9175b67e0f8e884d9e043d2d5cd6d71fd6c97464736f6c63430008110033",
  "linkReferences": {},
  "deployedLinkReferences": {}
}