{
  "_format": "hh-sol-artifact-1",
  "contractName": "TokenExchange",
  "sourceName": "contracts/exchange.sol",
  "abi": [
    {
      "inputs": [],
      "stateMutability": "nonpayable",
      "type": "constructor"
    },
    {
      "anonymous": false,
      "inputs": [
        {
          "indexed": true,
          "internalType": "address",
          "name": "provider",
          "type": "address"
        },
        {
          "indexed": false,
          "internalType": "uint256",
          "name": "amountTokens",
          "type": "uint256"
        },
        {
          "indexed": false,
          "internalType": "uint256",
          "name": "amountETH",
          "type": "uint256"
        }
      ],
      "name": "AddLiquidity",
      "type": "event"
    },
    {
      "anonymous": false,
      "inputs": [
        {
          "indexed": true,
          "internalType": "address",
          "name": "previousOwner",
          "type": "address"
        },
        {
          "indexed": true,
          "internalType": "address",
          "name": "newOwner",
          "type": "address"
        }
      ],
      "name": "OwnershipTransferred",
      "type": "event"
    },
    {
      "inputs": [],
      "name": "addLiquidity",
      "outputs": [],
      "stateMutability": "payable",
      "type": "function"
    },
    {
      "inputs": [
        {
          "internalType": "uint256",
          "name": "amountTokens",
          "type": "uint256"
        }
      ],
      "name": "createPool",
      "outputs": [],
      "stateMutability": "payable",
      "type": "function"
    },
    {
      "inputs": [],
      "name": "debugPrint",
      "outputs": [],
      "stateMutability": "view",
      "type": "function"
    },
    {
      "inputs": [],
      "name": "exchange_name",
      "outputs": [
        {
          "internalType": "string",
          "name": "",
          "type": "string"
        }
      ],
      "stateMutability": "view",
      "type": "function"
    },
    {
      "inputs": [],
      "name": "getReserves",
      "outputs": [
        {
          "internalType": "uint256",
          "name": "",
          "type": "uint256"
        },
        {
          "internalType": "uint256",
          "name": "",
          "type": "uint256"
        }
      ],
      "stateMutability": "view",
      "type": "function"
    },
    {
      "inputs": [],
      "name": "getSwapFee",
      "outputs": [
        {
          "internalType": "uint256",
          "name": "",
          "type": "uint256"
        },
        {
          "internalType": "uint256",
          "name": "",
          "type": "uint256"
        }
      ],
      "stateMutability": "view",
      "type": "function"
    },
    {
      "inputs": [],
      "name": "owner",
      "outputs": [
        {
          "internalType": "address",
          "name": "",
          "type": "address"
        }
      ],
      "stateMutability": "view",
      "type": "function"
    },
    {
      "inputs": [
        {
          "internalType": "address",
          "name": "_addr",
          "type": "address"
        }
      ],
      "name": "printAccount",
      "outputs": [],
      "stateMutability": "view",
      "type": "function"
    },
    {
      "inputs": [],
      "name": "removeAllLiquidity",
      "outputs": [],
      "stateMutability": "payable",
      "type": "function"
    },
    {
      "inputs": [
        {
          "internalType": "uint256",
          "name": "amountETH",
          "type": "uint256"
        }
      ],
      "name": "removeLiquidity",
      "outputs": [],
      "stateMutability": "payable",
      "type": "function"
    },
    {
      "inputs": [],
      "name": "renounceOwnership",
      "outputs": [],
      "stateMutability": "nonpayable",
      "type": "function"
    },
    {
      "inputs": [],
      "name": "swapETHForTokens",
      "outputs": [],
      "stateMutability": "payable",
      "type": "function"
    },
    {
      "inputs": [
        {
          "internalType": "uint256",
          "name": "amountTokens",
          "type": "uint256"
        }
      ],
      "name": "swapTokensForETH",
      "outputs": [],
      "stateMutability": "payable",
      "type": "function"
    },
    {
      "inputs": [],
      "name": "token",
      "outputs": [
        {
          "internalType": "contract Token",
          "name": "",
          "type": "address"
        }
      ],
      "stateMutability": "view",
      "type": "function"
    },
    {
      "inputs": [
        {
          "internalType": "address",
          "name": "newOwner",
          "type": "address"
        }
      ],
      "name": "transferOwnership",
      "outputs": [],
      "stateMutability": "nonpayable",
      "type": "function"
    }
  ],
  "bytecode": "0x6080604052604051806020016040528060008152506001908162000024919062000481565b50735fbdb2315678afecb367f032d93f642f64180aa3600260006101000a81548173ffffffffffffffffffffffffffffffffffffffff021916908373ffffffffffffffffffffffffffffffffffffffff160217905550600260009054906101000a900473ffffffffffffffffffffffffffffffffffffffff16600360006101000a81548173ffffffffffffffffffffffffffffffffffffffff021916908373ffffffffffffffffffffffffffffffffffffffff16021790555060006004556000600555600060065560006007556000600a556003600b556064600c55620186a0600e553480156200011457600080fd5b5062000135620001296200013b60201b60201c565b6200014360201b60201c565b62000568565b600033905090565b60008060009054906101000a900473ffffffffffffffffffffffffffffffffffffffff169050816000806101000a81548173ffffffffffffffffffffffffffffffffffffffff021916908373ffffffffffffffffffffffffffffffffffffffff1602179055508173ffffffffffffffffffffffffffffffffffffffff168173ffffffffffffffffffffffffffffffffffffffff167f8be0079c531659141344cd1fd0a4f28419497f9722a3daafe3b4186f6b6457e060405160405180910390a35050565b600081519050919050565b7f4e487b7100000000000000000000000000000000000000000000000000000000600052604160045260246000fd5b7f4e487b7100000000000000000000000000000000000000000000000000000000600052602260045260246000fd5b600060028204905060018216806200028957607f821691505b6020821081036200029f576200029e62000241565b5b50919050565b60008190508160005260206000209050919050565b60006020601f8301049050919050565b600082821b905092915050565b600060088302620003097fffffffffffffffffffffffffffffffffffffffffffffffffffffffffffffffff82620002ca565b620003158683620002ca565b95508019841693508086168417925050509392505050565b6000819050919050565b6000819050919050565b6000620003626200035c62000356846200032d565b62000337565b6200032d565b9050919050565b6000819050919050565b6200037e8362000341565b620003966200038d8262000369565b848454620002d7565b825550505050565b600090565b620003ad6200039e565b620003ba81848462000373565b505050565b5b81811015620003e257620003d6600082620003a3565b600181019050620003c0565b5050565b601f8211156200043157620003fb81620002a5565b6200040684620002ba565b8101602085101562000416578190505b6200042e6200042585620002ba565b830182620003bf565b50505b505050565b600082821c905092915050565b6000620004566000198460080262000436565b1980831691505092915050565b600062000471838362000443565b9150826002028217905092915050565b6200048c8262000207565b67ffffffffffffffff811115620004a857620004a762000212565b5b620004b4825462000270565b620004c1828285620003e6565b600060209050601f831160018114620004f95760008415620004e4578287015190505b620004f0858262000463565b86555062000560565b601f1984166200050986620002a5565b60005b8281101562000533578489015182556001820191506020850194506020810190506200050c565b868310156200055357848901516200054f601f89168262000443565b8355505b6001600288020188555050505b505050505050565b61255480620005786000396000f3fe6080604052600436106100e85760003560e01c8063b651978d1161008a578063e8078d9411610059578063e8078d941461022f578063f2fde38b14610239578063f694f7d114610262578063fc0c546a1461028d576100e8565b8063b651978d146101c6578063d4cadf68146101dd578063d592cbf614610209578063e56a645e14610213576100e8565b80638259e6a0116100c65780638259e6a01461015957806388a780e5146101755780638da5cb5b1461017f5780639c8f9f23146101aa576100e8565b80630902f1ac146100ed5780631ceaeedd14610119578063715018a614610142575b600080fd5b3480156100f957600080fd5b506101026102b8565b604051610110929190611ac7565b60405180910390f35b34801561012557600080fd5b50610140600480360381019061013b9190611b53565b6102c9565b005b34801561014e57600080fd5b5061015761047a565b005b610173600480360381019061016e9190611bac565b61048e565b005b61017d61083e565b005b34801561018b57600080fd5b50610194610c05565b6040516101a19190611be8565b60405180910390f35b6101c460048036038101906101bf9190611bac565b610c2e565b005b3480156101d257600080fd5b506101db610fe8565b005b3480156101e957600080fd5b506101f26110ee565b604051610200929190611ac7565b60405180910390f35b6102116110ff565b005b61022d60048036038101906102289190611bac565b611253565b005b6102376113f1565b005b34801561024557600080fd5b50610260600480360381019061025b9190611b53565b6116f5565b005b34801561026e57600080fd5b50610277611778565b6040516102849190611c93565b60405180910390f35b34801561029957600080fd5b506102a2611806565b6040516102af9190611d14565b60405180910390f35b600080600554600454915091509091565b61031f6040518060400160405280600581526020017f6574683a200000000000000000000000000000000000000000000000000000008152508273ffffffffffffffffffffffffffffffffffffffff163161182c565b6103f96040518060400160405280600781526020017f746f6b656e3a2000000000000000000000000000000000000000000000000000815250600360009054906101000a900473ffffffffffffffffffffffffffffffffffffffff1673ffffffffffffffffffffffffffffffffffffffff166370a08231846040518263ffffffff1660e01b81526004016103b39190611be8565b602060405180830381865afa1580156103d0573d6000803e3d6000fd5b505050506040513d601f19601f820116820180604052508101906103f49190611d44565b61182c565b6104776040518060400160405280600881526020017f7368617265733a20000000000000000000000000000000000000000000000000815250600860008473ffffffffffffffffffffffffffffffffffffffff1673ffffffffffffffffffffffffffffffffffffffff1681526020019081526020016000205461182c565b50565b6104826118c8565b61048c6000611946565b565b6104966118c8565b6000600454146104db576040517f08c379a00000000000000000000000000000000000000000000000000000000081526004016104d290611dbd565b60405180910390fd5b600060055414610520576040517f08c379a000000000000000000000000000000000000000000000000000000000815260040161051790611e29565b60405180910390fd5b60003411610563576040517f08c379a000000000000000000000000000000000000000000000000000000000815260040161055a90611e95565b60405180910390fd5b6000600360009054906101000a900473ffffffffffffffffffffffffffffffffffffffff1673ffffffffffffffffffffffffffffffffffffffff166370a08231336040518263ffffffff1660e01b81526004016105c09190611be8565b602060405180830381865afa1580156105dd573d6000803e3d6000fd5b505050506040513d601f19601f820116820180604052508101906106019190611d44565b905080821115610646576040517f08c379a000000000000000000000000000000000000000000000000000000000815260040161063d90611f27565b60405180910390fd5b60008211610689576040517f08c379a000000000000000000000000000000000000000000000000000000000815260040161068090611f93565b60405180910390fd5b600360009054906101000a900473ffffffffffffffffffffffffffffffffffffffff1673ffffffffffffffffffffffffffffffffffffffff166323b872dd3330856040518463ffffffff1660e01b81526004016106e893929190611fb3565b6020604051808303816000875af1158015610707573d6000803e3d6000fd5b505050506040513d601f19601f8201168201806040525081019061072b9190612022565b50600360009054906101000a900473ffffffffffffffffffffffffffffffffffffffff1673ffffffffffffffffffffffffffffffffffffffff166370a08231306040518263ffffffff1660e01b81526004016107879190611be8565b602060405180830381865afa1580156107a4573d6000803e3d6000fd5b505050506040513d601f19601f820116820180604052508101906107c89190611d44565b600481905550346005819055506005546004546107e5919061207e565b600d81905550620186a0600a819055506064600860003373ffffffffffffffffffffffffffffffffffffffff1673ffffffffffffffffffffffffffffffffffffffff168152602001908152602001600020819055505050565b6000600a54600860003373ffffffffffffffffffffffffffffffffffffffff1673ffffffffffffffffffffffffffffffffffffffff16815260200190815260200160002054600454610890919061207e565b61089a91906120ef565b90506000600a54600860003373ffffffffffffffffffffffffffffffffffffffff1673ffffffffffffffffffffffffffffffffffffffff168152602001908152602001600020546005546108ee919061207e565b6108f891906120ef565b9050610902610fe8565b6109416040518060400160405280600e81526020017f616d6f756e74546f6b656e733a200000000000000000000000000000000000008152508361182c565b6000826004546109519190612120565b90506000826005546109639190612120565b9050600081116109a8576040517f08c379a000000000000000000000000000000000000000000000000000000000815260040161099f906121a0565b60405180910390fd5b600082116109eb576040517f08c379a00000000000000000000000000000000000000000000000000000000081526004016109e29061220c565b60405180910390fd5b600360009054906101000a900473ffffffffffffffffffffffffffffffffffffffff1673ffffffffffffffffffffffffffffffffffffffff1663095ea7b330866040518363ffffffff1660e01b8152600401610a4892919061222c565b6020604051808303816000875af1158015610a67573d6000803e3d6000fd5b505050506040513d601f19601f82011682018060405250810190610a8b9190612022565b50600360009054906101000a900473ffffffffffffffffffffffffffffffffffffffff1673ffffffffffffffffffffffffffffffffffffffff1663a9059cbb33866040518363ffffffff1660e01b8152600401610ae992919061222c565b6020604051808303816000875af1158015610b08573d6000803e3d6000fd5b505050506040513d601f19601f82011682018060405250810190610b2c9190612022565b508160048190555080600581905550600860003373ffffffffffffffffffffffffffffffffffffffff1673ffffffffffffffffffffffffffffffffffffffff16815260200190815260200160002054600a6000828254610b8c9190612120565b925050819055506000600860003373ffffffffffffffffffffffffffffffffffffffff1673ffffffffffffffffffffffffffffffffffffffff16815260200190815260200160002081905550600554600454610be8919061207e565b600d81905550610bf6610fe8565b610bff336102c9565b50505050565b60008060009054906101000a900473ffffffffffffffffffffffffffffffffffffffff16905090565b670de0b6b3a764000081610c42919061207e565b600060055460045483610c55919061207e565b610c5f91906120ef565b9050600081600454610c719190612120565b9050600083600554610c839190612120565b905060008111610cc8576040517f08c379a0000000000000000000000000000000000000000000000000000000008152600401610cbf906121a0565b60405180910390fd5b60008211610d0b576040517f08c379a0000000000000000000000000000000000000000000000000000000008152600401610d029061220c565b60405180910390fd5b670de0b6b3a764000085610d1f919061207e565b9450600060055460045487610d34919061207e565b610d3e91906120ef565b90506000600454600a5483610d53919061207e565b610d5d91906120ef565b9050610d9e6040518060400160405280600e81526020017f616d6f756e74546f6b656e733a200000000000000000000000000000000000008152508361182c565b610da6610fe8565b610de56040518060400160405280601281526020017f736861726573546f57697468647261773a2000000000000000000000000000008152508261182c565b610dee81611a0a565b610e2d576040517f08c379a0000000000000000000000000000000000000000000000000000000008152600401610e24906122a1565b60405180910390fd5b600082600454610e3d9190612120565b9050600088600554610e4f9190612120565b90508160048190555080600581905550600360009054906101000a900473ffffffffffffffffffffffffffffffffffffffff1673ffffffffffffffffffffffffffffffffffffffff1663a9059cbb33866040518363ffffffff1660e01b8152600401610ebc92919061222c565b6020604051808303816000875af1158015610edb573d6000803e3d6000fd5b505050506040513d601f19601f82011682018060405250810190610eff9190612022565b503373ffffffffffffffffffffffffffffffffffffffff166108fc8a9081150290604051600060405180830381858888f19350505050158015610f46573d6000803e3d6000fd5b5082600860003373ffffffffffffffffffffffffffffffffffffffff1673ffffffffffffffffffffffffffffffffffffffff1681526020019081526020016000206000828254610f969190612120565b9250508190555082600a6000828254610faf9190612120565b92505081905550600554600454610fc6919061207e565b600d81905550610fd4610fe8565b610fdd336102c9565b505050505050505050565b6110296040518060400160405280600e81526020017f6574685f72657365727665733a2000000000000000000000000000000000000081525060055461182c565b61106a6040518060400160405280601081526020017f746f6b656e5f72657365727665733a200000000000000000000000000000000081525060045461182c565b6110ab6040518060400160405280600381526020017f6b3a200000000000000000000000000000000000000000000000000000000000815250600d5461182c565b6110ec6040518060400160405280600e81526020017f746f74616c5f7368617265733a20000000000000000000000000000000000000815250600a5461182c565b565b600080600b54600c54915091509091565b60003460055461110f91906122c1565b9050600081600d5461112191906120ef565b90506000816004546111339190612120565b905060008211611178576040517f08c379a000000000000000000000000000000000000000000000000000000000815260040161116f9061220c565b60405180910390fd5b600360009054906101000a900473ffffffffffffffffffffffffffffffffffffffff1673ffffffffffffffffffffffffffffffffffffffff1663a9059cbb33836040518363ffffffff1660e01b81526004016111d592919061222c565b6020604051808303816000875af11580156111f4573d6000803e3d6000fd5b505050506040513d601f19601f820116820180604052508101906112189190612022565b508160048190555082600581905550600554600454611237919061207e565b600d81905550611245610fe8565b61124e336102c9565b505050565b60008160045461126391906122c1565b9050600081600d5461127591906120ef565b90506000816005546112879190612120565b9050600082116112cc576040517f08c379a00000000000000000000000000000000000000000000000000000000081526004016112c3906121a0565b60405180910390fd5b600360009054906101000a900473ffffffffffffffffffffffffffffffffffffffff1673ffffffffffffffffffffffffffffffffffffffff166323b872dd3330876040518463ffffffff1660e01b815260040161132b93929190611fb3565b6020604051808303816000875af115801561134a573d6000803e3d6000fd5b505050506040513d601f19601f8201168201806040525081019061136e9190612022565b503373ffffffffffffffffffffffffffffffffffffffff166108fc829081150290604051600060405180830381858888f193505050501580156113b5573d6000803e3d6000fd5b5082600481905550816005819055506005546004546113d4919061207e565b600d819055506113e2610fe8565b6113eb336102c9565b50505050565b6000349050600060055460045483611409919061207e565b61141391906120ef565b905061141e336102c9565b600360009054906101000a900473ffffffffffffffffffffffffffffffffffffffff1673ffffffffffffffffffffffffffffffffffffffff166370a08231336040518263ffffffff1660e01b81526004016114799190611be8565b602060405180830381865afa158015611496573d6000803e3d6000fd5b505050506040513d601f19601f820116820180604052508101906114ba9190611d44565b8111156114fc576040517f08c379a00000000000000000000000000000000000000000000000000000000081526004016114f390612341565b60405180910390fd5b816005600082825461150e91906122c1565b925050819055506000600a546004546004548461152b91906122c1565b600a54611538919061207e565b61154291906120ef565b61154c9190612120565b9050816004600082825461156091906122c1565b92505081905550600360009054906101000a900473ffffffffffffffffffffffffffffffffffffffff1673ffffffffffffffffffffffffffffffffffffffff166323b872dd3330856040518463ffffffff1660e01b81526004016115c693929190611fb3565b6020604051808303816000875af11580156115e5573d6000803e3d6000fd5b505050506040513d601f19601f820116820180604052508101906116099190612022565b5080600860003373ffffffffffffffffffffffffffffffffffffffff1673ffffffffffffffffffffffffffffffffffffffff168152602001908152602001600020600082825461165991906122c1565b92505081905550600554600454611670919061207e565b600d8190555080600a600082825461168891906122c1565b92505081905550611697610fe8565b6116a0336102c9565b3373ffffffffffffffffffffffffffffffffffffffff167f06239653922ac7bea6aa2b19dc486b9361821d37712eb796adfd38d81de278ca83856040516116e8929190611ac7565b60405180910390a2505050565b6116fd6118c8565b600073ffffffffffffffffffffffffffffffffffffffff168173ffffffffffffffffffffffffffffffffffffffff160361176c576040517f08c379a0000000000000000000000000000000000000000000000000000000008152600401611763906123d3565b60405180910390fd5b61177581611946565b50565b6001805461178590612422565b80601f01602080910402602001604051908101604052809291908181526020018280546117b190612422565b80156117fe5780601f106117d3576101008083540402835291602001916117fe565b820191906000526020600020905b8154815290600101906020018083116117e157829003601f168201915b505050505081565b600360009054906101000a900473ffffffffffffffffffffffffffffffffffffffff1681565b6118c48282604051602401611842929190612453565b6040516020818303038152906040527fb60e72cc000000000000000000000000000000000000000000000000000000007bffffffffffffffffffffffffffffffffffffffffffffffffffffffff19166020820180517bffffffffffffffffffffffffffffffffffffffffffffffffffffffff8381831617835250505050611a56565b5050565b6118d0611a70565b73ffffffffffffffffffffffffffffffffffffffff166118ee610c05565b73ffffffffffffffffffffffffffffffffffffffff1614611944576040517f08c379a000000000000000000000000000000000000000000000000000000000815260040161193b906124cf565b60405180910390fd5b565b60008060009054906101000a900473ffffffffffffffffffffffffffffffffffffffff169050816000806101000a81548173ffffffffffffffffffffffffffffffffffffffff021916908373ffffffffffffffffffffffffffffffffffffffff1602179055508173ffffffffffffffffffffffffffffffffffffffff168173ffffffffffffffffffffffffffffffffffffffff167f8be0079c531659141344cd1fd0a4f28419497f9722a3daafe3b4186f6b6457e060405160405180910390a35050565b6000600860003373ffffffffffffffffffffffffffffffffffffffff1673ffffffffffffffffffffffffffffffffffffffff168152602001908152602001600020548211159050919050565b611a6d81611a65611a78611a99565b63ffffffff16565b50565b600033905090565b60006a636f6e736f6c652e6c6f679050600080835160208501845afa505050565b611aa4819050919050565b611aac6124ef565b565b6000819050919050565b611ac181611aae565b82525050565b6000604082019050611adc6000830185611ab8565b611ae96020830184611ab8565b9392505050565b600080fd5b600073ffffffffffffffffffffffffffffffffffffffff82169050919050565b6000611b2082611af5565b9050919050565b611b3081611b15565b8114611b3b57600080fd5b50565b600081359050611b4d81611b27565b92915050565b600060208284031215611b6957611b68611af0565b5b6000611b7784828501611b3e565b91505092915050565b611b8981611aae565b8114611b9457600080fd5b50565b600081359050611ba681611b80565b92915050565b600060208284031215611bc257611bc1611af0565b5b6000611bd084828501611b97565b91505092915050565b611be281611b15565b82525050565b6000602082019050611bfd6000830184611bd9565b92915050565b600081519050919050565b600082825260208201905092915050565b60005b83811015611c3d578082015181840152602081019050611c22565b60008484015250505050565b6000601f19601f8301169050919050565b6000611c6582611c03565b611c6f8185611c0e565b9350611c7f818560208601611c1f565b611c8881611c49565b840191505092915050565b60006020820190508181036000830152611cad8184611c5a565b905092915050565b6000819050919050565b6000611cda611cd5611cd084611af5565b611cb5565b611af5565b9050919050565b6000611cec82611cbf565b9050919050565b6000611cfe82611ce1565b9050919050565b611d0e81611cf3565b82525050565b6000602082019050611d296000830184611d05565b92915050565b600081519050611d3e81611b80565b92915050565b600060208284031215611d5a57611d59611af0565b5b6000611d6884828501611d2f565b91505092915050565b7f546f6b656e20726573657276657320776173206e6f7420300000000000000000600082015250565b6000611da7601883611c0e565b9150611db282611d71565b602082019050919050565b60006020820190508181036000830152611dd681611d9a565b9050919050565b7f45544820726573657276657320776173206e6f7420302e000000000000000000600082015250565b6000611e13601783611c0e565b9150611e1e82611ddd565b602082019050919050565b60006020820190508181036000830152611e4281611e06565b9050919050565b7f4e6565642065746820746f2063726561746520706f6f6c2e0000000000000000600082015250565b6000611e7f601883611c0e565b9150611e8a82611e49565b602082019050919050565b60006020820190508181036000830152611eae81611e72565b9050919050565b7f4e6f74206861766520656e6f75676820746f6b656e7320746f2063726561746560008201527f2074686520706f6f6c0000000000000000000000000000000000000000000000602082015250565b6000611f11602983611c0e565b9150611f1c82611eb5565b604082019050919050565b60006020820190508181036000830152611f4081611f04565b9050919050565b7f4e65656420746f6b656e7320746f2063726561746520706f6f6c2e0000000000600082015250565b6000611f7d601b83611c0e565b9150611f8882611f47565b602082019050919050565b60006020820190508181036000830152611fac81611f70565b9050919050565b6000606082019050611fc86000830186611bd9565b611fd56020830185611bd9565b611fe26040830184611ab8565b949350505050565b60008115159050919050565b611fff81611fea565b811461200a57600080fd5b50565b60008151905061201c81611ff6565b92915050565b60006020828403121561203857612037611af0565b5b60006120468482850161200d565b91505092915050565b7f4e487b7100000000000000000000000000000000000000000000000000000000600052601160045260246000fd5b600061208982611aae565b915061209483611aae565b92508282026120a281611aae565b915082820484148315176120b9576120b861204f565b5b5092915050565b7f4e487b7100000000000000000000000000000000000000000000000000000000600052601260045260246000fd5b60006120fa82611aae565b915061210583611aae565b925082612115576121146120c0565b5b828204905092915050565b600061212b82611aae565b915061213683611aae565b925082820390508181111561214e5761214d61204f565b5b92915050565b7f4e6f7420656e6f75676820657468207265736572766573000000000000000000600082015250565b600061218a601783611c0e565b915061219582612154565b602082019050919050565b600060208201905081810360008301526121b98161217d565b9050919050565b7f4e6f7420656e6f75676820746f6b656e20726573657276657300000000000000600082015250565b60006121f6601983611c0e565b9150612201826121c0565b602082019050919050565b60006020820190508181036000830152612225816121e9565b9050919050565b60006040820190506122416000830185611bd9565b61224e6020830184611ab8565b9392505050565b7f4e6f7420656e6f75676820736861726573000000000000000000000000000000600082015250565b600061228b601183611c0e565b915061229682612255565b602082019050919050565b600060208201905081810360008301526122ba8161227e565b9050919050565b60006122cc82611aae565b91506122d783611aae565b92508282019050808211156122ef576122ee61204f565b5b92915050565b7f4e6f7420656e6f75676820746f6b656e2062616c616e63650000000000000000600082015250565b600061232b601883611c0e565b9150612336826122f5565b602082019050919050565b6000602082019050818103600083015261235a8161231e565b9050919050565b7f4f776e61626c653a206e6577206f776e657220697320746865207a65726f206160008201527f6464726573730000000000000000000000000000000000000000000000000000602082015250565b60006123bd602683611c0e565b91506123c882612361565b604082019050919050565b600060208201905081810360008301526123ec816123b0565b9050919050565b7f4e487b7100000000000000000000000000000000000000000000000000000000600052602260045260246000fd5b6000600282049050600182168061243a57607f821691505b60208210810361244d5761244c6123f3565b5b50919050565b6000604082019050818103600083015261246d8185611c5a565b905061247c6020830184611ab8565b9392505050565b7f4f776e61626c653a2063616c6c6572206973206e6f7420746865206f776e6572600082015250565b60006124b9602083611c0e565b91506124c482612483565b602082019050919050565b600060208201905081810360008301526124e8816124ac565b9050919050565b7f4e487b7100000000000000000000000000000000000000000000000000000000600052605160045260246000fdfea2646970667358221220c34c8f36d3ec905a16a2606fd6becdcbd43abf7f4aaef861ac6bfd7de6cf47c464736f6c63430008110033",
  "linkReferences": {},
  "deployedLinkReferences": {}
}