{"contracts/exchange.sol":{"TokenExchange":{"abi":[{"inputs":[],"stateMutability":"nonpayable","type":"constructor"},{"anonymous":false,"inputs":[{"indexed":true,"internalType":"address","name":"provider","type":"address"},{"indexed":false,"internalType":"uint256","name":"amountTokens","type":"uint256"},{"indexed":false,"internalType":"uint256","name":"amountETH","type":"uint256"}],"name":"AddLiquidity","type":"event"},{"anonymous":false,"inputs":[{"indexed":true,"internalType":"address","name":"previousOwner","type":"address"},{"indexed":true,"internalType":"address","name":"newOwner","type":"address"}],"name":"OwnershipTransferred","type":"event"},{"inputs":[],"name":"addLiquidity","outputs":[],"stateMutability":"payable","type":"function"},{"inputs":[{"internalType":"uint256","name":"amountTokens","type":"uint256"}],"name":"createPool","outputs":[],"stateMutability":"payable","type":"function"},{"inputs":[],"name":"debugPrint","outputs":[],"stateMutability":"view","type":"function"},{"inputs":[],"name":"exchange_name","outputs":[{"internalType":"string","name":"","type":"string"}],"stateMutability":"view","type":"function"},{"inputs":[],"name":"getReserves","outputs":[{"internalType":"uint256","name":"","type":"uint256"},{"internalType":"uint256","name":"","type":"uint256"}],"stateMutability":"view","type":"function"},{"inputs":[],"name":"getSwapFee","outputs":[{"internalType":"uint256","name":"","type":"uint256"},{"internalType":"uint256","name":"","type":"uint256"}],"stateMutability":"view","type":"function"},{"inputs":[],"name":"owner","outputs":[{"internalType":"address","name":"","type":"address"}],"stateMutability":"view","type":"function"},{"inputs":[],"name":"removeAllLiquidity","outputs":[],"stateMutability":"payable","type":"function"},{"inputs":[{"internalType":"uint256","name":"amountETH","type":"uint256"}],"name":"removeLiquidity","outputs":[],"stateMutability":"payable","type":"function"},{"inputs":[],"name":"renounceOwnership","outputs":[],"stateMutability":"nonpayable","type":"function"},{"inputs":[],"name":"swapETHForTokens","outputs":[],"stateMutability":"payable","type":"function"},{"inputs":[{"internalType":"uint256","name":"amountTokens","type":"uint256"}],"name":"swapTokensForETH","outputs":[],"stateMutability":"payable","type":"function"},{"inputs":[],"name":"token","outputs":[{"internalType":"contract Token","name":"","type":"address"}],"stateMutability":"view","type":"function"},{"inputs":[{"internalType":"address","name":"newOwner","type":"address"}],"name":"transferOwnership","outputs":[],"stateMutability":"nonpayable","type":"function"}],"evm":{"bytecode":{"linkReferences":{},"object":"6080604052604051806020016040528060008152506001908162000024919062000481565b50735fbdb2315678afecb367f032d93f642f64180aa3600260006101000a81548173ffffffffffffffffffffffffffffffffffffffff021916908373ffffffffffffffffffffffffffffffffffffffff160217905550600260009054906101000a900473ffffffffffffffffffffffffffffffffffffffff16600360006101000a81548173ffffffffffffffffffffffffffffffffffffffff021916908373ffffffffffffffffffffffffffffffffffffffff16021790555060006004556000600555600060065560006007556000600a556003600b556064600c55620186a0600e553480156200011457600080fd5b5062000135620001296200013b60201b60201c565b6200014360201b60201c565b62000568565b600033905090565b60008060009054906101000a900473ffffffffffffffffffffffffffffffffffffffff169050816000806101000a81548173ffffffffffffffffffffffffffffffffffffffff021916908373ffffffffffffffffffffffffffffffffffffffff1602179055508173ffffffffffffffffffffffffffffffffffffffff168173ffffffffffffffffffffffffffffffffffffffff167f8be0079c531659141344cd1fd0a4f28419497f9722a3daafe3b4186f6b6457e060405160405180910390a35050565b600081519050919050565b7f4e487b7100000000000000000000000000000000000000000000000000000000600052604160045260246000fd5b7f4e487b7100000000000000000000000000000000000000000000000000000000600052602260045260246000fd5b600060028204905060018216806200028957607f821691505b6020821081036200029f576200029e62000241565b5b50919050565b60008190508160005260206000209050919050565b60006020601f8301049050919050565b600082821b905092915050565b600060088302620003097fffffffffffffffffffffffffffffffffffffffffffffffffffffffffffffffff82620002ca565b620003158683620002ca565b95508019841693508086168417925050509392505050565b6000819050919050565b6000819050919050565b6000620003626200035c62000356846200032d565b62000337565b6200032d565b9050919050565b6000819050919050565b6200037e8362000341565b620003966200038d8262000369565b848454620002d7565b825550505050565b600090565b620003ad6200039e565b620003ba81848462000373565b505050565b5b81811015620003e257620003d6600082620003a3565b600181019050620003c0565b5050565b601f8211156200043157620003fb81620002a5565b6200040684620002ba565b8101602085101562000416578190505b6200042e6200042585620002ba565b830182620003bf565b50505b505050565b600082821c905092915050565b6000620004566000198460080262000436565b1980831691505092915050565b600062000471838362000443565b9150826002028217905092915050565b6200048c8262000207565b67ffffffffffffffff811115620004a857620004a762000212565b5b620004b4825462000270565b620004c1828285620003e6565b600060209050601f831160018114620004f95760008415620004e4578287015190505b620004f0858262000463565b86555062000560565b601f1984166200050986620002a5565b60005b8281101562000533578489015182556001820191506020850194506020810190506200050c565b868310156200055357848901516200054f601f89168262000443565b8355505b6001600288020188555050505b505050505050565b61244380620005786000396000f3fe6080604052600436106100dd5760003560e01c8063d4cadf681161007f578063e8078d9411610059578063e8078d94146101fb578063f2fde38b14610205578063f694f7d11461022e578063fc0c546a14610259576100dd565b8063d4cadf68146101a9578063d592cbf6146101d5578063e56a645e146101df576100dd565b806388a780e5116100bb57806388a780e5146101415780638da5cb5b1461014b5780639c8f9f2314610176578063b651978d14610192576100dd565b80630902f1ac146100e2578063715018a61461010e5780638259e6a014610125575b600080fd5b3480156100ee57600080fd5b506100f7610284565b6040516101059291906119b6565b60405180910390f35b34801561011a57600080fd5b50610123610295565b005b61013f600480360381019061013a9190611a10565b6102a9565b005b610149610659565b005b34801561015757600080fd5b506101606109c8565b60405161016d9190611a7e565b60405180910390f35b610190600480360381019061018b9190611a10565b6109f1565b005b34801561019e57600080fd5b506101a7610e9a565b005b3480156101b557600080fd5b506101be610fa0565b6040516101cc9291906119b6565b60405180910390f35b6101dd610fb1565b005b6101f960048036038101906101f49190611a10565b611126565b005b6102036112cc565b005b34801561021157600080fd5b5061022c60048036038101906102279190611ac5565b6115e4565b005b34801561023a57600080fd5b50610243611667565b6040516102509190611b82565b60405180910390f35b34801561026557600080fd5b5061026e6116f5565b60405161027b9190611c03565b60405180910390f35b600080600554600454915091509091565b61029d61171b565b6102a76000611799565b565b6102b161171b565b6000600454146102f6576040517f08c379a00000000000000000000000000000000000000000000000000000000081526004016102ed90611c6a565b60405180910390fd5b60006005541461033b576040517f08c379a000000000000000000000000000000000000000000000000000000000815260040161033290611cd6565b60405180910390fd5b6000341161037e576040517f08c379a000000000000000000000000000000000000000000000000000000000815260040161037590611d42565b60405180910390fd5b6000600360009054906101000a900473ffffffffffffffffffffffffffffffffffffffff1673ffffffffffffffffffffffffffffffffffffffff166370a08231336040518263ffffffff1660e01b81526004016103db9190611a7e565b602060405180830381865afa1580156103f8573d6000803e3d6000fd5b505050506040513d601f19601f8201168201806040525081019061041c9190611d77565b905080821115610461576040517f08c379a000000000000000000000000000000000000000000000000000000000815260040161045890611e16565b60405180910390fd5b600082116104a4576040517f08c379a000000000000000000000000000000000000000000000000000000000815260040161049b90611e82565b60405180910390fd5b600360009054906101000a900473ffffffffffffffffffffffffffffffffffffffff1673ffffffffffffffffffffffffffffffffffffffff166323b872dd3330856040518463ffffffff1660e01b815260040161050393929190611ea2565b6020604051808303816000875af1158015610522573d6000803e3d6000fd5b505050506040513d601f19601f820116820180604052508101906105469190611f11565b50600360009054906101000a900473ffffffffffffffffffffffffffffffffffffffff1673ffffffffffffffffffffffffffffffffffffffff166370a08231306040518263ffffffff1660e01b81526004016105a29190611a7e565b602060405180830381865afa1580156105bf573d6000803e3d6000fd5b505050506040513d601f19601f820116820180604052508101906105e39190611d77565b600481905550346005819055506005546004546106009190611f6d565b600d81905550620186a0600a819055506064600860003373ffffffffffffffffffffffffffffffffffffffff1673ffffffffffffffffffffffffffffffffffffffff168152602001908152602001600020819055505050565b6000600a54600860003373ffffffffffffffffffffffffffffffffffffffff1673ffffffffffffffffffffffffffffffffffffffff168152602001908152602001600020546004546106ab9190611f6d565b6106b59190611fde565b90506000600a54600860003373ffffffffffffffffffffffffffffffffffffffff1673ffffffffffffffffffffffffffffffffffffffff168152602001908152602001600020546005546107099190611f6d565b6107139190611fde565b9050600082600454610725919061200f565b9050600082600554610737919061200f565b90506000811161077c576040517f08c379a00000000000000000000000000000000000000000000000000000000081526004016107739061208f565b60405180910390fd5b600082116107bf576040517f08c379a00000000000000000000000000000000000000000000000000000000081526004016107b6906120fb565b60405180910390fd5b600360009054906101000a900473ffffffffffffffffffffffffffffffffffffffff1673ffffffffffffffffffffffffffffffffffffffff1663095ea7b330866040518363ffffffff1660e01b815260040161081c92919061211b565b6020604051808303816000875af115801561083b573d6000803e3d6000fd5b505050506040513d601f19601f8201168201806040525081019061085f9190611f11565b50600360009054906101000a900473ffffffffffffffffffffffffffffffffffffffff1673ffffffffffffffffffffffffffffffffffffffff1663a9059cbb33866040518363ffffffff1660e01b81526004016108bd92919061211b565b6020604051808303816000875af11580156108dc573d6000803e3d6000fd5b505050506040513d601f19601f820116820180604052508101906109009190611f11565b5081600481905550806005819055506000600860003373ffffffffffffffffffffffffffffffffffffffff1673ffffffffffffffffffffffffffffffffffffffff16815260200190815260200160002081905550600860003373ffffffffffffffffffffffffffffffffffffffff1673ffffffffffffffffffffffffffffffffffffffff16815260200190815260200160002054600a60008282546109a5919061200f565b925050819055506005546004546109bc9190611f6d565b600d8190555050505050565b60008060009054906101000a900473ffffffffffffffffffffffffffffffffffffffff16905090565b670de0b6b3a764000081610a059190611f6d565b600060055460045483610a189190611f6d565b610a229190611fde565b9050600081600454610a34919061200f565b9050600083600554610a46919061200f565b905060008111610a8b576040517f08c379a0000000000000000000000000000000000000000000000000000000008152600401610a829061208f565b60405180910390fd5b60008211610ace576040517f08c379a0000000000000000000000000000000000000000000000000000000008152600401610ac5906120fb565b60405180910390fd5b670de0b6b3a764000085610ae29190611f6d565b9450600060055460045487610af79190611f6d565b610b019190611fde565b90506000600454600a5483610b169190611f6d565b610b209190611fde565b9050610b616040518060400160405280600e81526020017f616d6f756e74546f6b656e733a200000000000000000000000000000000000008152508361185d565b610ba26040518060400160405280601081526020017f746f6b656e5f72657365727665733a200000000000000000000000000000000081525060045461185d565b610be36040518060400160405280600e81526020017f746f74616c5f7368617265733a20000000000000000000000000000000000000815250600a5461185d565b610c226040518060400160405280601281526020017f736861726573546f57697468647261773a2000000000000000000000000000008152508261185d565b610c2b816118f9565b610c6a576040517f08c379a0000000000000000000000000000000000000000000000000000000008152600401610c6190612190565b60405180910390fd5b600082600454610c7a919061200f565b9050600088600554610c8c919061200f565b90508160048190555080600581905550600360009054906101000a900473ffffffffffffffffffffffffffffffffffffffff1673ffffffffffffffffffffffffffffffffffffffff1663a9059cbb33866040518363ffffffff1660e01b8152600401610cf992919061211b565b6020604051808303816000875af1158015610d18573d6000803e3d6000fd5b505050506040513d601f19601f82011682018060405250810190610d3c9190611f11565b503373ffffffffffffffffffffffffffffffffffffffff166108fc8a9081150290604051600060405180830381858888f19350505050158015610d83573d6000803e3d6000fd5b5082600860003373ffffffffffffffffffffffffffffffffffffffff1673ffffffffffffffffffffffffffffffffffffffff1681526020019081526020016000206000828254610dd3919061200f565b9250508190555082600a6000828254610dec919061200f565b92505081905550600554600454610e039190611f6d565b600d81905550610e11610e9a565b610e8f6040518060400160405280600881526020017f7368617265733a20000000000000000000000000000000000000000000000000815250600860003373ffffffffffffffffffffffffffffffffffffffff1673ffffffffffffffffffffffffffffffffffffffff1681526020019081526020016000205461185d565b505050505050505050565b610edb6040518060400160405280600e81526020017f6574685f72657365727665733a2000000000000000000000000000000000000081525060055461185d565b610f1c6040518060400160405280601081526020017f746f6b656e5f72657365727665733a200000000000000000000000000000000081525060045461185d565b610f5d6040518060400160405280600381526020017f6b3a200000000000000000000000000000000000000000000000000000000000815250600d5461185d565b610f9e6040518060400160405280600e81526020017f746f74616c5f7368617265733a20000000000000000000000000000000000000815250600a5461185d565b565b600080600b54600c54915091509091565b600060045434600554610fc491906121b0565b600d54610fd19190611fde565b610fdb919061200f565b9050600081600454610fed919061200f565b905060008111611032576040517f08c379a0000000000000000000000000000000000000000000000000000000008152600401611029906120fb565b60405180910390fd5b346005600082825461104491906121b0565b92505081905550600360009054906101000a900473ffffffffffffffffffffffffffffffffffffffff1673ffffffffffffffffffffffffffffffffffffffff1663a9059cbb33846040518363ffffffff1660e01b81526004016110a892919061211b565b6020604051808303816000875af11580156110c7573d6000803e3d6000fd5b505050506040513d601f19601f820116820180604052508101906110eb9190611f11565b5080600481905550346005600082825461110591906121b0565b9250508190555060055460045461111c9190611f6d565b600d819055505050565b60006005548260045461113991906121b0565b600d546111469190611fde565b611150919061200f565b9050600081600554611162919061200f565b9050600081116111a7576040517f08c379a000000000000000000000000000000000000000000000000000000000815260040161119e9061208f565b60405180910390fd5b600360009054906101000a900473ffffffffffffffffffffffffffffffffffffffff1673ffffffffffffffffffffffffffffffffffffffff166323b872dd3330866040518463ffffffff1660e01b815260040161120693929190611ea2565b6020604051808303816000875af1158015611225573d6000803e3d6000fd5b505050506040513d601f19601f820116820180604052508101906112499190611f11565b503373ffffffffffffffffffffffffffffffffffffffff166108fc839081150290604051600060405180830381858888f19350505050158015611290573d6000803e3d6000fd5b5082600460008282546112a391906121b0565b92505081905550806005819055506005546004546112c19190611f6d565b600d81905550505050565b60003490506000600554600454836112e49190611f6d565b6112ee9190611fde565b9050600360009054906101000a900473ffffffffffffffffffffffffffffffffffffffff1673ffffffffffffffffffffffffffffffffffffffff166370a08231336040518263ffffffff1660e01b815260040161134b9190611a7e565b602060405180830381865afa158015611368573d6000803e3d6000fd5b505050506040513d601f19601f8201168201806040525081019061138c9190611d77565b8111156113ce576040517f08c379a00000000000000000000000000000000000000000000000000000000081526004016113c590612230565b60405180910390fd5b81600560008282546113e091906121b0565b9250508190555080600460008282546113f991906121b0565b92505081905550600060045482620186a06114149190611f6d565b61141e9190611fde565b9050600360009054906101000a900473ffffffffffffffffffffffffffffffffffffffff1673ffffffffffffffffffffffffffffffffffffffff166323b872dd3330856040518463ffffffff1660e01b815260040161147f93929190611ea2565b6020604051808303816000875af115801561149e573d6000803e3d6000fd5b505050506040513d601f19601f820116820180604052508101906114c29190611f11565b5080600860003373ffffffffffffffffffffffffffffffffffffffff1673ffffffffffffffffffffffffffffffffffffffff168152602001908152602001600020600082825461151291906121b0565b925050819055506005546004546115299190611f6d565b600d8190555080600a600082825461154191906121b0565b92505081905550611550610e9a565b61158f6040518060400160405280600881526020017f7368617265733a200000000000000000000000000000000000000000000000008152508261185d565b3373ffffffffffffffffffffffffffffffffffffffff167f06239653922ac7bea6aa2b19dc486b9361821d37712eb796adfd38d81de278ca83856040516115d79291906119b6565b60405180910390a2505050565b6115ec61171b565b600073ffffffffffffffffffffffffffffffffffffffff168173ffffffffffffffffffffffffffffffffffffffff160361165b576040517f08c379a0000000000000000000000000000000000000000000000000000000008152600401611652906122c2565b60405180910390fd5b61166481611799565b50565b6001805461167490612311565b80601f01602080910402602001604051908101604052809291908181526020018280546116a090612311565b80156116ed5780601f106116c2576101008083540402835291602001916116ed565b820191906000526020600020905b8154815290600101906020018083116116d057829003601f168201915b505050505081565b600360009054906101000a900473ffffffffffffffffffffffffffffffffffffffff1681565b611723611945565b73ffffffffffffffffffffffffffffffffffffffff166117416109c8565b73ffffffffffffffffffffffffffffffffffffffff1614611797576040517f08c379a000000000000000000000000000000000000000000000000000000000815260040161178e9061238e565b60405180910390fd5b565b60008060009054906101000a900473ffffffffffffffffffffffffffffffffffffffff169050816000806101000a81548173ffffffffffffffffffffffffffffffffffffffff021916908373ffffffffffffffffffffffffffffffffffffffff1602179055508173ffffffffffffffffffffffffffffffffffffffff168173ffffffffffffffffffffffffffffffffffffffff167f8be0079c531659141344cd1fd0a4f28419497f9722a3daafe3b4186f6b6457e060405160405180910390a35050565b6118f582826040516024016118739291906123ae565b6040516020818303038152906040527fb60e72cc000000000000000000000000000000000000000000000000000000007bffffffffffffffffffffffffffffffffffffffffffffffffffffffff19166020820180517bffffffffffffffffffffffffffffffffffffffffffffffffffffffff838183161783525050505061194d565b5050565b6000600860003373ffffffffffffffffffffffffffffffffffffffff1673ffffffffffffffffffffffffffffffffffffffff168152602001908152602001600020548211159050919050565b600033905090565b6119648161195c611967611988565b63ffffffff16565b50565b60006a636f6e736f6c652e6c6f679050600080835160208501845afa505050565b611993819050919050565b61199b6123de565b565b6000819050919050565b6119b08161199d565b82525050565b60006040820190506119cb60008301856119a7565b6119d860208301846119a7565b9392505050565b600080fd5b6119ed8161199d565b81146119f857600080fd5b50565b600081359050611a0a816119e4565b92915050565b600060208284031215611a2657611a256119df565b5b6000611a34848285016119fb565b91505092915050565b600073ffffffffffffffffffffffffffffffffffffffff82169050919050565b6000611a6882611a3d565b9050919050565b611a7881611a5d565b82525050565b6000602082019050611a936000830184611a6f565b92915050565b611aa281611a5d565b8114611aad57600080fd5b50565b600081359050611abf81611a99565b92915050565b600060208284031215611adb57611ada6119df565b5b6000611ae984828501611ab0565b91505092915050565b600081519050919050565b600082825260208201905092915050565b60005b83811015611b2c578082015181840152602081019050611b11565b60008484015250505050565b6000601f19601f8301169050919050565b6000611b5482611af2565b611b5e8185611afd565b9350611b6e818560208601611b0e565b611b7781611b38565b840191505092915050565b60006020820190508181036000830152611b9c8184611b49565b905092915050565b6000819050919050565b6000611bc9611bc4611bbf84611a3d565b611ba4565b611a3d565b9050919050565b6000611bdb82611bae565b9050919050565b6000611bed82611bd0565b9050919050565b611bfd81611be2565b82525050565b6000602082019050611c186000830184611bf4565b92915050565b7f546f6b656e20726573657276657320776173206e6f7420300000000000000000600082015250565b6000611c54601883611afd565b9150611c5f82611c1e565b602082019050919050565b60006020820190508181036000830152611c8381611c47565b9050919050565b7f45544820726573657276657320776173206e6f7420302e000000000000000000600082015250565b6000611cc0601783611afd565b9150611ccb82611c8a565b602082019050919050565b60006020820190508181036000830152611cef81611cb3565b9050919050565b7f4e6565642065746820746f2063726561746520706f6f6c2e0000000000000000600082015250565b6000611d2c601883611afd565b9150611d3782611cf6565b602082019050919050565b60006020820190508181036000830152611d5b81611d1f565b9050919050565b600081519050611d71816119e4565b92915050565b600060208284031215611d8d57611d8c6119df565b5b6000611d9b84828501611d62565b91505092915050565b7f4e6f74206861766520656e6f75676820746f6b656e7320746f2063726561746560008201527f2074686520706f6f6c0000000000000000000000000000000000000000000000602082015250565b6000611e00602983611afd565b9150611e0b82611da4565b604082019050919050565b60006020820190508181036000830152611e2f81611df3565b9050919050565b7f4e65656420746f6b656e7320746f2063726561746520706f6f6c2e0000000000600082015250565b6000611e6c601b83611afd565b9150611e7782611e36565b602082019050919050565b60006020820190508181036000830152611e9b81611e5f565b9050919050565b6000606082019050611eb76000830186611a6f565b611ec46020830185611a6f565b611ed160408301846119a7565b949350505050565b60008115159050919050565b611eee81611ed9565b8114611ef957600080fd5b50565b600081519050611f0b81611ee5565b92915050565b600060208284031215611f2757611f266119df565b5b6000611f3584828501611efc565b91505092915050565b7f4e487b7100000000000000000000000000000000000000000000000000000000600052601160045260246000fd5b6000611f788261199d565b9150611f838361199d565b9250828202611f918161199d565b91508282048414831517611fa857611fa7611f3e565b5b5092915050565b7f4e487b7100000000000000000000000000000000000000000000000000000000600052601260045260246000fd5b6000611fe98261199d565b9150611ff48361199d565b92508261200457612003611faf565b5b828204905092915050565b600061201a8261199d565b91506120258361199d565b925082820390508181111561203d5761203c611f3e565b5b92915050565b7f4e6f7420656e6f75676820657468207265736572766573000000000000000000600082015250565b6000612079601783611afd565b915061208482612043565b602082019050919050565b600060208201905081810360008301526120a88161206c565b9050919050565b7f4e6f7420656e6f75676820746f6b656e20726573657276657300000000000000600082015250565b60006120e5601983611afd565b91506120f0826120af565b602082019050919050565b60006020820190508181036000830152612114816120d8565b9050919050565b60006040820190506121306000830185611a6f565b61213d60208301846119a7565b9392505050565b7f4e6f7420656e6f75676820736861726573000000000000000000000000000000600082015250565b600061217a601183611afd565b915061218582612144565b602082019050919050565b600060208201905081810360008301526121a98161216d565b9050919050565b60006121bb8261199d565b91506121c68361199d565b92508282019050808211156121de576121dd611f3e565b5b92915050565b7f4e6f7420656e6f75676820746f6b656e2062616c616e63650000000000000000600082015250565b600061221a601883611afd565b9150612225826121e4565b602082019050919050565b600060208201905081810360008301526122498161220d565b9050919050565b7f4f776e61626c653a206e6577206f776e657220697320746865207a65726f206160008201527f6464726573730000000000000000000000000000000000000000000000000000602082015250565b60006122ac602683611afd565b91506122b782612250565b604082019050919050565b600060208201905081810360008301526122db8161229f565b9050919050565b7f4e487b7100000000000000000000000000000000000000000000000000000000600052602260045260246000fd5b6000600282049050600182168061232957607f821691505b60208210810361233c5761233b6122e2565b5b50919050565b7f4f776e61626c653a2063616c6c6572206973206e6f7420746865206f776e6572600082015250565b6000612378602083611afd565b915061238382612342565b602082019050919050565b600060208201905081810360008301526123a78161236b565b9050919050565b600060408201905081810360008301526123c88185611b49565b90506123d760208301846119a7565b9392505050565b7f4e487b7100000000000000000000000000000000000000000000000000000000600052605160045260246000fdfea2646970667358221220079259bf396198ec280d4edd87d88e29a2b8d9755a3f4f03bf7f59d6861ccad864736f6c63430008110033","opcodes":"PUSH1 0x80 PUSH1 0x40 MSTORE PUSH1 0x40 MLOAD DUP1 PUSH1 0x20 ADD PUSH1 0x40 MSTORE DUP1 PUSH1 0x0 DUP2 MSTORE POP PUSH1 0x1 SWAP1 DUP2 PUSH3 0x24 SWAP2 SWAP1 PUSH3 0x481 JUMP JUMPDEST POP PUSH20 0x5FBDB2315678AFECB367F032D93F642F64180AA3 PUSH1 0x2 PUSH1 0x0 PUSH2 0x100 EXP DUP2 SLOAD DUP2 PUSH20 0xFFFFFFFFFFFFFFFFFFFFFFFFFFFFFFFFFFFFFFFF MUL NOT AND SWAP1 DUP4 PUSH20 0xFFFFFFFFFFFFFFFFFFFFFFFFFFFFFFFFFFFFFFFF AND MUL OR SWAP1 SSTORE POP PUSH1 0x2 PUSH1 0x0 SWAP1 SLOAD SWAP1 PUSH2 0x100 EXP SWAP1 DIV PUSH20 0xFFFFFFFFFFFFFFFFFFFFFFFFFFFFFFFFFFFFFFFF AND PUSH1 0x3 PUSH1 0x0 PUSH2 0x100 EXP DUP2 SLOAD DUP2 PUSH20 0xFFFFFFFFFFFFFFFFFFFFFFFFFFFFFFFFFFFFFFFF MUL NOT AND SWAP1 DUP4 PUSH20 0xFFFFFFFFFFFFFFFFFFFFFFFFFFFFFFFFFFFFFFFF AND MUL OR SWAP1 SSTORE POP PUSH1 0x0 PUSH1 0x4 SSTORE PUSH1 0x0 PUSH1 0x5 SSTORE PUSH1 0x0 PUSH1 0x6 SSTORE PUSH1 0x0 PUSH1 0x7 SSTORE PUSH1 0x0 PUSH1 0xA SSTORE PUSH1 0x3 PUSH1 0xB SSTORE PUSH1 0x64 PUSH1 0xC SSTORE PUSH3 0x186A0 PUSH1 0xE SSTORE CALLVALUE DUP1 ISZERO PUSH3 0x114 JUMPI PUSH1 0x0 DUP1 REVERT JUMPDEST POP PUSH3 0x135 PUSH3 0x129 PUSH3 0x13B PUSH1 0x20 SHL PUSH1 0x20 SHR JUMP JUMPDEST PUSH3 0x143 PUSH1 0x20 SHL PUSH1 0x20 SHR JUMP JUMPDEST PUSH3 0x568 JUMP JUMPDEST PUSH1 0x0 CALLER SWAP1 POP SWAP1 JUMP JUMPDEST PUSH1 0x0 DUP1 PUSH1 0x0 SWAP1 SLOAD SWAP1 PUSH2 0x100 EXP SWAP1 DIV PUSH20 0xFFFFFFFFFFFFFFFFFFFFFFFFFFFFFFFFFFFFFFFF AND SWAP1 POP DUP2 PUSH1 0x0 DUP1 PUSH2 0x100 EXP DUP2 SLOAD DUP2 PUSH20 0xFFFFFFFFFFFFFFFFFFFFFFFFFFFFFFFFFFFFFFFF MUL NOT AND SWAP1 DUP4 PUSH20 0xFFFFFFFFFFFFFFFFFFFFFFFFFFFFFFFFFFFFFFFF AND MUL OR SWAP1 SSTORE POP DUP2 PUSH20 0xFFFFFFFFFFFFFFFFFFFFFFFFFFFFFFFFFFFFFFFF AND DUP2 PUSH20 0xFFFFFFFFFFFFFFFFFFFFFFFFFFFFFFFFFFFFFFFF AND PUSH32 0x8BE0079C531659141344CD1FD0A4F28419497F9722A3DAAFE3B4186F6B6457E0 PUSH1 0x40 MLOAD PUSH1 0x40 MLOAD DUP1 SWAP2 SUB SWAP1 LOG3 POP POP JUMP JUMPDEST PUSH1 0x0 DUP2 MLOAD SWAP1 POP SWAP2 SWAP1 POP JUMP JUMPDEST PUSH32 0x4E487B7100000000000000000000000000000000000000000000000000000000 PUSH1 0x0 MSTORE PUSH1 0x41 PUSH1 0x4 MSTORE PUSH1 0x24 PUSH1 0x0 REVERT JUMPDEST PUSH32 0x4E487B7100000000000000000000000000000000000000000000000000000000 PUSH1 0x0 MSTORE PUSH1 0x22 PUSH1 0x4 MSTORE PUSH1 0x24 PUSH1 0x0 REVERT JUMPDEST PUSH1 0x0 PUSH1 0x2 DUP3 DIV SWAP1 POP PUSH1 0x1 DUP3 AND DUP1 PUSH3 0x289 JUMPI PUSH1 0x7F DUP3 AND SWAP2 POP JUMPDEST PUSH1 0x20 DUP3 LT DUP2 SUB PUSH3 0x29F JUMPI PUSH3 0x29E PUSH3 0x241 JUMP JUMPDEST JUMPDEST POP SWAP2 SWAP1 POP JUMP JUMPDEST PUSH1 0x0 DUP2 SWAP1 POP DUP2 PUSH1 0x0 MSTORE PUSH1 0x20 PUSH1 0x0 KECCAK256 SWAP1 POP SWAP2 SWAP1 POP JUMP JUMPDEST PUSH1 0x0 PUSH1 0x20 PUSH1 0x1F DUP4 ADD DIV SWAP1 POP SWAP2 SWAP1 POP JUMP JUMPDEST PUSH1 0x0 DUP3 DUP3 SHL SWAP1 POP SWAP3 SWAP2 POP POP JUMP JUMPDEST PUSH1 0x0 PUSH1 0x8 DUP4 MUL PUSH3 0x309 PUSH32 0xFFFFFFFFFFFFFFFFFFFFFFFFFFFFFFFFFFFFFFFFFFFFFFFFFFFFFFFFFFFFFFFF DUP3 PUSH3 0x2CA JUMP JUMPDEST PUSH3 0x315 DUP7 DUP4 PUSH3 0x2CA JUMP JUMPDEST SWAP6 POP DUP1 NOT DUP5 AND SWAP4 POP DUP1 DUP7 AND DUP5 OR SWAP3 POP POP POP SWAP4 SWAP3 POP POP POP JUMP JUMPDEST PUSH1 0x0 DUP2 SWAP1 POP SWAP2 SWAP1 POP JUMP JUMPDEST PUSH1 0x0 DUP2 SWAP1 POP SWAP2 SWAP1 POP JUMP JUMPDEST PUSH1 0x0 PUSH3 0x362 PUSH3 0x35C PUSH3 0x356 DUP5 PUSH3 0x32D JUMP JUMPDEST PUSH3 0x337 JUMP JUMPDEST PUSH3 0x32D JUMP JUMPDEST SWAP1 POP SWAP2 SWAP1 POP JUMP JUMPDEST PUSH1 0x0 DUP2 SWAP1 POP SWAP2 SWAP1 POP JUMP JUMPDEST PUSH3 0x37E DUP4 PUSH3 0x341 JUMP JUMPDEST PUSH3 0x396 PUSH3 0x38D DUP3 PUSH3 0x369 JUMP JUMPDEST DUP5 DUP5 SLOAD PUSH3 0x2D7 JUMP JUMPDEST DUP3 SSTORE POP POP POP POP JUMP JUMPDEST PUSH1 0x0 SWAP1 JUMP JUMPDEST PUSH3 0x3AD PUSH3 0x39E JUMP JUMPDEST PUSH3 0x3BA DUP2 DUP5 DUP5 PUSH3 0x373 JUMP JUMPDEST POP POP POP JUMP JUMPDEST JUMPDEST DUP2 DUP2 LT ISZERO PUSH3 0x3E2 JUMPI PUSH3 0x3D6 PUSH1 0x0 DUP3 PUSH3 0x3A3 JUMP JUMPDEST PUSH1 0x1 DUP2 ADD SWAP1 POP PUSH3 0x3C0 JUMP JUMPDEST POP POP JUMP JUMPDEST PUSH1 0x1F DUP3 GT ISZERO PUSH3 0x431 JUMPI PUSH3 0x3FB DUP2 PUSH3 0x2A5 JUMP JUMPDEST PUSH3 0x406 DUP5 PUSH3 0x2BA JUMP JUMPDEST DUP2 ADD PUSH1 0x20 DUP6 LT ISZERO PUSH3 0x416 JUMPI DUP2 SWAP1 POP JUMPDEST PUSH3 0x42E PUSH3 0x425 DUP6 PUSH3 0x2BA JUMP JUMPDEST DUP4 ADD DUP3 PUSH3 0x3BF JUMP JUMPDEST POP POP JUMPDEST POP POP POP JUMP JUMPDEST PUSH1 0x0 DUP3 DUP3 SHR SWAP1 POP SWAP3 SWAP2 POP POP JUMP JUMPDEST PUSH1 0x0 PUSH3 0x456 PUSH1 0x0 NOT DUP5 PUSH1 0x8 MUL PUSH3 0x436 JUMP JUMPDEST NOT DUP1 DUP4 AND SWAP2 POP POP SWAP3 SWAP2 POP POP JUMP JUMPDEST PUSH1 0x0 PUSH3 0x471 DUP4 DUP4 PUSH3 0x443 JUMP JUMPDEST SWAP2 POP DUP3 PUSH1 0x2 MUL DUP3 OR SWAP1 POP SWAP3 SWAP2 POP POP JUMP JUMPDEST PUSH3 0x48C DUP3 PUSH3 0x207 JUMP JUMPDEST PUSH8 0xFFFFFFFFFFFFFFFF DUP2 GT ISZERO PUSH3 0x4A8 JUMPI PUSH3 0x4A7 PUSH3 0x212 JUMP JUMPDEST JUMPDEST PUSH3 0x4B4 DUP3 SLOAD PUSH3 0x270 JUMP JUMPDEST PUSH3 0x4C1 DUP3 DUP3 DUP6 PUSH3 0x3E6 JUMP JUMPDEST PUSH1 0x0 PUSH1 0x20 SWAP1 POP PUSH1 0x1F DUP4 GT PUSH1 0x1 DUP2 EQ PUSH3 0x4F9 JUMPI PUSH1 0x0 DUP5 ISZERO PUSH3 0x4E4 JUMPI DUP3 DUP8 ADD MLOAD SWAP1 POP JUMPDEST PUSH3 0x4F0 DUP6 DUP3 PUSH3 0x463 JUMP JUMPDEST DUP7 SSTORE POP PUSH3 0x560 JUMP JUMPDEST PUSH1 0x1F NOT DUP5 AND PUSH3 0x509 DUP7 PUSH3 0x2A5 JUMP JUMPDEST PUSH1 0x0 JUMPDEST DUP3 DUP2 LT ISZERO PUSH3 0x533 JUMPI DUP5 DUP10 ADD MLOAD DUP3 SSTORE PUSH1 0x1 DUP3 ADD SWAP2 POP PUSH1 0x20 DUP6 ADD SWAP5 POP PUSH1 0x20 DUP2 ADD SWAP1 POP PUSH3 0x50C JUMP JUMPDEST DUP7 DUP4 LT ISZERO PUSH3 0x553 JUMPI DUP5 DUP10 ADD MLOAD PUSH3 0x54F PUSH1 0x1F DUP10 AND DUP3 PUSH3 0x443 JUMP JUMPDEST DUP4 SSTORE POP JUMPDEST PUSH1 0x1 PUSH1 0x2 DUP9 MUL ADD DUP9 SSTORE POP POP POP JUMPDEST POP POP POP POP POP POP JUMP JUMPDEST PUSH2 0x2443 DUP1 PUSH3 0x578 PUSH1 0x0 CODECOPY PUSH1 0x0 RETURN INVALID PUSH1 0x80 PUSH1 0x40 MSTORE PUSH1 0x4 CALLDATASIZE LT PUSH2 0xDD JUMPI PUSH1 0x0 CALLDATALOAD PUSH1 0xE0 SHR DUP1 PUSH4 0xD4CADF68 GT PUSH2 0x7F JUMPI DUP1 PUSH4 0xE8078D94 GT PUSH2 0x59 JUMPI DUP1 PUSH4 0xE8078D94 EQ PUSH2 0x1FB JUMPI DUP1 PUSH4 0xF2FDE38B EQ PUSH2 0x205 JUMPI DUP1 PUSH4 0xF694F7D1 EQ PUSH2 0x22E JUMPI DUP1 PUSH4 0xFC0C546A EQ PUSH2 0x259 JUMPI PUSH2 0xDD JUMP JUMPDEST DUP1 PUSH4 0xD4CADF68 EQ PUSH2 0x1A9 JUMPI DUP1 PUSH4 0xD592CBF6 EQ PUSH2 0x1D5 JUMPI DUP1 PUSH4 0xE56A645E EQ PUSH2 0x1DF JUMPI PUSH2 0xDD JUMP JUMPDEST DUP1 PUSH4 0x88A780E5 GT PUSH2 0xBB JUMPI DUP1 PUSH4 0x88A780E5 EQ PUSH2 0x141 JUMPI DUP1 PUSH4 0x8DA5CB5B EQ PUSH2 0x14B JUMPI DUP1 PUSH4 0x9C8F9F23 EQ PUSH2 0x176 JUMPI DUP1 PUSH4 0xB651978D EQ PUSH2 0x192 JUMPI PUSH2 0xDD JUMP JUMPDEST DUP1 PUSH4 0x902F1AC EQ PUSH2 0xE2 JUMPI DUP1 PUSH4 0x715018A6 EQ PUSH2 0x10E JUMPI DUP1 PUSH4 0x8259E6A0 EQ PUSH2 0x125 JUMPI JUMPDEST PUSH1 0x0 DUP1 REVERT JUMPDEST CALLVALUE DUP1 ISZERO PUSH2 0xEE JUMPI PUSH1 0x0 DUP1 REVERT JUMPDEST POP PUSH2 0xF7 PUSH2 0x284 JUMP JUMPDEST PUSH1 0x40 MLOAD PUSH2 0x105 SWAP3 SWAP2 SWAP1 PUSH2 0x19B6 JUMP JUMPDEST PUSH1 0x40 MLOAD DUP1 SWAP2 SUB SWAP1 RETURN JUMPDEST CALLVALUE DUP1 ISZERO PUSH2 0x11A JUMPI PUSH1 0x0 DUP1 REVERT JUMPDEST POP PUSH2 0x123 PUSH2 0x295 JUMP JUMPDEST STOP JUMPDEST PUSH2 0x13F PUSH1 0x4 DUP1 CALLDATASIZE SUB DUP2 ADD SWAP1 PUSH2 0x13A SWAP2 SWAP1 PUSH2 0x1A10 JUMP JUMPDEST PUSH2 0x2A9 JUMP JUMPDEST STOP JUMPDEST PUSH2 0x149 PUSH2 0x659 JUMP JUMPDEST STOP JUMPDEST CALLVALUE DUP1 ISZERO PUSH2 0x157 JUMPI PUSH1 0x0 DUP1 REVERT JUMPDEST POP PUSH2 0x160 PUSH2 0x9C8 JUMP JUMPDEST PUSH1 0x40 MLOAD PUSH2 0x16D SWAP2 SWAP1 PUSH2 0x1A7E JUMP JUMPDEST PUSH1 0x40 MLOAD DUP1 SWAP2 SUB SWAP1 RETURN JUMPDEST PUSH2 0x190 PUSH1 0x4 DUP1 CALLDATASIZE SUB DUP2 ADD SWAP1 PUSH2 0x18B SWAP2 SWAP1 PUSH2 0x1A10 JUMP JUMPDEST PUSH2 0x9F1 JUMP JUMPDEST STOP JUMPDEST CALLVALUE DUP1 ISZERO PUSH2 0x19E JUMPI PUSH1 0x0 DUP1 REVERT JUMPDEST POP PUSH2 0x1A7 PUSH2 0xE9A JUMP JUMPDEST STOP JUMPDEST CALLVALUE DUP1 ISZERO PUSH2 0x1B5 JUMPI PUSH1 0x0 DUP1 REVERT JUMPDEST POP PUSH2 0x1BE PUSH2 0xFA0 JUMP JUMPDEST PUSH1 0x40 MLOAD PUSH2 0x1CC SWAP3 SWAP2 SWAP1 PUSH2 0x19B6 JUMP JUMPDEST PUSH1 0x40 MLOAD DUP1 SWAP2 SUB SWAP1 RETURN JUMPDEST PUSH2 0x1DD PUSH2 0xFB1 JUMP JUMPDEST STOP JUMPDEST PUSH2 0x1F9 PUSH1 0x4 DUP1 CALLDATASIZE SUB DUP2 ADD SWAP1 PUSH2 0x1F4 SWAP2 SWAP1 PUSH2 0x1A10 JUMP JUMPDEST PUSH2 0x1126 JUMP JUMPDEST STOP JUMPDEST PUSH2 0x203 PUSH2 0x12CC JUMP JUMPDEST STOP JUMPDEST CALLVALUE DUP1 ISZERO PUSH2 0x211 JUMPI PUSH1 0x0 DUP1 REVERT JUMPDEST POP PUSH2 0x22C PUSH1 0x4 DUP1 CALLDATASIZE SUB DUP2 ADD SWAP1 PUSH2 0x227 SWAP2 SWAP1 PUSH2 0x1AC5 JUMP JUMPDEST PUSH2 0x15E4 JUMP JUMPDEST STOP JUMPDEST CALLVALUE DUP1 ISZERO PUSH2 0x23A JUMPI PUSH1 0x0 DUP1 REVERT JUMPDEST POP PUSH2 0x243 PUSH2 0x1667 JUMP JUMPDEST PUSH1 0x40 MLOAD PUSH2 0x250 SWAP2 SWAP1 PUSH2 0x1B82 JUMP JUMPDEST PUSH1 0x40 MLOAD DUP1 SWAP2 SUB SWAP1 RETURN JUMPDEST CALLVALUE DUP1 ISZERO PUSH2 0x265 JUMPI PUSH1 0x0 DUP1 REVERT JUMPDEST POP PUSH2 0x26E PUSH2 0x16F5 JUMP JUMPDEST PUSH1 0x40 MLOAD PUSH2 0x27B SWAP2 SWAP1 PUSH2 0x1C03 JUMP JUMPDEST PUSH1 0x40 MLOAD DUP1 SWAP2 SUB SWAP1 RETURN JUMPDEST PUSH1 0x0 DUP1 PUSH1 0x5 SLOAD PUSH1 0x4 SLOAD SWAP2 POP SWAP2 POP SWAP1 SWAP2 JUMP JUMPDEST PUSH2 0x29D PUSH2 0x171B JUMP JUMPDEST PUSH2 0x2A7 PUSH1 0x0 PUSH2 0x1799 JUMP JUMPDEST JUMP JUMPDEST PUSH2 0x2B1 PUSH2 0x171B JUMP JUMPDEST PUSH1 0x0 PUSH1 0x4 SLOAD EQ PUSH2 0x2F6 JUMPI PUSH1 0x40 MLOAD PUSH32 0x8C379A000000000000000000000000000000000000000000000000000000000 DUP2 MSTORE PUSH1 0x4 ADD PUSH2 0x2ED SWAP1 PUSH2 0x1C6A JUMP JUMPDEST PUSH1 0x40 MLOAD DUP1 SWAP2 SUB SWAP1 REVERT JUMPDEST PUSH1 0x0 PUSH1 0x5 SLOAD EQ PUSH2 0x33B JUMPI PUSH1 0x40 MLOAD PUSH32 0x8C379A000000000000000000000000000000000000000000000000000000000 DUP2 MSTORE PUSH1 0x4 ADD PUSH2 0x332 SWAP1 PUSH2 0x1CD6 JUMP JUMPDEST PUSH1 0x40 MLOAD DUP1 SWAP2 SUB SWAP1 REVERT JUMPDEST PUSH1 0x0 CALLVALUE GT PUSH2 0x37E JUMPI PUSH1 0x40 MLOAD PUSH32 0x8C379A000000000000000000000000000000000000000000000000000000000 DUP2 MSTORE PUSH1 0x4 ADD PUSH2 0x375 SWAP1 PUSH2 0x1D42 JUMP JUMPDEST PUSH1 0x40 MLOAD DUP1 SWAP2 SUB SWAP1 REVERT JUMPDEST PUSH1 0x0 PUSH1 0x3 PUSH1 0x0 SWAP1 SLOAD SWAP1 PUSH2 0x100 EXP SWAP1 DIV PUSH20 0xFFFFFFFFFFFFFFFFFFFFFFFFFFFFFFFFFFFFFFFF AND PUSH20 0xFFFFFFFFFFFFFFFFFFFFFFFFFFFFFFFFFFFFFFFF AND PUSH4 0x70A08231 CALLER PUSH1 0x40 MLOAD DUP3 PUSH4 0xFFFFFFFF AND PUSH1 0xE0 SHL DUP2 MSTORE PUSH1 0x4 ADD PUSH2 0x3DB SWAP2 SWAP1 PUSH2 0x1A7E JUMP JUMPDEST PUSH1 0x20 PUSH1 0x40 MLOAD DUP1 DUP4 SUB DUP2 DUP7 GAS STATICCALL ISZERO DUP1 ISZERO PUSH2 0x3F8 JUMPI RETURNDATASIZE PUSH1 0x0 DUP1 RETURNDATACOPY RETURNDATASIZE PUSH1 0x0 REVERT JUMPDEST POP POP POP POP PUSH1 0x40 MLOAD RETURNDATASIZE PUSH1 0x1F NOT PUSH1 0x1F DUP3 ADD AND DUP3 ADD DUP1 PUSH1 0x40 MSTORE POP DUP2 ADD SWAP1 PUSH2 0x41C SWAP2 SWAP1 PUSH2 0x1D77 JUMP JUMPDEST SWAP1 POP DUP1 DUP3 GT ISZERO PUSH2 0x461 JUMPI PUSH1 0x40 MLOAD PUSH32 0x8C379A000000000000000000000000000000000000000000000000000000000 DUP2 MSTORE PUSH1 0x4 ADD PUSH2 0x458 SWAP1 PUSH2 0x1E16 JUMP JUMPDEST PUSH1 0x40 MLOAD DUP1 SWAP2 SUB SWAP1 REVERT JUMPDEST PUSH1 0x0 DUP3 GT PUSH2 0x4A4 JUMPI PUSH1 0x40 MLOAD PUSH32 0x8C379A000000000000000000000000000000000000000000000000000000000 DUP2 MSTORE PUSH1 0x4 ADD PUSH2 0x49B SWAP1 PUSH2 0x1E82 JUMP JUMPDEST PUSH1 0x40 MLOAD DUP1 SWAP2 SUB SWAP1 REVERT JUMPDEST PUSH1 0x3 PUSH1 0x0 SWAP1 SLOAD SWAP1 PUSH2 0x100 EXP SWAP1 DIV PUSH20 0xFFFFFFFFFFFFFFFFFFFFFFFFFFFFFFFFFFFFFFFF AND PUSH20 0xFFFFFFFFFFFFFFFFFFFFFFFFFFFFFFFFFFFFFFFF AND PUSH4 0x23B872DD CALLER ADDRESS DUP6 PUSH1 0x40 MLOAD DUP5 PUSH4 0xFFFFFFFF AND PUSH1 0xE0 SHL DUP2 MSTORE PUSH1 0x4 ADD PUSH2 0x503 SWAP4 SWAP3 SWAP2 SWAP1 PUSH2 0x1EA2 JUMP JUMPDEST PUSH1 0x20 PUSH1 0x40 MLOAD DUP1 DUP4 SUB DUP2 PUSH1 0x0 DUP8 GAS CALL ISZERO DUP1 ISZERO PUSH2 0x522 JUMPI RETURNDATASIZE PUSH1 0x0 DUP1 RETURNDATACOPY RETURNDATASIZE PUSH1 0x0 REVERT JUMPDEST POP POP POP POP PUSH1 0x40 MLOAD RETURNDATASIZE PUSH1 0x1F NOT PUSH1 0x1F DUP3 ADD AND DUP3 ADD DUP1 PUSH1 0x40 MSTORE POP DUP2 ADD SWAP1 PUSH2 0x546 SWAP2 SWAP1 PUSH2 0x1F11 JUMP JUMPDEST POP PUSH1 0x3 PUSH1 0x0 SWAP1 SLOAD SWAP1 PUSH2 0x100 EXP SWAP1 DIV PUSH20 0xFFFFFFFFFFFFFFFFFFFFFFFFFFFFFFFFFFFFFFFF AND PUSH20 0xFFFFFFFFFFFFFFFFFFFFFFFFFFFFFFFFFFFFFFFF AND PUSH4 0x70A08231 ADDRESS PUSH1 0x40 MLOAD DUP3 PUSH4 0xFFFFFFFF AND PUSH1 0xE0 SHL DUP2 MSTORE PUSH1 0x4 ADD PUSH2 0x5A2 SWAP2 SWAP1 PUSH2 0x1A7E JUMP JUMPDEST PUSH1 0x20 PUSH1 0x40 MLOAD DUP1 DUP4 SUB DUP2 DUP7 GAS STATICCALL ISZERO DUP1 ISZERO PUSH2 0x5BF JUMPI RETURNDATASIZE PUSH1 0x0 DUP1 RETURNDATACOPY RETURNDATASIZE PUSH1 0x0 REVERT JUMPDEST POP POP POP POP PUSH1 0x40 MLOAD RETURNDATASIZE PUSH1 0x1F NOT PUSH1 0x1F DUP3 ADD AND DUP3 ADD DUP1 PUSH1 0x40 MSTORE POP DUP2 ADD SWAP1 PUSH2 0x5E3 SWAP2 SWAP1 PUSH2 0x1D77 JUMP JUMPDEST PUSH1 0x4 DUP2 SWAP1 SSTORE POP CALLVALUE PUSH1 0x5 DUP2 SWAP1 SSTORE POP PUSH1 0x5 SLOAD PUSH1 0x4 SLOAD PUSH2 0x600 SWAP2 SWAP1 PUSH2 0x1F6D JUMP JUMPDEST PUSH1 0xD DUP2 SWAP1 SSTORE POP PUSH3 0x186A0 PUSH1 0xA DUP2 SWAP1 SSTORE POP PUSH1 0x64 PUSH1 0x8 PUSH1 0x0 CALLER PUSH20 0xFFFFFFFFFFFFFFFFFFFFFFFFFFFFFFFFFFFFFFFF AND PUSH20 0xFFFFFFFFFFFFFFFFFFFFFFFFFFFFFFFFFFFFFFFF AND DUP2 MSTORE PUSH1 0x20 ADD SWAP1 DUP2 MSTORE PUSH1 0x20 ADD PUSH1 0x0 KECCAK256 DUP2 SWAP1 SSTORE POP POP POP JUMP JUMPDEST PUSH1 0x0 PUSH1 0xA SLOAD PUSH1 0x8 PUSH1 0x0 CALLER PUSH20 0xFFFFFFFFFFFFFFFFFFFFFFFFFFFFFFFFFFFFFFFF AND PUSH20 0xFFFFFFFFFFFFFFFFFFFFFFFFFFFFFFFFFFFFFFFF AND DUP2 MSTORE PUSH1 0x20 ADD SWAP1 DUP2 MSTORE PUSH1 0x20 ADD PUSH1 0x0 KECCAK256 SLOAD PUSH1 0x4 SLOAD PUSH2 0x6AB SWAP2 SWAP1 PUSH2 0x1F6D JUMP JUMPDEST PUSH2 0x6B5 SWAP2 SWAP1 PUSH2 0x1FDE JUMP JUMPDEST SWAP1 POP PUSH1 0x0 PUSH1 0xA SLOAD PUSH1 0x8 PUSH1 0x0 CALLER PUSH20 0xFFFFFFFFFFFFFFFFFFFFFFFFFFFFFFFFFFFFFFFF AND PUSH20 0xFFFFFFFFFFFFFFFFFFFFFFFFFFFFFFFFFFFFFFFF AND DUP2 MSTORE PUSH1 0x20 ADD SWAP1 DUP2 MSTORE PUSH1 0x20 ADD PUSH1 0x0 KECCAK256 SLOAD PUSH1 0x5 SLOAD PUSH2 0x709 SWAP2 SWAP1 PUSH2 0x1F6D JUMP JUMPDEST PUSH2 0x713 SWAP2 SWAP1 PUSH2 0x1FDE JUMP JUMPDEST SWAP1 POP PUSH1 0x0 DUP3 PUSH1 0x4 SLOAD PUSH2 0x725 SWAP2 SWAP1 PUSH2 0x200F JUMP JUMPDEST SWAP1 POP PUSH1 0x0 DUP3 PUSH1 0x5 SLOAD PUSH2 0x737 SWAP2 SWAP1 PUSH2 0x200F JUMP JUMPDEST SWAP1 POP PUSH1 0x0 DUP2 GT PUSH2 0x77C JUMPI PUSH1 0x40 MLOAD PUSH32 0x8C379A000000000000000000000000000000000000000000000000000000000 DUP2 MSTORE PUSH1 0x4 ADD PUSH2 0x773 SWAP1 PUSH2 0x208F JUMP JUMPDEST PUSH1 0x40 MLOAD DUP1 SWAP2 SUB SWAP1 REVERT JUMPDEST PUSH1 0x0 DUP3 GT PUSH2 0x7BF JUMPI PUSH1 0x40 MLOAD PUSH32 0x8C379A000000000000000000000000000000000000000000000000000000000 DUP2 MSTORE PUSH1 0x4 ADD PUSH2 0x7B6 SWAP1 PUSH2 0x20FB JUMP JUMPDEST PUSH1 0x40 MLOAD DUP1 SWAP2 SUB SWAP1 REVERT JUMPDEST PUSH1 0x3 PUSH1 0x0 SWAP1 SLOAD SWAP1 PUSH2 0x100 EXP SWAP1 DIV PUSH20 0xFFFFFFFFFFFFFFFFFFFFFFFFFFFFFFFFFFFFFFFF AND PUSH20 0xFFFFFFFFFFFFFFFFFFFFFFFFFFFFFFFFFFFFFFFF AND PUSH4 0x95EA7B3 ADDRESS DUP7 PUSH1 0x40 MLOAD DUP4 PUSH4 0xFFFFFFFF AND PUSH1 0xE0 SHL DUP2 MSTORE PUSH1 0x4 ADD PUSH2 0x81C SWAP3 SWAP2 SWAP1 PUSH2 0x211B JUMP JUMPDEST PUSH1 0x20 PUSH1 0x40 MLOAD DUP1 DUP4 SUB DUP2 PUSH1 0x0 DUP8 GAS CALL ISZERO DUP1 ISZERO PUSH2 0x83B JUMPI RETURNDATASIZE PUSH1 0x0 DUP1 RETURNDATACOPY RETURNDATASIZE PUSH1 0x0 REVERT JUMPDEST POP POP POP POP PUSH1 0x40 MLOAD RETURNDATASIZE PUSH1 0x1F NOT PUSH1 0x1F DUP3 ADD AND DUP3 ADD DUP1 PUSH1 0x40 MSTORE POP DUP2 ADD SWAP1 PUSH2 0x85F SWAP2 SWAP1 PUSH2 0x1F11 JUMP JUMPDEST POP PUSH1 0x3 PUSH1 0x0 SWAP1 SLOAD SWAP1 PUSH2 0x100 EXP SWAP1 DIV PUSH20 0xFFFFFFFFFFFFFFFFFFFFFFFFFFFFFFFFFFFFFFFF AND PUSH20 0xFFFFFFFFFFFFFFFFFFFFFFFFFFFFFFFFFFFFFFFF AND PUSH4 0xA9059CBB CALLER DUP7 PUSH1 0x40 MLOAD DUP4 PUSH4 0xFFFFFFFF AND PUSH1 0xE0 SHL DUP2 MSTORE PUSH1 0x4 ADD PUSH2 0x8BD SWAP3 SWAP2 SWAP1 PUSH2 0x211B JUMP JUMPDEST PUSH1 0x20 PUSH1 0x40 MLOAD DUP1 DUP4 SUB DUP2 PUSH1 0x0 DUP8 GAS CALL ISZERO DUP1 ISZERO PUSH2 0x8DC JUMPI RETURNDATASIZE PUSH1 0x0 DUP1 RETURNDATACOPY RETURNDATASIZE PUSH1 0x0 REVERT JUMPDEST POP POP POP POP PUSH1 0x40 MLOAD RETURNDATASIZE PUSH1 0x1F NOT PUSH1 0x1F DUP3 ADD AND DUP3 ADD DUP1 PUSH1 0x40 MSTORE POP DUP2 ADD SWAP1 PUSH2 0x900 SWAP2 SWAP1 PUSH2 0x1F11 JUMP JUMPDEST POP DUP2 PUSH1 0x4 DUP2 SWAP1 SSTORE POP DUP1 PUSH1 0x5 DUP2 SWAP1 SSTORE POP PUSH1 0x0 PUSH1 0x8 PUSH1 0x0 CALLER PUSH20 0xFFFFFFFFFFFFFFFFFFFFFFFFFFFFFFFFFFFFFFFF AND PUSH20 0xFFFFFFFFFFFFFFFFFFFFFFFFFFFFFFFFFFFFFFFF AND DUP2 MSTORE PUSH1 0x20 ADD SWAP1 DUP2 MSTORE PUSH1 0x20 ADD PUSH1 0x0 KECCAK256 DUP2 SWAP1 SSTORE POP PUSH1 0x8 PUSH1 0x0 CALLER PUSH20 0xFFFFFFFFFFFFFFFFFFFFFFFFFFFFFFFFFFFFFFFF AND PUSH20 0xFFFFFFFFFFFFFFFFFFFFFFFFFFFFFFFFFFFFFFFF AND DUP2 MSTORE PUSH1 0x20 ADD SWAP1 DUP2 MSTORE PUSH1 0x20 ADD PUSH1 0x0 KECCAK256 SLOAD PUSH1 0xA PUSH1 0x0 DUP3 DUP3 SLOAD PUSH2 0x9A5 SWAP2 SWAP1 PUSH2 0x200F JUMP JUMPDEST SWAP3 POP POP DUP2 SWAP1 SSTORE POP PUSH1 0x5 SLOAD PUSH1 0x4 SLOAD PUSH2 0x9BC SWAP2 SWAP1 PUSH2 0x1F6D JUMP JUMPDEST PUSH1 0xD DUP2 SWAP1 SSTORE POP POP POP POP POP JUMP JUMPDEST PUSH1 0x0 DUP1 PUSH1 0x0 SWAP1 SLOAD SWAP1 PUSH2 0x100 EXP SWAP1 DIV PUSH20 0xFFFFFFFFFFFFFFFFFFFFFFFFFFFFFFFFFFFFFFFF AND SWAP1 POP SWAP1 JUMP JUMPDEST PUSH8 0xDE0B6B3A7640000 DUP2 PUSH2 0xA05 SWAP2 SWAP1 PUSH2 0x1F6D JUMP JUMPDEST PUSH1 0x0 PUSH1 0x5 SLOAD PUSH1 0x4 SLOAD DUP4 PUSH2 0xA18 SWAP2 SWAP1 PUSH2 0x1F6D JUMP JUMPDEST PUSH2 0xA22 SWAP2 SWAP1 PUSH2 0x1FDE JUMP JUMPDEST SWAP1 POP PUSH1 0x0 DUP2 PUSH1 0x4 SLOAD PUSH2 0xA34 SWAP2 SWAP1 PUSH2 0x200F JUMP JUMPDEST SWAP1 POP PUSH1 0x0 DUP4 PUSH1 0x5 SLOAD PUSH2 0xA46 SWAP2 SWAP1 PUSH2 0x200F JUMP JUMPDEST SWAP1 POP PUSH1 0x0 DUP2 GT PUSH2 0xA8B JUMPI PUSH1 0x40 MLOAD PUSH32 0x8C379A000000000000000000000000000000000000000000000000000000000 DUP2 MSTORE PUSH1 0x4 ADD PUSH2 0xA82 SWAP1 PUSH2 0x208F JUMP JUMPDEST PUSH1 0x40 MLOAD DUP1 SWAP2 SUB SWAP1 REVERT JUMPDEST PUSH1 0x0 DUP3 GT PUSH2 0xACE JUMPI PUSH1 0x40 MLOAD PUSH32 0x8C379A000000000000000000000000000000000000000000000000000000000 DUP2 MSTORE PUSH1 0x4 ADD PUSH2 0xAC5 SWAP1 PUSH2 0x20FB JUMP JUMPDEST PUSH1 0x40 MLOAD DUP1 SWAP2 SUB SWAP1 REVERT JUMPDEST PUSH8 0xDE0B6B3A7640000 DUP6 PUSH2 0xAE2 SWAP2 SWAP1 PUSH2 0x1F6D JUMP JUMPDEST SWAP5 POP PUSH1 0x0 PUSH1 0x5 SLOAD PUSH1 0x4 SLOAD DUP8 PUSH2 0xAF7 SWAP2 SWAP1 PUSH2 0x1F6D JUMP JUMPDEST PUSH2 0xB01 SWAP2 SWAP1 PUSH2 0x1FDE JUMP JUMPDEST SWAP1 POP PUSH1 0x0 PUSH1 0x4 SLOAD PUSH1 0xA SLOAD DUP4 PUSH2 0xB16 SWAP2 SWAP1 PUSH2 0x1F6D JUMP JUMPDEST PUSH2 0xB20 SWAP2 SWAP1 PUSH2 0x1FDE JUMP JUMPDEST SWAP1 POP PUSH2 0xB61 PUSH1 0x40 MLOAD DUP1 PUSH1 0x40 ADD PUSH1 0x40 MSTORE DUP1 PUSH1 0xE DUP2 MSTORE PUSH1 0x20 ADD PUSH32 0x616D6F756E74546F6B656E733A20000000000000000000000000000000000000 DUP2 MSTORE POP DUP4 PUSH2 0x185D JUMP JUMPDEST PUSH2 0xBA2 PUSH1 0x40 MLOAD DUP1 PUSH1 0x40 ADD PUSH1 0x40 MSTORE DUP1 PUSH1 0x10 DUP2 MSTORE PUSH1 0x20 ADD PUSH32 0x746F6B656E5F72657365727665733A2000000000000000000000000000000000 DUP2 MSTORE POP PUSH1 0x4 SLOAD PUSH2 0x185D JUMP JUMPDEST PUSH2 0xBE3 PUSH1 0x40 MLOAD DUP1 PUSH1 0x40 ADD PUSH1 0x40 MSTORE DUP1 PUSH1 0xE DUP2 MSTORE PUSH1 0x20 ADD PUSH32 0x746F74616C5F7368617265733A20000000000000000000000000000000000000 DUP2 MSTORE POP PUSH1 0xA SLOAD PUSH2 0x185D JUMP JUMPDEST PUSH2 0xC22 PUSH1 0x40 MLOAD DUP1 PUSH1 0x40 ADD PUSH1 0x40 MSTORE DUP1 PUSH1 0x12 DUP2 MSTORE PUSH1 0x20 ADD PUSH32 0x736861726573546F57697468647261773A200000000000000000000000000000 DUP2 MSTORE POP DUP3 PUSH2 0x185D JUMP JUMPDEST PUSH2 0xC2B DUP2 PUSH2 0x18F9 JUMP JUMPDEST PUSH2 0xC6A JUMPI PUSH1 0x40 MLOAD PUSH32 0x8C379A000000000000000000000000000000000000000000000000000000000 DUP2 MSTORE PUSH1 0x4 ADD PUSH2 0xC61 SWAP1 PUSH2 0x2190 JUMP JUMPDEST PUSH1 0x40 MLOAD DUP1 SWAP2 SUB SWAP1 REVERT JUMPDEST PUSH1 0x0 DUP3 PUSH1 0x4 SLOAD PUSH2 0xC7A SWAP2 SWAP1 PUSH2 0x200F JUMP JUMPDEST SWAP1 POP PUSH1 0x0 DUP9 PUSH1 0x5 SLOAD PUSH2 0xC8C SWAP2 SWAP1 PUSH2 0x200F JUMP JUMPDEST SWAP1 POP DUP2 PUSH1 0x4 DUP2 SWAP1 SSTORE POP DUP1 PUSH1 0x5 DUP2 SWAP1 SSTORE POP PUSH1 0x3 PUSH1 0x0 SWAP1 SLOAD SWAP1 PUSH2 0x100 EXP SWAP1 DIV PUSH20 0xFFFFFFFFFFFFFFFFFFFFFFFFFFFFFFFFFFFFFFFF AND PUSH20 0xFFFFFFFFFFFFFFFFFFFFFFFFFFFFFFFFFFFFFFFF AND PUSH4 0xA9059CBB CALLER DUP7 PUSH1 0x40 MLOAD DUP4 PUSH4 0xFFFFFFFF AND PUSH1 0xE0 SHL DUP2 MSTORE PUSH1 0x4 ADD PUSH2 0xCF9 SWAP3 SWAP2 SWAP1 PUSH2 0x211B JUMP JUMPDEST PUSH1 0x20 PUSH1 0x40 MLOAD DUP1 DUP4 SUB DUP2 PUSH1 0x0 DUP8 GAS CALL ISZERO DUP1 ISZERO PUSH2 0xD18 JUMPI RETURNDATASIZE PUSH1 0x0 DUP1 RETURNDATACOPY RETURNDATASIZE PUSH1 0x0 REVERT JUMPDEST POP POP POP POP PUSH1 0x40 MLOAD RETURNDATASIZE PUSH1 0x1F NOT PUSH1 0x1F DUP3 ADD AND DUP3 ADD DUP1 PUSH1 0x40 MSTORE POP DUP2 ADD SWAP1 PUSH2 0xD3C SWAP2 SWAP1 PUSH2 0x1F11 JUMP JUMPDEST POP CALLER PUSH20 0xFFFFFFFFFFFFFFFFFFFFFFFFFFFFFFFFFFFFFFFF AND PUSH2 0x8FC DUP11 SWAP1 DUP2 ISZERO MUL SWAP1 PUSH1 0x40 MLOAD PUSH1 0x0 PUSH1 0x40 MLOAD DUP1 DUP4 SUB DUP2 DUP6 DUP9 DUP9 CALL SWAP4 POP POP POP POP ISZERO DUP1 ISZERO PUSH2 0xD83 JUMPI RETURNDATASIZE PUSH1 0x0 DUP1 RETURNDATACOPY RETURNDATASIZE PUSH1 0x0 REVERT JUMPDEST POP DUP3 PUSH1 0x8 PUSH1 0x0 CALLER PUSH20 0xFFFFFFFFFFFFFFFFFFFFFFFFFFFFFFFFFFFFFFFF AND PUSH20 0xFFFFFFFFFFFFFFFFFFFFFFFFFFFFFFFFFFFFFFFF AND DUP2 MSTORE PUSH1 0x20 ADD SWAP1 DUP2 MSTORE PUSH1 0x20 ADD PUSH1 0x0 KECCAK256 PUSH1 0x0 DUP3 DUP3 SLOAD PUSH2 0xDD3 SWAP2 SWAP1 PUSH2 0x200F JUMP JUMPDEST SWAP3 POP POP DUP2 SWAP1 SSTORE POP DUP3 PUSH1 0xA PUSH1 0x0 DUP3 DUP3 SLOAD PUSH2 0xDEC SWAP2 SWAP1 PUSH2 0x200F JUMP JUMPDEST SWAP3 POP POP DUP2 SWAP1 SSTORE POP PUSH1 0x5 SLOAD PUSH1 0x4 SLOAD PUSH2 0xE03 SWAP2 SWAP1 PUSH2 0x1F6D JUMP JUMPDEST PUSH1 0xD DUP2 SWAP1 SSTORE POP PUSH2 0xE11 PUSH2 0xE9A JUMP JUMPDEST PUSH2 0xE8F PUSH1 0x40 MLOAD DUP1 PUSH1 0x40 ADD PUSH1 0x40 MSTORE DUP1 PUSH1 0x8 DUP2 MSTORE PUSH1 0x20 ADD PUSH32 0x7368617265733A20000000000000000000000000000000000000000000000000 DUP2 MSTORE POP PUSH1 0x8 PUSH1 0x0 CALLER PUSH20 0xFFFFFFFFFFFFFFFFFFFFFFFFFFFFFFFFFFFFFFFF AND PUSH20 0xFFFFFFFFFFFFFFFFFFFFFFFFFFFFFFFFFFFFFFFF AND DUP2 MSTORE PUSH1 0x20 ADD SWAP1 DUP2 MSTORE PUSH1 0x20 ADD PUSH1 0x0 KECCAK256 SLOAD PUSH2 0x185D JUMP JUMPDEST POP POP POP POP POP POP POP POP POP JUMP JUMPDEST PUSH2 0xEDB PUSH1 0x40 MLOAD DUP1 PUSH1 0x40 ADD PUSH1 0x40 MSTORE DUP1 PUSH1 0xE DUP2 MSTORE PUSH1 0x20 ADD PUSH32 0x6574685F72657365727665733A20000000000000000000000000000000000000 DUP2 MSTORE POP PUSH1 0x5 SLOAD PUSH2 0x185D JUMP JUMPDEST PUSH2 0xF1C PUSH1 0x40 MLOAD DUP1 PUSH1 0x40 ADD PUSH1 0x40 MSTORE DUP1 PUSH1 0x10 DUP2 MSTORE PUSH1 0x20 ADD PUSH32 0x746F6B656E5F72657365727665733A2000000000000000000000000000000000 DUP2 MSTORE POP PUSH1 0x4 SLOAD PUSH2 0x185D JUMP JUMPDEST PUSH2 0xF5D PUSH1 0x40 MLOAD DUP1 PUSH1 0x40 ADD PUSH1 0x40 MSTORE DUP1 PUSH1 0x3 DUP2 MSTORE PUSH1 0x20 ADD PUSH32 0x6B3A200000000000000000000000000000000000000000000000000000000000 DUP2 MSTORE POP PUSH1 0xD SLOAD PUSH2 0x185D JUMP JUMPDEST PUSH2 0xF9E PUSH1 0x40 MLOAD DUP1 PUSH1 0x40 ADD PUSH1 0x40 MSTORE DUP1 PUSH1 0xE DUP2 MSTORE PUSH1 0x20 ADD PUSH32 0x746F74616C5F7368617265733A20000000000000000000000000000000000000 DUP2 MSTORE POP PUSH1 0xA SLOAD PUSH2 0x185D JUMP JUMPDEST JUMP JUMPDEST PUSH1 0x0 DUP1 PUSH1 0xB SLOAD PUSH1 0xC SLOAD SWAP2 POP SWAP2 POP SWAP1 SWAP2 JUMP JUMPDEST PUSH1 0x0 PUSH1 0x4 SLOAD CALLVALUE PUSH1 0x5 SLOAD PUSH2 0xFC4 SWAP2 SWAP1 PUSH2 0x21B0 JUMP JUMPDEST PUSH1 0xD SLOAD PUSH2 0xFD1 SWAP2 SWAP1 PUSH2 0x1FDE JUMP JUMPDEST PUSH2 0xFDB SWAP2 SWAP1 PUSH2 0x200F JUMP JUMPDEST SWAP1 POP PUSH1 0x0 DUP2 PUSH1 0x4 SLOAD PUSH2 0xFED SWAP2 SWAP1 PUSH2 0x200F JUMP JUMPDEST SWAP1 POP PUSH1 0x0 DUP2 GT PUSH2 0x1032 JUMPI PUSH1 0x40 MLOAD PUSH32 0x8C379A000000000000000000000000000000000000000000000000000000000 DUP2 MSTORE PUSH1 0x4 ADD PUSH2 0x1029 SWAP1 PUSH2 0x20FB JUMP JUMPDEST PUSH1 0x40 MLOAD DUP1 SWAP2 SUB SWAP1 REVERT JUMPDEST CALLVALUE PUSH1 0x5 PUSH1 0x0 DUP3 DUP3 SLOAD PUSH2 0x1044 SWAP2 SWAP1 PUSH2 0x21B0 JUMP JUMPDEST SWAP3 POP POP DUP2 SWAP1 SSTORE POP PUSH1 0x3 PUSH1 0x0 SWAP1 SLOAD SWAP1 PUSH2 0x100 EXP SWAP1 DIV PUSH20 0xFFFFFFFFFFFFFFFFFFFFFFFFFFFFFFFFFFFFFFFF AND PUSH20 0xFFFFFFFFFFFFFFFFFFFFFFFFFFFFFFFFFFFFFFFF AND PUSH4 0xA9059CBB CALLER DUP5 PUSH1 0x40 MLOAD DUP4 PUSH4 0xFFFFFFFF AND PUSH1 0xE0 SHL DUP2 MSTORE PUSH1 0x4 ADD PUSH2 0x10A8 SWAP3 SWAP2 SWAP1 PUSH2 0x211B JUMP JUMPDEST PUSH1 0x20 PUSH1 0x40 MLOAD DUP1 DUP4 SUB DUP2 PUSH1 0x0 DUP8 GAS CALL ISZERO DUP1 ISZERO PUSH2 0x10C7 JUMPI RETURNDATASIZE PUSH1 0x0 DUP1 RETURNDATACOPY RETURNDATASIZE PUSH1 0x0 REVERT JUMPDEST POP POP POP POP PUSH1 0x40 MLOAD RETURNDATASIZE PUSH1 0x1F NOT PUSH1 0x1F DUP3 ADD AND DUP3 ADD DUP1 PUSH1 0x40 MSTORE POP DUP2 ADD SWAP1 PUSH2 0x10EB SWAP2 SWAP1 PUSH2 0x1F11 JUMP JUMPDEST POP DUP1 PUSH1 0x4 DUP2 SWAP1 SSTORE POP CALLVALUE PUSH1 0x5 PUSH1 0x0 DUP3 DUP3 SLOAD PUSH2 0x1105 SWAP2 SWAP1 PUSH2 0x21B0 JUMP JUMPDEST SWAP3 POP POP DUP2 SWAP1 SSTORE POP PUSH1 0x5 SLOAD PUSH1 0x4 SLOAD PUSH2 0x111C SWAP2 SWAP1 PUSH2 0x1F6D JUMP JUMPDEST PUSH1 0xD DUP2 SWAP1 SSTORE POP POP POP JUMP JUMPDEST PUSH1 0x0 PUSH1 0x5 SLOAD DUP3 PUSH1 0x4 SLOAD PUSH2 0x1139 SWAP2 SWAP1 PUSH2 0x21B0 JUMP JUMPDEST PUSH1 0xD SLOAD PUSH2 0x1146 SWAP2 SWAP1 PUSH2 0x1FDE JUMP JUMPDEST PUSH2 0x1150 SWAP2 SWAP1 PUSH2 0x200F JUMP JUMPDEST SWAP1 POP PUSH1 0x0 DUP2 PUSH1 0x5 SLOAD PUSH2 0x1162 SWAP2 SWAP1 PUSH2 0x200F JUMP JUMPDEST SWAP1 POP PUSH1 0x0 DUP2 GT PUSH2 0x11A7 JUMPI PUSH1 0x40 MLOAD PUSH32 0x8C379A000000000000000000000000000000000000000000000000000000000 DUP2 MSTORE PUSH1 0x4 ADD PUSH2 0x119E SWAP1 PUSH2 0x208F JUMP JUMPDEST PUSH1 0x40 MLOAD DUP1 SWAP2 SUB SWAP1 REVERT JUMPDEST PUSH1 0x3 PUSH1 0x0 SWAP1 SLOAD SWAP1 PUSH2 0x100 EXP SWAP1 DIV PUSH20 0xFFFFFFFFFFFFFFFFFFFFFFFFFFFFFFFFFFFFFFFF AND PUSH20 0xFFFFFFFFFFFFFFFFFFFFFFFFFFFFFFFFFFFFFFFF AND PUSH4 0x23B872DD CALLER ADDRESS DUP7 PUSH1 0x40 MLOAD DUP5 PUSH4 0xFFFFFFFF AND PUSH1 0xE0 SHL DUP2 MSTORE PUSH1 0x4 ADD PUSH2 0x1206 SWAP4 SWAP3 SWAP2 SWAP1 PUSH2 0x1EA2 JUMP JUMPDEST PUSH1 0x20 PUSH1 0x40 MLOAD DUP1 DUP4 SUB DUP2 PUSH1 0x0 DUP8 GAS CALL ISZERO DUP1 ISZERO PUSH2 0x1225 JUMPI RETURNDATASIZE PUSH1 0x0 DUP1 RETURNDATACOPY RETURNDATASIZE PUSH1 0x0 REVERT JUMPDEST POP POP POP POP PUSH1 0x40 MLOAD RETURNDATASIZE PUSH1 0x1F NOT PUSH1 0x1F DUP3 ADD AND DUP3 ADD DUP1 PUSH1 0x40 MSTORE POP DUP2 ADD SWAP1 PUSH2 0x1249 SWAP2 SWAP1 PUSH2 0x1F11 JUMP JUMPDEST POP CALLER PUSH20 0xFFFFFFFFFFFFFFFFFFFFFFFFFFFFFFFFFFFFFFFF AND PUSH2 0x8FC DUP4 SWAP1 DUP2 ISZERO MUL SWAP1 PUSH1 0x40 MLOAD PUSH1 0x0 PUSH1 0x40 MLOAD DUP1 DUP4 SUB DUP2 DUP6 DUP9 DUP9 CALL SWAP4 POP POP POP POP ISZERO DUP1 ISZERO PUSH2 0x1290 JUMPI RETURNDATASIZE PUSH1 0x0 DUP1 RETURNDATACOPY RETURNDATASIZE PUSH1 0x0 REVERT JUMPDEST POP DUP3 PUSH1 0x4 PUSH1 0x0 DUP3 DUP3 SLOAD PUSH2 0x12A3 SWAP2 SWAP1 PUSH2 0x21B0 JUMP JUMPDEST SWAP3 POP POP DUP2 SWAP1 SSTORE POP DUP1 PUSH1 0x5 DUP2 SWAP1 SSTORE POP PUSH1 0x5 SLOAD PUSH1 0x4 SLOAD PUSH2 0x12C1 SWAP2 SWAP1 PUSH2 0x1F6D JUMP JUMPDEST PUSH1 0xD DUP2 SWAP1 SSTORE POP POP POP POP JUMP JUMPDEST PUSH1 0x0 CALLVALUE SWAP1 POP PUSH1 0x0 PUSH1 0x5 SLOAD PUSH1 0x4 SLOAD DUP4 PUSH2 0x12E4 SWAP2 SWAP1 PUSH2 0x1F6D JUMP JUMPDEST PUSH2 0x12EE SWAP2 SWAP1 PUSH2 0x1FDE JUMP JUMPDEST SWAP1 POP PUSH1 0x3 PUSH1 0x0 SWAP1 SLOAD SWAP1 PUSH2 0x100 EXP SWAP1 DIV PUSH20 0xFFFFFFFFFFFFFFFFFFFFFFFFFFFFFFFFFFFFFFFF AND PUSH20 0xFFFFFFFFFFFFFFFFFFFFFFFFFFFFFFFFFFFFFFFF AND PUSH4 0x70A08231 CALLER PUSH1 0x40 MLOAD DUP3 PUSH4 0xFFFFFFFF AND PUSH1 0xE0 SHL DUP2 MSTORE PUSH1 0x4 ADD PUSH2 0x134B SWAP2 SWAP1 PUSH2 0x1A7E JUMP JUMPDEST PUSH1 0x20 PUSH1 0x40 MLOAD DUP1 DUP4 SUB DUP2 DUP7 GAS STATICCALL ISZERO DUP1 ISZERO PUSH2 0x1368 JUMPI RETURNDATASIZE PUSH1 0x0 DUP1 RETURNDATACOPY RETURNDATASIZE PUSH1 0x0 REVERT JUMPDEST POP POP POP POP PUSH1 0x40 MLOAD RETURNDATASIZE PUSH1 0x1F NOT PUSH1 0x1F DUP3 ADD AND DUP3 ADD DUP1 PUSH1 0x40 MSTORE POP DUP2 ADD SWAP1 PUSH2 0x138C SWAP2 SWAP1 PUSH2 0x1D77 JUMP JUMPDEST DUP2 GT ISZERO PUSH2 0x13CE JUMPI PUSH1 0x40 MLOAD PUSH32 0x8C379A000000000000000000000000000000000000000000000000000000000 DUP2 MSTORE PUSH1 0x4 ADD PUSH2 0x13C5 SWAP1 PUSH2 0x2230 JUMP JUMPDEST PUSH1 0x40 MLOAD DUP1 SWAP2 SUB SWAP1 REVERT JUMPDEST DUP2 PUSH1 0x5 PUSH1 0x0 DUP3 DUP3 SLOAD PUSH2 0x13E0 SWAP2 SWAP1 PUSH2 0x21B0 JUMP JUMPDEST SWAP3 POP POP DUP2 SWAP1 SSTORE POP DUP1 PUSH1 0x4 PUSH1 0x0 DUP3 DUP3 SLOAD PUSH2 0x13F9 SWAP2 SWAP1 PUSH2 0x21B0 JUMP JUMPDEST SWAP3 POP POP DUP2 SWAP1 SSTORE POP PUSH1 0x0 PUSH1 0x4 SLOAD DUP3 PUSH3 0x186A0 PUSH2 0x1414 SWAP2 SWAP1 PUSH2 0x1F6D JUMP JUMPDEST PUSH2 0x141E SWAP2 SWAP1 PUSH2 0x1FDE JUMP JUMPDEST SWAP1 POP PUSH1 0x3 PUSH1 0x0 SWAP1 SLOAD SWAP1 PUSH2 0x100 EXP SWAP1 DIV PUSH20 0xFFFFFFFFFFFFFFFFFFFFFFFFFFFFFFFFFFFFFFFF AND PUSH20 0xFFFFFFFFFFFFFFFFFFFFFFFFFFFFFFFFFFFFFFFF AND PUSH4 0x23B872DD CALLER ADDRESS DUP6 PUSH1 0x40 MLOAD DUP5 PUSH4 0xFFFFFFFF AND PUSH1 0xE0 SHL DUP2 MSTORE PUSH1 0x4 ADD PUSH2 0x147F SWAP4 SWAP3 SWAP2 SWAP1 PUSH2 0x1EA2 JUMP JUMPDEST PUSH1 0x20 PUSH1 0x40 MLOAD DUP1 DUP4 SUB DUP2 PUSH1 0x0 DUP8 GAS CALL ISZERO DUP1 ISZERO PUSH2 0x149E JUMPI RETURNDATASIZE PUSH1 0x0 DUP1 RETURNDATACOPY RETURNDATASIZE PUSH1 0x0 REVERT JUMPDEST POP POP POP POP PUSH1 0x40 MLOAD RETURNDATASIZE PUSH1 0x1F NOT PUSH1 0x1F DUP3 ADD AND DUP3 ADD DUP1 PUSH1 0x40 MSTORE POP DUP2 ADD SWAP1 PUSH2 0x14C2 SWAP2 SWAP1 PUSH2 0x1F11 JUMP JUMPDEST POP DUP1 PUSH1 0x8 PUSH1 0x0 CALLER PUSH20 0xFFFFFFFFFFFFFFFFFFFFFFFFFFFFFFFFFFFFFFFF AND PUSH20 0xFFFFFFFFFFFFFFFFFFFFFFFFFFFFFFFFFFFFFFFF AND DUP2 MSTORE PUSH1 0x20 ADD SWAP1 DUP2 MSTORE PUSH1 0x20 ADD PUSH1 0x0 KECCAK256 PUSH1 0x0 DUP3 DUP3 SLOAD PUSH2 0x1512 SWAP2 SWAP1 PUSH2 0x21B0 JUMP JUMPDEST SWAP3 POP POP DUP2 SWAP1 SSTORE POP PUSH1 0x5 SLOAD PUSH1 0x4 SLOAD PUSH2 0x1529 SWAP2 SWAP1 PUSH2 0x1F6D JUMP JUMPDEST PUSH1 0xD DUP2 SWAP1 SSTORE POP DUP1 PUSH1 0xA PUSH1 0x0 DUP3 DUP3 SLOAD PUSH2 0x1541 SWAP2 SWAP1 PUSH2 0x21B0 JUMP JUMPDEST SWAP3 POP POP DUP2 SWAP1 SSTORE POP PUSH2 0x1550 PUSH2 0xE9A JUMP JUMPDEST PUSH2 0x158F PUSH1 0x40 MLOAD DUP1 PUSH1 0x40 ADD PUSH1 0x40 MSTORE DUP1 PUSH1 0x8 DUP2 MSTORE PUSH1 0x20 ADD PUSH32 0x7368617265733A20000000000000000000000000000000000000000000000000 DUP2 MSTORE POP DUP3 PUSH2 0x185D JUMP JUMPDEST CALLER PUSH20 0xFFFFFFFFFFFFFFFFFFFFFFFFFFFFFFFFFFFFFFFF AND PUSH32 0x6239653922AC7BEA6AA2B19DC486B9361821D37712EB796ADFD38D81DE278CA DUP4 DUP6 PUSH1 0x40 MLOAD PUSH2 0x15D7 SWAP3 SWAP2 SWAP1 PUSH2 0x19B6 JUMP JUMPDEST PUSH1 0x40 MLOAD DUP1 SWAP2 SUB SWAP1 LOG2 POP POP POP JUMP JUMPDEST PUSH2 0x15EC PUSH2 0x171B JUMP JUMPDEST PUSH1 0x0 PUSH20 0xFFFFFFFFFFFFFFFFFFFFFFFFFFFFFFFFFFFFFFFF AND DUP2 PUSH20 0xFFFFFFFFFFFFFFFFFFFFFFFFFFFFFFFFFFFFFFFF AND SUB PUSH2 0x165B JUMPI PUSH1 0x40 MLOAD PUSH32 0x8C379A000000000000000000000000000000000000000000000000000000000 DUP2 MSTORE PUSH1 0x4 ADD PUSH2 0x1652 SWAP1 PUSH2 0x22C2 JUMP JUMPDEST PUSH1 0x40 MLOAD DUP1 SWAP2 SUB SWAP1 REVERT JUMPDEST PUSH2 0x1664 DUP2 PUSH2 0x1799 JUMP JUMPDEST POP JUMP JUMPDEST PUSH1 0x1 DUP1 SLOAD PUSH2 0x1674 SWAP1 PUSH2 0x2311 JUMP JUMPDEST DUP1 PUSH1 0x1F ADD PUSH1 0x20 DUP1 SWAP2 DIV MUL PUSH1 0x20 ADD PUSH1 0x40 MLOAD SWAP1 DUP2 ADD PUSH1 0x40 MSTORE DUP1 SWAP3 SWAP2 SWAP1 DUP2 DUP2 MSTORE PUSH1 0x20 ADD DUP3 DUP1 SLOAD PUSH2 0x16A0 SWAP1 PUSH2 0x2311 JUMP JUMPDEST DUP1 ISZERO PUSH2 0x16ED JUMPI DUP1 PUSH1 0x1F LT PUSH2 0x16C2 JUMPI PUSH2 0x100 DUP1 DUP4 SLOAD DIV MUL DUP4 MSTORE SWAP2 PUSH1 0x20 ADD SWAP2 PUSH2 0x16ED JUMP JUMPDEST DUP3 ADD SWAP2 SWAP1 PUSH1 0x0 MSTORE PUSH1 0x20 PUSH1 0x0 KECCAK256 SWAP1 JUMPDEST DUP2 SLOAD DUP2 MSTORE SWAP1 PUSH1 0x1 ADD SWAP1 PUSH1 0x20 ADD DUP1 DUP4 GT PUSH2 0x16D0 JUMPI DUP3 SWAP1 SUB PUSH1 0x1F AND DUP3 ADD SWAP2 JUMPDEST POP POP POP POP POP DUP2 JUMP JUMPDEST PUSH1 0x3 PUSH1 0x0 SWAP1 SLOAD SWAP1 PUSH2 0x100 EXP SWAP1 DIV PUSH20 0xFFFFFFFFFFFFFFFFFFFFFFFFFFFFFFFFFFFFFFFF AND DUP2 JUMP JUMPDEST PUSH2 0x1723 PUSH2 0x1945 JUMP JUMPDEST PUSH20 0xFFFFFFFFFFFFFFFFFFFFFFFFFFFFFFFFFFFFFFFF AND PUSH2 0x1741 PUSH2 0x9C8 JUMP JUMPDEST PUSH20 0xFFFFFFFFFFFFFFFFFFFFFFFFFFFFFFFFFFFFFFFF AND EQ PUSH2 0x1797 JUMPI PUSH1 0x40 MLOAD PUSH32 0x8C379A000000000000000000000000000000000000000000000000000000000 DUP2 MSTORE PUSH1 0x4 ADD PUSH2 0x178E SWAP1 PUSH2 0x238E JUMP JUMPDEST PUSH1 0x40 MLOAD DUP1 SWAP2 SUB SWAP1 REVERT JUMPDEST JUMP JUMPDEST PUSH1 0x0 DUP1 PUSH1 0x0 SWAP1 SLOAD SWAP1 PUSH2 0x100 EXP SWAP1 DIV PUSH20 0xFFFFFFFFFFFFFFFFFFFFFFFFFFFFFFFFFFFFFFFF AND SWAP1 POP DUP2 PUSH1 0x0 DUP1 PUSH2 0x100 EXP DUP2 SLOAD DUP2 PUSH20 0xFFFFFFFFFFFFFFFFFFFFFFFFFFFFFFFFFFFFFFFF MUL NOT AND SWAP1 DUP4 PUSH20 0xFFFFFFFFFFFFFFFFFFFFFFFFFFFFFFFFFFFFFFFF AND MUL OR SWAP1 SSTORE POP DUP2 PUSH20 0xFFFFFFFFFFFFFFFFFFFFFFFFFFFFFFFFFFFFFFFF AND DUP2 PUSH20 0xFFFFFFFFFFFFFFFFFFFFFFFFFFFFFFFFFFFFFFFF AND PUSH32 0x8BE0079C531659141344CD1FD0A4F28419497F9722A3DAAFE3B4186F6B6457E0 PUSH1 0x40 MLOAD PUSH1 0x40 MLOAD DUP1 SWAP2 SUB SWAP1 LOG3 POP POP JUMP JUMPDEST PUSH2 0x18F5 DUP3 DUP3 PUSH1 0x40 MLOAD PUSH1 0x24 ADD PUSH2 0x1873 SWAP3 SWAP2 SWAP1 PUSH2 0x23AE JUMP JUMPDEST PUSH1 0x40 MLOAD PUSH1 0x20 DUP2 DUP4 SUB SUB DUP2 MSTORE SWAP1 PUSH1 0x40 MSTORE PUSH32 0xB60E72CC00000000000000000000000000000000000000000000000000000000 PUSH28 0xFFFFFFFFFFFFFFFFFFFFFFFFFFFFFFFFFFFFFFFFFFFFFFFFFFFFFFFF NOT AND PUSH1 0x20 DUP3 ADD DUP1 MLOAD PUSH28 0xFFFFFFFFFFFFFFFFFFFFFFFFFFFFFFFFFFFFFFFFFFFFFFFFFFFFFFFF DUP4 DUP2 DUP4 AND OR DUP4 MSTORE POP POP POP POP PUSH2 0x194D JUMP JUMPDEST POP POP JUMP JUMPDEST PUSH1 0x0 PUSH1 0x8 PUSH1 0x0 CALLER PUSH20 0xFFFFFFFFFFFFFFFFFFFFFFFFFFFFFFFFFFFFFFFF AND PUSH20 0xFFFFFFFFFFFFFFFFFFFFFFFFFFFFFFFFFFFFFFFF AND DUP2 MSTORE PUSH1 0x20 ADD SWAP1 DUP2 MSTORE PUSH1 0x20 ADD PUSH1 0x0 KECCAK256 SLOAD DUP3 GT ISZERO SWAP1 POP SWAP2 SWAP1 POP JUMP JUMPDEST PUSH1 0x0 CALLER SWAP1 POP SWAP1 JUMP JUMPDEST PUSH2 0x1964 DUP2 PUSH2 0x195C PUSH2 0x1967 PUSH2 0x1988 JUMP JUMPDEST PUSH4 0xFFFFFFFF AND JUMP JUMPDEST POP JUMP JUMPDEST PUSH1 0x0 PUSH11 0x636F6E736F6C652E6C6F67 SWAP1 POP PUSH1 0x0 DUP1 DUP4 MLOAD PUSH1 0x20 DUP6 ADD DUP5 GAS STATICCALL POP POP POP JUMP JUMPDEST PUSH2 0x1993 DUP2 SWAP1 POP SWAP2 SWAP1 POP JUMP JUMPDEST PUSH2 0x199B PUSH2 0x23DE JUMP JUMPDEST JUMP JUMPDEST PUSH1 0x0 DUP2 SWAP1 POP SWAP2 SWAP1 POP JUMP JUMPDEST PUSH2 0x19B0 DUP2 PUSH2 0x199D JUMP JUMPDEST DUP3 MSTORE POP POP JUMP JUMPDEST PUSH1 0x0 PUSH1 0x40 DUP3 ADD SWAP1 POP PUSH2 0x19CB PUSH1 0x0 DUP4 ADD DUP6 PUSH2 0x19A7 JUMP JUMPDEST PUSH2 0x19D8 PUSH1 0x20 DUP4 ADD DUP5 PUSH2 0x19A7 JUMP JUMPDEST SWAP4 SWAP3 POP POP POP JUMP JUMPDEST PUSH1 0x0 DUP1 REVERT JUMPDEST PUSH2 0x19ED DUP2 PUSH2 0x199D JUMP JUMPDEST DUP2 EQ PUSH2 0x19F8 JUMPI PUSH1 0x0 DUP1 REVERT JUMPDEST POP JUMP JUMPDEST PUSH1 0x0 DUP2 CALLDATALOAD SWAP1 POP PUSH2 0x1A0A DUP2 PUSH2 0x19E4 JUMP JUMPDEST SWAP3 SWAP2 POP POP JUMP JUMPDEST PUSH1 0x0 PUSH1 0x20 DUP3 DUP5 SUB SLT ISZERO PUSH2 0x1A26 JUMPI PUSH2 0x1A25 PUSH2 0x19DF JUMP JUMPDEST JUMPDEST PUSH1 0x0 PUSH2 0x1A34 DUP5 DUP3 DUP6 ADD PUSH2 0x19FB JUMP JUMPDEST SWAP2 POP POP SWAP3 SWAP2 POP POP JUMP JUMPDEST PUSH1 0x0 PUSH20 0xFFFFFFFFFFFFFFFFFFFFFFFFFFFFFFFFFFFFFFFF DUP3 AND SWAP1 POP SWAP2 SWAP1 POP JUMP JUMPDEST PUSH1 0x0 PUSH2 0x1A68 DUP3 PUSH2 0x1A3D JUMP JUMPDEST SWAP1 POP SWAP2 SWAP1 POP JUMP JUMPDEST PUSH2 0x1A78 DUP2 PUSH2 0x1A5D JUMP JUMPDEST DUP3 MSTORE POP POP JUMP JUMPDEST PUSH1 0x0 PUSH1 0x20 DUP3 ADD SWAP1 POP PUSH2 0x1A93 PUSH1 0x0 DUP4 ADD DUP5 PUSH2 0x1A6F JUMP JUMPDEST SWAP3 SWAP2 POP POP JUMP JUMPDEST PUSH2 0x1AA2 DUP2 PUSH2 0x1A5D JUMP JUMPDEST DUP2 EQ PUSH2 0x1AAD JUMPI PUSH1 0x0 DUP1 REVERT JUMPDEST POP JUMP JUMPDEST PUSH1 0x0 DUP2 CALLDATALOAD SWAP1 POP PUSH2 0x1ABF DUP2 PUSH2 0x1A99 JUMP JUMPDEST SWAP3 SWAP2 POP POP JUMP JUMPDEST PUSH1 0x0 PUSH1 0x20 DUP3 DUP5 SUB SLT ISZERO PUSH2 0x1ADB JUMPI PUSH2 0x1ADA PUSH2 0x19DF JUMP JUMPDEST JUMPDEST PUSH1 0x0 PUSH2 0x1AE9 DUP5 DUP3 DUP6 ADD PUSH2 0x1AB0 JUMP JUMPDEST SWAP2 POP POP SWAP3 SWAP2 POP POP JUMP JUMPDEST PUSH1 0x0 DUP2 MLOAD SWAP1 POP SWAP2 SWAP1 POP JUMP JUMPDEST PUSH1 0x0 DUP3 DUP3 MSTORE PUSH1 0x20 DUP3 ADD SWAP1 POP SWAP3 SWAP2 POP POP JUMP JUMPDEST PUSH1 0x0 JUMPDEST DUP4 DUP2 LT ISZERO PUSH2 0x1B2C JUMPI DUP1 DUP3 ADD MLOAD DUP2 DUP5 ADD MSTORE PUSH1 0x20 DUP2 ADD SWAP1 POP PUSH2 0x1B11 JUMP JUMPDEST PUSH1 0x0 DUP5 DUP5 ADD MSTORE POP POP POP POP JUMP JUMPDEST PUSH1 0x0 PUSH1 0x1F NOT PUSH1 0x1F DUP4 ADD AND SWAP1 POP SWAP2 SWAP1 POP JUMP JUMPDEST PUSH1 0x0 PUSH2 0x1B54 DUP3 PUSH2 0x1AF2 JUMP JUMPDEST PUSH2 0x1B5E DUP2 DUP6 PUSH2 0x1AFD JUMP JUMPDEST SWAP4 POP PUSH2 0x1B6E DUP2 DUP6 PUSH1 0x20 DUP7 ADD PUSH2 0x1B0E JUMP JUMPDEST PUSH2 0x1B77 DUP2 PUSH2 0x1B38 JUMP JUMPDEST DUP5 ADD SWAP2 POP POP SWAP3 SWAP2 POP POP JUMP JUMPDEST PUSH1 0x0 PUSH1 0x20 DUP3 ADD SWAP1 POP DUP2 DUP2 SUB PUSH1 0x0 DUP4 ADD MSTORE PUSH2 0x1B9C DUP2 DUP5 PUSH2 0x1B49 JUMP JUMPDEST SWAP1 POP SWAP3 SWAP2 POP POP JUMP JUMPDEST PUSH1 0x0 DUP2 SWAP1 POP SWAP2 SWAP1 POP JUMP JUMPDEST PUSH1 0x0 PUSH2 0x1BC9 PUSH2 0x1BC4 PUSH2 0x1BBF DUP5 PUSH2 0x1A3D JUMP JUMPDEST PUSH2 0x1BA4 JUMP JUMPDEST PUSH2 0x1A3D JUMP JUMPDEST SWAP1 POP SWAP2 SWAP1 POP JUMP JUMPDEST PUSH1 0x0 PUSH2 0x1BDB DUP3 PUSH2 0x1BAE JUMP JUMPDEST SWAP1 POP SWAP2 SWAP1 POP JUMP JUMPDEST PUSH1 0x0 PUSH2 0x1BED DUP3 PUSH2 0x1BD0 JUMP JUMPDEST SWAP1 POP SWAP2 SWAP1 POP JUMP JUMPDEST PUSH2 0x1BFD DUP2 PUSH2 0x1BE2 JUMP JUMPDEST DUP3 MSTORE POP POP JUMP JUMPDEST PUSH1 0x0 PUSH1 0x20 DUP3 ADD SWAP1 POP PUSH2 0x1C18 PUSH1 0x0 DUP4 ADD DUP5 PUSH2 0x1BF4 JUMP JUMPDEST SWAP3 SWAP2 POP POP JUMP JUMPDEST PUSH32 0x546F6B656E20726573657276657320776173206E6F7420300000000000000000 PUSH1 0x0 DUP3 ADD MSTORE POP JUMP JUMPDEST PUSH1 0x0 PUSH2 0x1C54 PUSH1 0x18 DUP4 PUSH2 0x1AFD JUMP JUMPDEST SWAP2 POP PUSH2 0x1C5F DUP3 PUSH2 0x1C1E JUMP JUMPDEST PUSH1 0x20 DUP3 ADD SWAP1 POP SWAP2 SWAP1 POP JUMP JUMPDEST PUSH1 0x0 PUSH1 0x20 DUP3 ADD SWAP1 POP DUP2 DUP2 SUB PUSH1 0x0 DUP4 ADD MSTORE PUSH2 0x1C83 DUP2 PUSH2 0x1C47 JUMP JUMPDEST SWAP1 POP SWAP2 SWAP1 POP JUMP JUMPDEST PUSH32 0x45544820726573657276657320776173206E6F7420302E000000000000000000 PUSH1 0x0 DUP3 ADD MSTORE POP JUMP JUMPDEST PUSH1 0x0 PUSH2 0x1CC0 PUSH1 0x17 DUP4 PUSH2 0x1AFD JUMP JUMPDEST SWAP2 POP PUSH2 0x1CCB DUP3 PUSH2 0x1C8A JUMP JUMPDEST PUSH1 0x20 DUP3 ADD SWAP1 POP SWAP2 SWAP1 POP JUMP JUMPDEST PUSH1 0x0 PUSH1 0x20 DUP3 ADD SWAP1 POP DUP2 DUP2 SUB PUSH1 0x0 DUP4 ADD MSTORE PUSH2 0x1CEF DUP2 PUSH2 0x1CB3 JUMP JUMPDEST SWAP1 POP SWAP2 SWAP1 POP JUMP JUMPDEST PUSH32 0x4E6565642065746820746F2063726561746520706F6F6C2E0000000000000000 PUSH1 0x0 DUP3 ADD MSTORE POP JUMP JUMPDEST PUSH1 0x0 PUSH2 0x1D2C PUSH1 0x18 DUP4 PUSH2 0x1AFD JUMP JUMPDEST SWAP2 POP PUSH2 0x1D37 DUP3 PUSH2 0x1CF6 JUMP JUMPDEST PUSH1 0x20 DUP3 ADD SWAP1 POP SWAP2 SWAP1 POP JUMP JUMPDEST PUSH1 0x0 PUSH1 0x20 DUP3 ADD SWAP1 POP DUP2 DUP2 SUB PUSH1 0x0 DUP4 ADD MSTORE PUSH2 0x1D5B DUP2 PUSH2 0x1D1F JUMP JUMPDEST SWAP1 POP SWAP2 SWAP1 POP JUMP JUMPDEST PUSH1 0x0 DUP2 MLOAD SWAP1 POP PUSH2 0x1D71 DUP2 PUSH2 0x19E4 JUMP JUMPDEST SWAP3 SWAP2 POP POP JUMP JUMPDEST PUSH1 0x0 PUSH1 0x20 DUP3 DUP5 SUB SLT ISZERO PUSH2 0x1D8D JUMPI PUSH2 0x1D8C PUSH2 0x19DF JUMP JUMPDEST JUMPDEST PUSH1 0x0 PUSH2 0x1D9B DUP5 DUP3 DUP6 ADD PUSH2 0x1D62 JUMP JUMPDEST SWAP2 POP POP SWAP3 SWAP2 POP POP JUMP JUMPDEST PUSH32 0x4E6F74206861766520656E6F75676820746F6B656E7320746F20637265617465 PUSH1 0x0 DUP3 ADD MSTORE PUSH32 0x2074686520706F6F6C0000000000000000000000000000000000000000000000 PUSH1 0x20 DUP3 ADD MSTORE POP JUMP JUMPDEST PUSH1 0x0 PUSH2 0x1E00 PUSH1 0x29 DUP4 PUSH2 0x1AFD JUMP JUMPDEST SWAP2 POP PUSH2 0x1E0B DUP3 PUSH2 0x1DA4 JUMP JUMPDEST PUSH1 0x40 DUP3 ADD SWAP1 POP SWAP2 SWAP1 POP JUMP JUMPDEST PUSH1 0x0 PUSH1 0x20 DUP3 ADD SWAP1 POP DUP2 DUP2 SUB PUSH1 0x0 DUP4 ADD MSTORE PUSH2 0x1E2F DUP2 PUSH2 0x1DF3 JUMP JUMPDEST SWAP1 POP SWAP2 SWAP1 POP JUMP JUMPDEST PUSH32 0x4E65656420746F6B656E7320746F2063726561746520706F6F6C2E0000000000 PUSH1 0x0 DUP3 ADD MSTORE POP JUMP JUMPDEST PUSH1 0x0 PUSH2 0x1E6C PUSH1 0x1B DUP4 PUSH2 0x1AFD JUMP JUMPDEST SWAP2 POP PUSH2 0x1E77 DUP3 PUSH2 0x1E36 JUMP JUMPDEST PUSH1 0x20 DUP3 ADD SWAP1 POP SWAP2 SWAP1 POP JUMP JUMPDEST PUSH1 0x0 PUSH1 0x20 DUP3 ADD SWAP1 POP DUP2 DUP2 SUB PUSH1 0x0 DUP4 ADD MSTORE PUSH2 0x1E9B DUP2 PUSH2 0x1E5F JUMP JUMPDEST SWAP1 POP SWAP2 SWAP1 POP JUMP JUMPDEST PUSH1 0x0 PUSH1 0x60 DUP3 ADD SWAP1 POP PUSH2 0x1EB7 PUSH1 0x0 DUP4 ADD DUP7 PUSH2 0x1A6F JUMP JUMPDEST PUSH2 0x1EC4 PUSH1 0x20 DUP4 ADD DUP6 PUSH2 0x1A6F JUMP JUMPDEST PUSH2 0x1ED1 PUSH1 0x40 DUP4 ADD DUP5 PUSH2 0x19A7 JUMP JUMPDEST SWAP5 SWAP4 POP POP POP POP JUMP JUMPDEST PUSH1 0x0 DUP2 ISZERO ISZERO SWAP1 POP SWAP2 SWAP1 POP JUMP JUMPDEST PUSH2 0x1EEE DUP2 PUSH2 0x1ED9 JUMP JUMPDEST DUP2 EQ PUSH2 0x1EF9 JUMPI PUSH1 0x0 DUP1 REVERT JUMPDEST POP JUMP JUMPDEST PUSH1 0x0 DUP2 MLOAD SWAP1 POP PUSH2 0x1F0B DUP2 PUSH2 0x1EE5 JUMP JUMPDEST SWAP3 SWAP2 POP POP JUMP JUMPDEST PUSH1 0x0 PUSH1 0x20 DUP3 DUP5 SUB SLT ISZERO PUSH2 0x1F27 JUMPI PUSH2 0x1F26 PUSH2 0x19DF JUMP JUMPDEST JUMPDEST PUSH1 0x0 PUSH2 0x1F35 DUP5 DUP3 DUP6 ADD PUSH2 0x1EFC JUMP JUMPDEST SWAP2 POP POP SWAP3 SWAP2 POP POP JUMP JUMPDEST PUSH32 0x4E487B7100000000000000000000000000000000000000000000000000000000 PUSH1 0x0 MSTORE PUSH1 0x11 PUSH1 0x4 MSTORE PUSH1 0x24 PUSH1 0x0 REVERT JUMPDEST PUSH1 0x0 PUSH2 0x1F78 DUP3 PUSH2 0x199D JUMP JUMPDEST SWAP2 POP PUSH2 0x1F83 DUP4 PUSH2 0x199D JUMP JUMPDEST SWAP3 POP DUP3 DUP3 MUL PUSH2 0x1F91 DUP2 PUSH2 0x199D JUMP JUMPDEST SWAP2 POP DUP3 DUP3 DIV DUP5 EQ DUP4 ISZERO OR PUSH2 0x1FA8 JUMPI PUSH2 0x1FA7 PUSH2 0x1F3E JUMP JUMPDEST JUMPDEST POP SWAP3 SWAP2 POP POP JUMP JUMPDEST PUSH32 0x4E487B7100000000000000000000000000000000000000000000000000000000 PUSH1 0x0 MSTORE PUSH1 0x12 PUSH1 0x4 MSTORE PUSH1 0x24 PUSH1 0x0 REVERT JUMPDEST PUSH1 0x0 PUSH2 0x1FE9 DUP3 PUSH2 0x199D JUMP JUMPDEST SWAP2 POP PUSH2 0x1FF4 DUP4 PUSH2 0x199D JUMP JUMPDEST SWAP3 POP DUP3 PUSH2 0x2004 JUMPI PUSH2 0x2003 PUSH2 0x1FAF JUMP JUMPDEST JUMPDEST DUP3 DUP3 DIV SWAP1 POP SWAP3 SWAP2 POP POP JUMP JUMPDEST PUSH1 0x0 PUSH2 0x201A DUP3 PUSH2 0x199D JUMP JUMPDEST SWAP2 POP PUSH2 0x2025 DUP4 PUSH2 0x199D JUMP JUMPDEST SWAP3 POP DUP3 DUP3 SUB SWAP1 POP DUP2 DUP2 GT ISZERO PUSH2 0x203D JUMPI PUSH2 0x203C PUSH2 0x1F3E JUMP JUMPDEST JUMPDEST SWAP3 SWAP2 POP POP JUMP JUMPDEST PUSH32 0x4E6F7420656E6F75676820657468207265736572766573000000000000000000 PUSH1 0x0 DUP3 ADD MSTORE POP JUMP JUMPDEST PUSH1 0x0 PUSH2 0x2079 PUSH1 0x17 DUP4 PUSH2 0x1AFD JUMP JUMPDEST SWAP2 POP PUSH2 0x2084 DUP3 PUSH2 0x2043 JUMP JUMPDEST PUSH1 0x20 DUP3 ADD SWAP1 POP SWAP2 SWAP1 POP JUMP JUMPDEST PUSH1 0x0 PUSH1 0x20 DUP3 ADD SWAP1 POP DUP2 DUP2 SUB PUSH1 0x0 DUP4 ADD MSTORE PUSH2 0x20A8 DUP2 PUSH2 0x206C JUMP JUMPDEST SWAP1 POP SWAP2 SWAP1 POP JUMP JUMPDEST PUSH32 0x4E6F7420656E6F75676820746F6B656E20726573657276657300000000000000 PUSH1 0x0 DUP3 ADD MSTORE POP JUMP JUMPDEST PUSH1 0x0 PUSH2 0x20E5 PUSH1 0x19 DUP4 PUSH2 0x1AFD JUMP JUMPDEST SWAP2 POP PUSH2 0x20F0 DUP3 PUSH2 0x20AF JUMP JUMPDEST PUSH1 0x20 DUP3 ADD SWAP1 POP SWAP2 SWAP1 POP JUMP JUMPDEST PUSH1 0x0 PUSH1 0x20 DUP3 ADD SWAP1 POP DUP2 DUP2 SUB PUSH1 0x0 DUP4 ADD MSTORE PUSH2 0x2114 DUP2 PUSH2 0x20D8 JUMP JUMPDEST SWAP1 POP SWAP2 SWAP1 POP JUMP JUMPDEST PUSH1 0x0 PUSH1 0x40 DUP3 ADD SWAP1 POP PUSH2 0x2130 PUSH1 0x0 DUP4 ADD DUP6 PUSH2 0x1A6F JUMP JUMPDEST PUSH2 0x213D PUSH1 0x20 DUP4 ADD DUP5 PUSH2 0x19A7 JUMP JUMPDEST SWAP4 SWAP3 POP POP POP JUMP JUMPDEST PUSH32 0x4E6F7420656E6F75676820736861726573000000000000000000000000000000 PUSH1 0x0 DUP3 ADD MSTORE POP JUMP JUMPDEST PUSH1 0x0 PUSH2 0x217A PUSH1 0x11 DUP4 PUSH2 0x1AFD JUMP JUMPDEST SWAP2 POP PUSH2 0x2185 DUP3 PUSH2 0x2144 JUMP JUMPDEST PUSH1 0x20 DUP3 ADD SWAP1 POP SWAP2 SWAP1 POP JUMP JUMPDEST PUSH1 0x0 PUSH1 0x20 DUP3 ADD SWAP1 POP DUP2 DUP2 SUB PUSH1 0x0 DUP4 ADD MSTORE PUSH2 0x21A9 DUP2 PUSH2 0x216D JUMP JUMPDEST SWAP1 POP SWAP2 SWAP1 POP JUMP JUMPDEST PUSH1 0x0 PUSH2 0x21BB DUP3 PUSH2 0x199D JUMP JUMPDEST SWAP2 POP PUSH2 0x21C6 DUP4 PUSH2 0x199D JUMP JUMPDEST SWAP3 POP DUP3 DUP3 ADD SWAP1 POP DUP1 DUP3 GT ISZERO PUSH2 0x21DE JUMPI PUSH2 0x21DD PUSH2 0x1F3E JUMP JUMPDEST JUMPDEST SWAP3 SWAP2 POP POP JUMP JUMPDEST PUSH32 0x4E6F7420656E6F75676820746F6B656E2062616C616E63650000000000000000 PUSH1 0x0 DUP3 ADD MSTORE POP JUMP JUMPDEST PUSH1 0x0 PUSH2 0x221A PUSH1 0x18 DUP4 PUSH2 0x1AFD JUMP JUMPDEST SWAP2 POP PUSH2 0x2225 DUP3 PUSH2 0x21E4 JUMP JUMPDEST PUSH1 0x20 DUP3 ADD SWAP1 POP SWAP2 SWAP1 POP JUMP JUMPDEST PUSH1 0x0 PUSH1 0x20 DUP3 ADD SWAP1 POP DUP2 DUP2 SUB PUSH1 0x0 DUP4 ADD MSTORE PUSH2 0x2249 DUP2 PUSH2 0x220D JUMP JUMPDEST SWAP1 POP SWAP2 SWAP1 POP JUMP JUMPDEST PUSH32 0x4F776E61626C653A206E6577206F776E657220697320746865207A65726F2061 PUSH1 0x0 DUP3 ADD MSTORE PUSH32 0x6464726573730000000000000000000000000000000000000000000000000000 PUSH1 0x20 DUP3 ADD MSTORE POP JUMP JUMPDEST PUSH1 0x0 PUSH2 0x22AC PUSH1 0x26 DUP4 PUSH2 0x1AFD JUMP JUMPDEST SWAP2 POP PUSH2 0x22B7 DUP3 PUSH2 0x2250 JUMP JUMPDEST PUSH1 0x40 DUP3 ADD SWAP1 POP SWAP2 SWAP1 POP JUMP JUMPDEST PUSH1 0x0 PUSH1 0x20 DUP3 ADD SWAP1 POP DUP2 DUP2 SUB PUSH1 0x0 DUP4 ADD MSTORE PUSH2 0x22DB DUP2 PUSH2 0x229F JUMP JUMPDEST SWAP1 POP SWAP2 SWAP1 POP JUMP JUMPDEST PUSH32 0x4E487B7100000000000000000000000000000000000000000000000000000000 PUSH1 0x0 MSTORE PUSH1 0x22 PUSH1 0x4 MSTORE PUSH1 0x24 PUSH1 0x0 REVERT JUMPDEST PUSH1 0x0 PUSH1 0x2 DUP3 DIV SWAP1 POP PUSH1 0x1 DUP3 AND DUP1 PUSH2 0x2329 JUMPI PUSH1 0x7F DUP3 AND SWAP2 POP JUMPDEST PUSH1 0x20 DUP3 LT DUP2 SUB PUSH2 0x233C JUMPI PUSH2 0x233B PUSH2 0x22E2 JUMP JUMPDEST JUMPDEST POP SWAP2 SWAP1 POP JUMP JUMPDEST PUSH32 0x4F776E61626C653A2063616C6C6572206973206E6F7420746865206F776E6572 PUSH1 0x0 DUP3 ADD MSTORE POP JUMP JUMPDEST PUSH1 0x0 PUSH2 0x2378 PUSH1 0x20 DUP4 PUSH2 0x1AFD JUMP JUMPDEST SWAP2 POP PUSH2 0x2383 DUP3 PUSH2 0x2342 JUMP JUMPDEST PUSH1 0x20 DUP3 ADD SWAP1 POP SWAP2 SWAP1 POP JUMP JUMPDEST PUSH1 0x0 PUSH1 0x20 DUP3 ADD SWAP1 POP DUP2 DUP2 SUB PUSH1 0x0 DUP4 ADD MSTORE PUSH2 0x23A7 DUP2 PUSH2 0x236B JUMP JUMPDEST SWAP1 POP SWAP2 SWAP1 POP JUMP JUMPDEST PUSH1 0x0 PUSH1 0x40 DUP3 ADD SWAP1 POP DUP2 DUP2 SUB PUSH1 0x0 DUP4 ADD MSTORE PUSH2 0x23C8 DUP2 DUP6 PUSH2 0x1B49 JUMP JUMPDEST SWAP1 POP PUSH2 0x23D7 PUSH1 0x20 DUP4 ADD DUP5 PUSH2 0x19A7 JUMP JUMPDEST SWAP4 SWAP3 POP POP POP JUMP JUMPDEST PUSH32 0x4E487B7100000000000000000000000000000000000000000000000000000000 PUSH1 0x0 MSTORE PUSH1 0x51 PUSH1 0x4 MSTORE PUSH1 0x24 PUSH1 0x0 REVERT INVALID LOG2 PUSH5 0x6970667358 0x22 SLT KECCAK256 SMOD SWAP3 MSIZE 0xBF CODECOPY PUSH2 0x98EC 0x28 0xD 0x4E 0xDD DUP8 0xD8 DUP15 0x29 LOG2 0xB8 0xD9 PUSH22 0x5A3F4F03BF7F59D6861CCAD864736F6C634300081100 CALLER "},"methodIdentifiers":{"addLiquidity()":"e8078d94","createPool(uint256)":"8259e6a0","debugPrint()":"b651978d","exchange_name()":"f694f7d1","getReserves()":"0902f1ac","getSwapFee()":"d4cadf68","owner()":"8da5cb5b","removeAllLiquidity()":"88a780e5","removeLiquidity(uint256)":"9c8f9f23","renounceOwnership()":"715018a6","swapETHForTokens()":"d592cbf6","swapTokensForETH(uint256)":"e56a645e","token()":"fc0c546a","transferOwnership(address)":"f2fde38b"}}}}}